{
	"homework01.sol": {
		"MergeSortedArray": {
			"abi": [
				{
					"inputs": [
						{
							"internalType": "uint256[]",
							"name": "arr1",
							"type": "uint256[]"
						},
						{
							"internalType": "uint256[]",
							"name": "arr2",
							"type": "uint256[]"
						}
					],
					"name": "merge",
					"outputs": [
						{
							"internalType": "uint256[]",
							"name": "res",
							"type": "uint256[]"
						}
					],
					"stateMutability": "pure",
					"type": "function"
				}
			],
			"devdoc": {
				"kind": "dev",
				"methods": {},
				"version": 1
			},
			"evm": {
				"assembly": "    /* \"homework01.sol\":4047:4866  contract MergeSortedArray {... */\n  mstore(0x40, 0x80)\n  callvalue\n  dup1\n  iszero\n  tag_1\n  jumpi\n  revert(0x00, 0x00)\ntag_1:\n  pop\n  dataSize(sub_0)\n  dup1\n  dataOffset(sub_0)\n  0x00\n  codecopy\n  0x00\n  return\nstop\n\nsub_0: assembly {\n        /* \"homework01.sol\":4047:4866  contract MergeSortedArray {... */\n      mstore(0x40, 0x80)\n      callvalue\n      dup1\n      iszero\n      tag_1\n      jumpi\n      revert(0x00, 0x00)\n    tag_1:\n      pop\n      jumpi(tag_2, lt(calldatasize, 0x04))\n      shr(0xe0, calldataload(0x00))\n      dup1\n      0x088b9bf6\n      eq\n      tag_3\n      jumpi\n    tag_2:\n      revert(0x00, 0x00)\n        /* \"homework01.sol\":4106:4863  function merge(uint[] calldata arr1, uint[] calldata arr2) public pure returns (uint[] memory res) {... */\n    tag_3:\n      tag_4\n      0x04\n      dup1\n      calldatasize\n      sub\n      dup2\n      add\n      swap1\n      tag_5\n      swap2\n      swap1\n      tag_6\n      jump\t// in\n    tag_5:\n      tag_7\n      jump\t// in\n    tag_4:\n      mload(0x40)\n      tag_8\n      swap2\n      swap1\n      tag_9\n      jump\t// in\n    tag_8:\n      mload(0x40)\n      dup1\n      swap2\n      sub\n      swap1\n      return\n    tag_7:\n        /* \"homework01.sol\":4186:4203  uint[] memory res */\n      0x60\n        /* \"homework01.sol\":4216:4225  uint len1 */\n      0x00\n        /* \"homework01.sol\":4228:4232  arr1 */\n      dup6\n      dup6\n        /* \"homework01.sol\":4228:4239  arr1.length */\n      swap1\n      pop\n        /* \"homework01.sol\":4216:4239  uint len1 = arr1.length */\n      swap1\n      pop\n        /* \"homework01.sol\":4250:4259  uint len2 */\n      0x00\n        /* \"homework01.sol\":4262:4266  arr2 */\n      dup5\n      dup5\n        /* \"homework01.sol\":4262:4273  arr2.length */\n      swap1\n      pop\n        /* \"homework01.sol\":4250:4273  uint len2 = arr2.length */\n      swap1\n      pop\n        /* \"homework01.sol\":4284:4290  uint i */\n      0x00\n        /* \"homework01.sol\":4293:4294  0 */\n      0x00\n        /* \"homework01.sol\":4284:4294  uint i = 0 */\n      swap1\n      pop\n        /* \"homework01.sol\":4305:4311  uint j */\n      0x00\n        /* \"homework01.sol\":4314:4315  0 */\n      0x00\n        /* \"homework01.sol\":4305:4315  uint j = 0 */\n      swap1\n      pop\n        /* \"homework01.sol\":4326:4332  uint k */\n      0x00\n        /* \"homework01.sol\":4335:4336  0 */\n      0x00\n        /* \"homework01.sol\":4326:4336  uint k = 0 */\n      swap1\n      pop\n        /* \"homework01.sol\":4373:4377  len2 */\n      dup4\n        /* \"homework01.sol\":4366:4370  len1 */\n      dup6\n        /* \"homework01.sol\":4366:4377  len1 + len2 */\n      tag_11\n      swap2\n      swap1\n      tag_12\n      jump\t// in\n    tag_11:\n        /* \"homework01.sol\":4355:4378  new uint[](len1 + len2) */\n      0xffffffffffffffff\n      dup2\n      gt\n      iszero\n      tag_13\n      jumpi\n      tag_14\n      tag_15\n      jump\t// in\n    tag_14:\n    tag_13:\n      mload(0x40)\n      swap1\n      dup1\n      dup3\n      mstore\n      dup1\n      0x20\n      mul\n      0x20\n      add\n      dup3\n      add\n      0x40\n      mstore\n      dup1\n      iszero\n      tag_16\n      jumpi\n      dup2\n      0x20\n      add\n      0x20\n      dup3\n      mul\n      dup1\n      calldatasize\n      dup4\n      calldatacopy\n      dup1\n      dup3\n      add\n      swap2\n      pop\n      pop\n      swap1\n      pop\n    tag_16:\n      pop\n        /* \"homework01.sol\":4349:4378  res = new uint[](len1 + len2) */\n      swap6\n      pop\n        /* \"homework01.sol\":4391:4640  while (i < len1 && j < len2) {... */\n    tag_17:\n        /* \"homework01.sol\":4402:4406  len1 */\n      dup5\n        /* \"homework01.sol\":4398:4399  i */\n      dup4\n        /* \"homework01.sol\":4398:4406  i < len1 */\n      lt\n        /* \"homework01.sol\":4398:4418  i < len1 && j < len2 */\n      dup1\n      iszero\n      tag_19\n      jumpi\n      pop\n        /* \"homework01.sol\":4414:4418  len2 */\n      dup4\n        /* \"homework01.sol\":4410:4411  j */\n      dup3\n        /* \"homework01.sol\":4410:4418  j < len2 */\n      lt\n        /* \"homework01.sol\":4398:4418  i < len1 && j < len2 */\n    tag_19:\n        /* \"homework01.sol\":4391:4640  while (i < len1 && j < len2) {... */\n      iszero\n      tag_18\n      jumpi\n        /* \"homework01.sol\":4450:4454  arr2 */\n      dup8\n      dup8\n        /* \"homework01.sol\":4455:4456  j */\n      dup4\n        /* \"homework01.sol\":4450:4457  arr2[j] */\n      dup2\n      dup2\n      lt\n      tag_20\n      jumpi\n      tag_21\n      tag_22\n      jump\t// in\n    tag_21:\n    tag_20:\n      swap1\n      pop\n      0x20\n      mul\n      add\n      calldataload\n        /* \"homework01.sol\":4439:4443  arr1 */\n      dup11\n      dup11\n        /* \"homework01.sol\":4444:4445  i */\n      dup6\n        /* \"homework01.sol\":4439:4446  arr1[i] */\n      dup2\n      dup2\n      lt\n      tag_23\n      jumpi\n      tag_24\n      tag_22\n      jump\t// in\n    tag_24:\n    tag_23:\n      swap1\n      pop\n      0x20\n      mul\n      add\n      calldataload\n        /* \"homework01.sol\":4439:4457  arr1[i] <= arr2[j] */\n      gt\n        /* \"homework01.sol\":4435:4611  if (arr1[i] <= arr2[j]) {... */\n      tag_25\n      jumpi\n        /* \"homework01.sol\":4487:4491  arr1 */\n      dup10\n      dup10\n        /* \"homework01.sol\":4492:4493  i */\n      dup5\n        /* \"homework01.sol\":4487:4494  arr1[i] */\n      dup2\n      dup2\n      lt\n      tag_26\n      jumpi\n      tag_27\n      tag_22\n      jump\t// in\n    tag_27:\n    tag_26:\n      swap1\n      pop\n      0x20\n      mul\n      add\n      calldataload\n        /* \"homework01.sol\":4478:4481  res */\n      dup7\n        /* \"homework01.sol\":4482:4483  k */\n      dup3\n        /* \"homework01.sol\":4478:4484  res[k] */\n      dup2\n      mload\n      dup2\n      lt\n      tag_28\n      jumpi\n      tag_29\n      tag_22\n      jump\t// in\n    tag_29:\n    tag_28:\n      0x20\n      mul\n      0x20\n      add\n      add\n        /* \"homework01.sol\":4478:4494  res[k] = arr1[i] */\n      dup2\n      dup2\n      mstore\n      pop\n      pop\n        /* \"homework01.sol\":4513:4516  i++ */\n      dup3\n      dup1\n      tag_30\n      swap1\n      tag_31\n      jump\t// in\n    tag_30:\n      swap4\n      pop\n      pop\n        /* \"homework01.sol\":4435:4611  if (arr1[i] <= arr2[j]) {... */\n      jump(tag_32)\n    tag_25:\n        /* \"homework01.sol\":4566:4570  arr2 */\n      dup8\n      dup8\n        /* \"homework01.sol\":4571:4572  j */\n      dup4\n        /* \"homework01.sol\":4566:4573  arr2[j] */\n      dup2\n      dup2\n      lt\n      tag_33\n      jumpi\n      tag_34\n      tag_22\n      jump\t// in\n    tag_34:\n    tag_33:\n      swap1\n      pop\n      0x20\n      mul\n      add\n      calldataload\n        /* \"homework01.sol\":4557:4560  res */\n      dup7\n        /* \"homework01.sol\":4561:4562  k */\n      dup3\n        /* \"homework01.sol\":4557:4563  res[k] */\n      dup2\n      mload\n      dup2\n      lt\n      tag_35\n      jumpi\n      tag_36\n      tag_22\n      jump\t// in\n    tag_36:\n    tag_35:\n      0x20\n      mul\n      0x20\n      add\n      add\n        /* \"homework01.sol\":4557:4573  res[k] = arr2[j] */\n      dup2\n      dup2\n      mstore\n      pop\n      pop\n        /* \"homework01.sol\":4592:4595  j++ */\n      dup2\n      dup1\n      tag_37\n      swap1\n      tag_31\n      jump\t// in\n    tag_37:\n      swap3\n      pop\n      pop\n        /* \"homework01.sol\":4435:4611  if (arr1[i] <= arr2[j]) {... */\n    tag_32:\n        /* \"homework01.sol\":4625:4628  k++ */\n      dup1\n      dup1\n      tag_38\n      swap1\n      tag_31\n      jump\t// in\n    tag_38:\n      swap2\n      pop\n      pop\n        /* \"homework01.sol\":4391:4640  while (i < len1 && j < len2) {... */\n      jump(tag_17)\n    tag_18:\n        /* \"homework01.sol\":4652:4748  while (i < len1) {... */\n    tag_39:\n        /* \"homework01.sol\":4663:4667  len1 */\n      dup5\n        /* \"homework01.sol\":4659:4660  i */\n      dup4\n        /* \"homework01.sol\":4659:4667  i < len1 */\n      lt\n        /* \"homework01.sol\":4652:4748  while (i < len1) {... */\n      iszero\n      tag_40\n      jumpi\n        /* \"homework01.sol\":4693:4697  arr1 */\n      dup10\n      dup10\n        /* \"homework01.sol\":4698:4699  i */\n      dup5\n        /* \"homework01.sol\":4693:4700  arr1[i] */\n      dup2\n      dup2\n      lt\n      tag_41\n      jumpi\n      tag_42\n      tag_22\n      jump\t// in\n    tag_42:\n    tag_41:\n      swap1\n      pop\n      0x20\n      mul\n      add\n      calldataload\n        /* \"homework01.sol\":4684:4687  res */\n      dup7\n        /* \"homework01.sol\":4688:4689  k */\n      dup3\n        /* \"homework01.sol\":4684:4690  res[k] */\n      dup2\n      mload\n      dup2\n      lt\n      tag_43\n      jumpi\n      tag_44\n      tag_22\n      jump\t// in\n    tag_44:\n    tag_43:\n      0x20\n      mul\n      0x20\n      add\n      add\n        /* \"homework01.sol\":4684:4700  res[k] = arr1[i] */\n      dup2\n      dup2\n      mstore\n      pop\n      pop\n        /* \"homework01.sol\":4715:4718  i++ */\n      dup3\n      dup1\n      tag_45\n      swap1\n      tag_31\n      jump\t// in\n    tag_45:\n      swap4\n      pop\n      pop\n        /* \"homework01.sol\":4733:4736  k++ */\n      dup1\n      dup1\n      tag_46\n      swap1\n      tag_31\n      jump\t// in\n    tag_46:\n      swap2\n      pop\n      pop\n        /* \"homework01.sol\":4652:4748  while (i < len1) {... */\n      jump(tag_39)\n    tag_40:\n        /* \"homework01.sol\":4760:4856  while (j < len2) {... */\n    tag_47:\n        /* \"homework01.sol\":4771:4775  len2 */\n      dup4\n        /* \"homework01.sol\":4767:4768  j */\n      dup3\n        /* \"homework01.sol\":4767:4775  j < len2 */\n      lt\n        /* \"homework01.sol\":4760:4856  while (j < len2) {... */\n      iszero\n      tag_48\n      jumpi\n        /* \"homework01.sol\":4801:4805  arr2 */\n      dup8\n      dup8\n        /* \"homework01.sol\":4806:4807  j */\n      dup4\n        /* \"homework01.sol\":4801:4808  arr2[j] */\n      dup2\n      dup2\n      lt\n      tag_49\n      jumpi\n      tag_50\n      tag_22\n      jump\t// in\n    tag_50:\n    tag_49:\n      swap1\n      pop\n      0x20\n      mul\n      add\n      calldataload\n        /* \"homework01.sol\":4792:4795  res */\n      dup7\n        /* \"homework01.sol\":4796:4797  k */\n      dup3\n        /* \"homework01.sol\":4792:4798  res[k] */\n      dup2\n      mload\n      dup2\n      lt\n      tag_51\n      jumpi\n      tag_52\n      tag_22\n      jump\t// in\n    tag_52:\n    tag_51:\n      0x20\n      mul\n      0x20\n      add\n      add\n        /* \"homework01.sol\":4792:4808  res[k] = arr2[j] */\n      dup2\n      dup2\n      mstore\n      pop\n      pop\n        /* \"homework01.sol\":4823:4826  j++ */\n      dup2\n      dup1\n      tag_53\n      swap1\n      tag_31\n      jump\t// in\n    tag_53:\n      swap3\n      pop\n      pop\n        /* \"homework01.sol\":4841:4844  k++ */\n      dup1\n      dup1\n      tag_54\n      swap1\n      tag_31\n      jump\t// in\n    tag_54:\n      swap2\n      pop\n      pop\n        /* \"homework01.sol\":4760:4856  while (j < len2) {... */\n      jump(tag_47)\n    tag_48:\n        /* \"homework01.sol\":4205:4863  {... */\n      pop\n      pop\n      pop\n      pop\n      pop\n        /* \"homework01.sol\":4106:4863  function merge(uint[] calldata arr1, uint[] calldata arr2) public pure returns (uint[] memory res) {... */\n      swap5\n      swap4\n      pop\n      pop\n      pop\n      pop\n      jump\t// out\n        /* \"#utility.yul\":88:205   */\n    tag_56:\n        /* \"#utility.yul\":197:198   */\n      0x00\n        /* \"#utility.yul\":194:195   */\n      0x00\n        /* \"#utility.yul\":187:199   */\n      revert\n        /* \"#utility.yul\":211:328   */\n    tag_57:\n        /* \"#utility.yul\":320:321   */\n      0x00\n        /* \"#utility.yul\":317:318   */\n      0x00\n        /* \"#utility.yul\":310:322   */\n      revert\n        /* \"#utility.yul\":334:451   */\n    tag_58:\n        /* \"#utility.yul\":443:444   */\n      0x00\n        /* \"#utility.yul\":440:441   */\n      0x00\n        /* \"#utility.yul\":433:445   */\n      revert\n        /* \"#utility.yul\":457:574   */\n    tag_59:\n        /* \"#utility.yul\":566:567   */\n      0x00\n        /* \"#utility.yul\":563:564   */\n      0x00\n        /* \"#utility.yul\":556:568   */\n      revert\n        /* \"#utility.yul\":580:697   */\n    tag_60:\n        /* \"#utility.yul\":689:690   */\n      0x00\n        /* \"#utility.yul\":686:687   */\n      0x00\n        /* \"#utility.yul\":679:691   */\n      revert\n        /* \"#utility.yul\":720:1288   */\n    tag_61:\n        /* \"#utility.yul\":793:801   */\n      0x00\n        /* \"#utility.yul\":803:809   */\n      0x00\n        /* \"#utility.yul\":853:856   */\n      dup4\n        /* \"#utility.yul\":846:850   */\n      0x1f\n        /* \"#utility.yul\":838:844   */\n      dup5\n        /* \"#utility.yul\":834:851   */\n      add\n        /* \"#utility.yul\":830:857   */\n      slt\n        /* \"#utility.yul\":820:942   */\n      tag_79\n      jumpi\n        /* \"#utility.yul\":861:940   */\n      tag_80\n      tag_58\n      jump\t// in\n    tag_80:\n        /* \"#utility.yul\":820:942   */\n    tag_79:\n        /* \"#utility.yul\":974:980   */\n      dup3\n        /* \"#utility.yul\":961:981   */\n      calldataload\n        /* \"#utility.yul\":951:981   */\n      swap1\n      pop\n        /* \"#utility.yul\":1004:1022   */\n      0xffffffffffffffff\n        /* \"#utility.yul\":996:1002   */\n      dup2\n        /* \"#utility.yul\":993:1023   */\n      gt\n        /* \"#utility.yul\":990:1107   */\n      iszero\n      tag_81\n      jumpi\n        /* \"#utility.yul\":1026:1105   */\n      tag_82\n      tag_59\n      jump\t// in\n    tag_82:\n        /* \"#utility.yul\":990:1107   */\n    tag_81:\n        /* \"#utility.yul\":1140:1144   */\n      0x20\n        /* \"#utility.yul\":1132:1138   */\n      dup4\n        /* \"#utility.yul\":1128:1145   */\n      add\n        /* \"#utility.yul\":1116:1145   */\n      swap2\n      pop\n        /* \"#utility.yul\":1194:1197   */\n      dup4\n        /* \"#utility.yul\":1186:1190   */\n      0x20\n        /* \"#utility.yul\":1178:1184   */\n      dup3\n        /* \"#utility.yul\":1174:1191   */\n      mul\n        /* \"#utility.yul\":1164:1172   */\n      dup4\n        /* \"#utility.yul\":1160:1192   */\n      add\n        /* \"#utility.yul\":1157:1198   */\n      gt\n        /* \"#utility.yul\":1154:1282   */\n      iszero\n      tag_83\n      jumpi\n        /* \"#utility.yul\":1201:1280   */\n      tag_84\n      tag_60\n      jump\t// in\n    tag_84:\n        /* \"#utility.yul\":1154:1282   */\n    tag_83:\n        /* \"#utility.yul\":720:1288   */\n      swap3\n      pop\n      swap3\n      swap1\n      pop\n      jump\t// out\n        /* \"#utility.yul\":1294:2228   */\n    tag_6:\n        /* \"#utility.yul\":1416:1422   */\n      0x00\n        /* \"#utility.yul\":1424:1430   */\n      0x00\n        /* \"#utility.yul\":1432:1438   */\n      0x00\n        /* \"#utility.yul\":1440:1446   */\n      0x00\n        /* \"#utility.yul\":1489:1491   */\n      0x40\n        /* \"#utility.yul\":1477:1486   */\n      dup6\n        /* \"#utility.yul\":1468:1475   */\n      dup8\n        /* \"#utility.yul\":1464:1487   */\n      sub\n        /* \"#utility.yul\":1460:1492   */\n      slt\n        /* \"#utility.yul\":1457:1576   */\n      iszero\n      tag_86\n      jumpi\n        /* \"#utility.yul\":1495:1574   */\n      tag_87\n      tag_56\n      jump\t// in\n    tag_87:\n        /* \"#utility.yul\":1457:1576   */\n    tag_86:\n        /* \"#utility.yul\":1643:1644   */\n      0x00\n        /* \"#utility.yul\":1632:1641   */\n      dup6\n        /* \"#utility.yul\":1628:1645   */\n      add\n        /* \"#utility.yul\":1615:1646   */\n      calldataload\n        /* \"#utility.yul\":1673:1691   */\n      0xffffffffffffffff\n        /* \"#utility.yul\":1665:1671   */\n      dup2\n        /* \"#utility.yul\":1662:1692   */\n      gt\n        /* \"#utility.yul\":1659:1776   */\n      iszero\n      tag_88\n      jumpi\n        /* \"#utility.yul\":1695:1774   */\n      tag_89\n      tag_57\n      jump\t// in\n    tag_89:\n        /* \"#utility.yul\":1659:1776   */\n    tag_88:\n        /* \"#utility.yul\":1808:1888   */\n      tag_90\n        /* \"#utility.yul\":1880:1887   */\n      dup8\n        /* \"#utility.yul\":1871:1877   */\n      dup3\n        /* \"#utility.yul\":1860:1869   */\n      dup9\n        /* \"#utility.yul\":1856:1878   */\n      add\n        /* \"#utility.yul\":1808:1888   */\n      tag_61\n      jump\t// in\n    tag_90:\n        /* \"#utility.yul\":1790:1888   */\n      swap5\n      pop\n      swap5\n      pop\n        /* \"#utility.yul\":1586:1898   */\n      pop\n        /* \"#utility.yul\":1965:1967   */\n      0x20\n        /* \"#utility.yul\":1954:1963   */\n      dup6\n        /* \"#utility.yul\":1950:1968   */\n      add\n        /* \"#utility.yul\":1937:1969   */\n      calldataload\n        /* \"#utility.yul\":1996:2014   */\n      0xffffffffffffffff\n        /* \"#utility.yul\":1988:1994   */\n      dup2\n        /* \"#utility.yul\":1985:2015   */\n      gt\n        /* \"#utility.yul\":1982:2099   */\n      iszero\n      tag_91\n      jumpi\n        /* \"#utility.yul\":2018:2097   */\n      tag_92\n      tag_57\n      jump\t// in\n    tag_92:\n        /* \"#utility.yul\":1982:2099   */\n    tag_91:\n        /* \"#utility.yul\":2131:2211   */\n      tag_93\n        /* \"#utility.yul\":2203:2210   */\n      dup8\n        /* \"#utility.yul\":2194:2200   */\n      dup3\n        /* \"#utility.yul\":2183:2192   */\n      dup9\n        /* \"#utility.yul\":2179:2201   */\n      add\n        /* \"#utility.yul\":2131:2211   */\n      tag_61\n      jump\t// in\n    tag_93:\n        /* \"#utility.yul\":2113:2211   */\n      swap3\n      pop\n      swap3\n      pop\n        /* \"#utility.yul\":1908:2221   */\n      pop\n        /* \"#utility.yul\":1294:2228   */\n      swap3\n      swap6\n      swap2\n      swap5\n      pop\n      swap3\n      pop\n      jump\t// out\n        /* \"#utility.yul\":2234:2348   */\n    tag_62:\n        /* \"#utility.yul\":2301:2307   */\n      0x00\n        /* \"#utility.yul\":2335:2340   */\n      dup2\n        /* \"#utility.yul\":2329:2341   */\n      mload\n        /* \"#utility.yul\":2319:2341   */\n      swap1\n      pop\n        /* \"#utility.yul\":2234:2348   */\n      swap2\n      swap1\n      pop\n      jump\t// out\n        /* \"#utility.yul\":2354:2538   */\n    tag_63:\n        /* \"#utility.yul\":2453:2464   */\n      0x00\n        /* \"#utility.yul\":2487:2493   */\n      dup3\n        /* \"#utility.yul\":2482:2485   */\n      dup3\n        /* \"#utility.yul\":2475:2494   */\n      mstore\n        /* \"#utility.yul\":2527:2531   */\n      0x20\n        /* \"#utility.yul\":2522:2525   */\n      dup3\n        /* \"#utility.yul\":2518:2532   */\n      add\n        /* \"#utility.yul\":2503:2532   */\n      swap1\n      pop\n        /* \"#utility.yul\":2354:2538   */\n      swap3\n      swap2\n      pop\n      pop\n      jump\t// out\n        /* \"#utility.yul\":2544:2676   */\n    tag_64:\n        /* \"#utility.yul\":2611:2615   */\n      0x00\n        /* \"#utility.yul\":2634:2637   */\n      dup2\n        /* \"#utility.yul\":2626:2637   */\n      swap1\n      pop\n        /* \"#utility.yul\":2664:2668   */\n      0x20\n        /* \"#utility.yul\":2659:2662   */\n      dup3\n        /* \"#utility.yul\":2655:2669   */\n      add\n        /* \"#utility.yul\":2647:2669   */\n      swap1\n      pop\n        /* \"#utility.yul\":2544:2676   */\n      swap2\n      swap1\n      pop\n      jump\t// out\n        /* \"#utility.yul\":2682:2759   */\n    tag_65:\n        /* \"#utility.yul\":2719:2726   */\n      0x00\n        /* \"#utility.yul\":2748:2753   */\n      dup2\n        /* \"#utility.yul\":2737:2753   */\n      swap1\n      pop\n        /* \"#utility.yul\":2682:2759   */\n      swap2\n      swap1\n      pop\n      jump\t// out\n        /* \"#utility.yul\":2765:2873   */\n    tag_66:\n        /* \"#utility.yul\":2842:2866   */\n      tag_99\n        /* \"#utility.yul\":2860:2865   */\n      dup2\n        /* \"#utility.yul\":2842:2866   */\n      tag_65\n      jump\t// in\n    tag_99:\n        /* \"#utility.yul\":2837:2840   */\n      dup3\n        /* \"#utility.yul\":2830:2867   */\n      mstore\n        /* \"#utility.yul\":2765:2873   */\n      pop\n      pop\n      jump\t// out\n        /* \"#utility.yul\":2879:3058   */\n    tag_67:\n        /* \"#utility.yul\":2948:2958   */\n      0x00\n        /* \"#utility.yul\":2969:3015   */\n      tag_101\n        /* \"#utility.yul\":3011:3014   */\n      dup4\n        /* \"#utility.yul\":3003:3009   */\n      dup4\n        /* \"#utility.yul\":2969:3015   */\n      tag_66\n      jump\t// in\n    tag_101:\n        /* \"#utility.yul\":3047:3051   */\n      0x20\n        /* \"#utility.yul\":3042:3045   */\n      dup4\n        /* \"#utility.yul\":3038:3052   */\n      add\n        /* \"#utility.yul\":3024:3052   */\n      swap1\n      pop\n        /* \"#utility.yul\":2879:3058   */\n      swap3\n      swap2\n      pop\n      pop\n      jump\t// out\n        /* \"#utility.yul\":3064:3177   */\n    tag_68:\n        /* \"#utility.yul\":3134:3138   */\n      0x00\n        /* \"#utility.yul\":3166:3170   */\n      0x20\n        /* \"#utility.yul\":3161:3164   */\n      dup3\n        /* \"#utility.yul\":3157:3171   */\n      add\n        /* \"#utility.yul\":3149:3171   */\n      swap1\n      pop\n        /* \"#utility.yul\":3064:3177   */\n      swap2\n      swap1\n      pop\n      jump\t// out\n        /* \"#utility.yul\":3213:3945   */\n    tag_69:\n        /* \"#utility.yul\":3332:3335   */\n      0x00\n        /* \"#utility.yul\":3361:3415   */\n      tag_104\n        /* \"#utility.yul\":3409:3414   */\n      dup3\n        /* \"#utility.yul\":3361:3415   */\n      tag_62\n      jump\t// in\n    tag_104:\n        /* \"#utility.yul\":3431:3517   */\n      tag_105\n        /* \"#utility.yul\":3510:3516   */\n      dup2\n        /* \"#utility.yul\":3505:3508   */\n      dup6\n        /* \"#utility.yul\":3431:3517   */\n      tag_63\n      jump\t// in\n    tag_105:\n        /* \"#utility.yul\":3424:3517   */\n      swap4\n      pop\n        /* \"#utility.yul\":3541:3597   */\n      tag_106\n        /* \"#utility.yul\":3591:3596   */\n      dup4\n        /* \"#utility.yul\":3541:3597   */\n      tag_64\n      jump\t// in\n    tag_106:\n        /* \"#utility.yul\":3620:3627   */\n      dup1\n        /* \"#utility.yul\":3651:3652   */\n      0x00\n        /* \"#utility.yul\":3636:3920   */\n    tag_107:\n        /* \"#utility.yul\":3661:3667   */\n      dup4\n        /* \"#utility.yul\":3658:3659   */\n      dup2\n        /* \"#utility.yul\":3655:3668   */\n      lt\n        /* \"#utility.yul\":3636:3920   */\n      iszero\n      tag_109\n      jumpi\n        /* \"#utility.yul\":3737:3743   */\n      dup2\n        /* \"#utility.yul\":3731:3744   */\n      mload\n        /* \"#utility.yul\":3764:3827   */\n      tag_110\n        /* \"#utility.yul\":3823:3826   */\n      dup9\n        /* \"#utility.yul\":3808:3821   */\n      dup3\n        /* \"#utility.yul\":3764:3827   */\n      tag_67\n      jump\t// in\n    tag_110:\n        /* \"#utility.yul\":3757:3827   */\n      swap8\n      pop\n        /* \"#utility.yul\":3850:3910   */\n      tag_111\n        /* \"#utility.yul\":3903:3909   */\n      dup4\n        /* \"#utility.yul\":3850:3910   */\n      tag_68\n      jump\t// in\n    tag_111:\n        /* \"#utility.yul\":3840:3910   */\n      swap3\n      pop\n        /* \"#utility.yul\":3696:3920   */\n      pop\n        /* \"#utility.yul\":3683:3684   */\n      0x01\n        /* \"#utility.yul\":3680:3681   */\n      dup2\n        /* \"#utility.yul\":3676:3685   */\n      add\n        /* \"#utility.yul\":3671:3685   */\n      swap1\n      pop\n        /* \"#utility.yul\":3636:3920   */\n      jump(tag_107)\n    tag_109:\n        /* \"#utility.yul\":3640:3654   */\n      pop\n        /* \"#utility.yul\":3936:3939   */\n      dup6\n        /* \"#utility.yul\":3929:3939   */\n      swap4\n      pop\n        /* \"#utility.yul\":3337:3945   */\n      pop\n      pop\n      pop\n        /* \"#utility.yul\":3213:3945   */\n      swap3\n      swap2\n      pop\n      pop\n      jump\t// out\n        /* \"#utility.yul\":3951:4324   */\n    tag_9:\n        /* \"#utility.yul\":4094:4098   */\n      0x00\n        /* \"#utility.yul\":4132:4134   */\n      0x20\n        /* \"#utility.yul\":4121:4130   */\n      dup3\n        /* \"#utility.yul\":4117:4135   */\n      add\n        /* \"#utility.yul\":4109:4135   */\n      swap1\n      pop\n        /* \"#utility.yul\":4181:4190   */\n      dup2\n        /* \"#utility.yul\":4175:4179   */\n      dup2\n        /* \"#utility.yul\":4171:4191   */\n      sub\n        /* \"#utility.yul\":4167:4168   */\n      0x00\n        /* \"#utility.yul\":4156:4165   */\n      dup4\n        /* \"#utility.yul\":4152:4169   */\n      add\n        /* \"#utility.yul\":4145:4192   */\n      mstore\n        /* \"#utility.yul\":4209:4317   */\n      tag_113\n        /* \"#utility.yul\":4312:4316   */\n      dup2\n        /* \"#utility.yul\":4303:4309   */\n      dup5\n        /* \"#utility.yul\":4209:4317   */\n      tag_69\n      jump\t// in\n    tag_113:\n        /* \"#utility.yul\":4201:4317   */\n      swap1\n      pop\n        /* \"#utility.yul\":3951:4324   */\n      swap3\n      swap2\n      pop\n      pop\n      jump\t// out\n        /* \"#utility.yul\":4330:4510   */\n    tag_70:\n        /* \"#utility.yul\":4378:4455   */\n      0x4e487b7100000000000000000000000000000000000000000000000000000000\n        /* \"#utility.yul\":4375:4376   */\n      0x00\n        /* \"#utility.yul\":4368:4456   */\n      mstore\n        /* \"#utility.yul\":4475:4479   */\n      0x11\n        /* \"#utility.yul\":4472:4473   */\n      0x04\n        /* \"#utility.yul\":4465:4480   */\n      mstore\n        /* \"#utility.yul\":4499:4503   */\n      0x24\n        /* \"#utility.yul\":4496:4497   */\n      0x00\n        /* \"#utility.yul\":4489:4504   */\n      revert\n        /* \"#utility.yul\":4516:4707   */\n    tag_12:\n        /* \"#utility.yul\":4556:4559   */\n      0x00\n        /* \"#utility.yul\":4575:4595   */\n      tag_116\n        /* \"#utility.yul\":4593:4594   */\n      dup3\n        /* \"#utility.yul\":4575:4595   */\n      tag_65\n      jump\t// in\n    tag_116:\n        /* \"#utility.yul\":4570:4595   */\n      swap2\n      pop\n        /* \"#utility.yul\":4609:4629   */\n      tag_117\n        /* \"#utility.yul\":4627:4628   */\n      dup4\n        /* \"#utility.yul\":4609:4629   */\n      tag_65\n      jump\t// in\n    tag_117:\n        /* \"#utility.yul\":4604:4629   */\n      swap3\n      pop\n        /* \"#utility.yul\":4652:4653   */\n      dup3\n        /* \"#utility.yul\":4649:4650   */\n      dup3\n        /* \"#utility.yul\":4645:4654   */\n      add\n        /* \"#utility.yul\":4638:4654   */\n      swap1\n      pop\n        /* \"#utility.yul\":4673:4676   */\n      dup1\n        /* \"#utility.yul\":4670:4671   */\n      dup3\n        /* \"#utility.yul\":4667:4677   */\n      gt\n        /* \"#utility.yul\":4664:4700   */\n      iszero\n      tag_118\n      jumpi\n        /* \"#utility.yul\":4680:4698   */\n      tag_119\n      tag_70\n      jump\t// in\n    tag_119:\n        /* \"#utility.yul\":4664:4700   */\n    tag_118:\n        /* \"#utility.yul\":4516:4707   */\n      swap3\n      swap2\n      pop\n      pop\n      jump\t// out\n        /* \"#utility.yul\":4713:4893   */\n    tag_15:\n        /* \"#utility.yul\":4761:4838   */\n      0x4e487b7100000000000000000000000000000000000000000000000000000000\n        /* \"#utility.yul\":4758:4759   */\n      0x00\n        /* \"#utility.yul\":4751:4839   */\n      mstore\n        /* \"#utility.yul\":4858:4862   */\n      0x41\n        /* \"#utility.yul\":4855:4856   */\n      0x04\n        /* \"#utility.yul\":4848:4863   */\n      mstore\n        /* \"#utility.yul\":4882:4886   */\n      0x24\n        /* \"#utility.yul\":4879:4880   */\n      0x00\n        /* \"#utility.yul\":4872:4887   */\n      revert\n        /* \"#utility.yul\":4899:5079   */\n    tag_22:\n        /* \"#utility.yul\":4947:5024   */\n      0x4e487b7100000000000000000000000000000000000000000000000000000000\n        /* \"#utility.yul\":4944:4945   */\n      0x00\n        /* \"#utility.yul\":4937:5025   */\n      mstore\n        /* \"#utility.yul\":5044:5048   */\n      0x32\n        /* \"#utility.yul\":5041:5042   */\n      0x04\n        /* \"#utility.yul\":5034:5049   */\n      mstore\n        /* \"#utility.yul\":5068:5072   */\n      0x24\n        /* \"#utility.yul\":5065:5066   */\n      0x00\n        /* \"#utility.yul\":5058:5073   */\n      revert\n        /* \"#utility.yul\":5085:5318   */\n    tag_31:\n        /* \"#utility.yul\":5124:5127   */\n      0x00\n        /* \"#utility.yul\":5147:5171   */\n      tag_123\n        /* \"#utility.yul\":5165:5170   */\n      dup3\n        /* \"#utility.yul\":5147:5171   */\n      tag_65\n      jump\t// in\n    tag_123:\n        /* \"#utility.yul\":5138:5171   */\n      swap2\n      pop\n        /* \"#utility.yul\":5193:5259   */\n      0xffffffffffffffffffffffffffffffffffffffffffffffffffffffffffffffff\n        /* \"#utility.yul\":5186:5191   */\n      dup3\n        /* \"#utility.yul\":5183:5260   */\n      sub\n        /* \"#utility.yul\":5180:5283   */\n      tag_124\n      jumpi\n        /* \"#utility.yul\":5263:5281   */\n      tag_125\n      tag_70\n      jump\t// in\n    tag_125:\n        /* \"#utility.yul\":5180:5283   */\n    tag_124:\n        /* \"#utility.yul\":5310:5311   */\n      0x01\n        /* \"#utility.yul\":5303:5308   */\n      dup3\n        /* \"#utility.yul\":5299:5312   */\n      add\n        /* \"#utility.yul\":5292:5312   */\n      swap1\n      pop\n        /* \"#utility.yul\":5085:5318   */\n      swap2\n      swap1\n      pop\n      jump\t// out\n\n    auxdata: 0xa2646970667358221220605846ab2dbb3ae7fe6125a6db6d96bf0038e8dd80df5ab72e83900dced172a364736f6c63430008220033\n}\n",
				"bytecode": {
					"linkReferences": {},
					"object": "6080604052348015600e575f5ffd5b506105948061001c5f395ff3fe608060405234801561000f575f5ffd5b5060043610610029575f3560e01c8063088b9bf61461002d575b5f5ffd5b610047600480360381019061004291906102ff565b61005d565b604051610054919061043d565b60405180910390f35b60605f8585905090505f8484905090505f5f90505f5f90505f5f90508385610085919061048a565b67ffffffffffffffff81111561009e5761009d6104bd565b5b6040519080825280602002602001820160405280156100cc5781602001602082028036833780820191505090505b5095505b84831080156100de57508382105b156101c3578787838181106100f6576100f56104ea565b5b905060200201358a8a858181106101105761010f6104ea565b5b90506020020135116101685789898481811061012f5761012e6104ea565b5b90506020020135868281518110610149576101486104ea565b5b602002602001018181525050828061016090610517565b9350506101b0565b87878381811061017b5761017a6104ea565b5b90506020020135868281518110610195576101946104ea565b5b60200260200101818152505081806101ac90610517565b9250505b80806101bb90610517565b9150506100d0565b5b84831015610226578989848181106101df576101de6104ea565b5b905060200201358682815181106101f9576101f86104ea565b5b602002602001018181525050828061021090610517565b935050808061021e90610517565b9150506101c4565b5b8382101561028957878783818110610242576102416104ea565b5b9050602002013586828151811061025c5761025b6104ea565b5b602002602001018181525050818061027390610517565b925050808061028190610517565b915050610227565b5050505050949350505050565b5f5ffd5b5f5ffd5b5f5ffd5b5f5ffd5b5f5ffd5b5f5f83601f8401126102bf576102be61029e565b5b8235905067ffffffffffffffff8111156102dc576102db6102a2565b5b6020830191508360208202830111156102f8576102f76102a6565b5b9250929050565b5f5f5f5f6040858703121561031757610316610296565b5b5f85013567ffffffffffffffff8111156103345761033361029a565b5b610340878288016102aa565b9450945050602085013567ffffffffffffffff8111156103635761036261029a565b5b61036f878288016102aa565b925092505092959194509250565b5f81519050919050565b5f82825260208201905092915050565b5f819050602082019050919050565b5f819050919050565b6103b8816103a6565b82525050565b5f6103c983836103af565b60208301905092915050565b5f602082019050919050565b5f6103eb8261037d565b6103f58185610387565b935061040083610397565b805f5b8381101561043057815161041788826103be565b9750610422836103d5565b925050600181019050610403565b5085935050505092915050565b5f6020820190508181035f83015261045581846103e1565b905092915050565b7f4e487b71000000000000000000000000000000000000000000000000000000005f52601160045260245ffd5b5f610494826103a6565b915061049f836103a6565b92508282019050808211156104b7576104b661045d565b5b92915050565b7f4e487b71000000000000000000000000000000000000000000000000000000005f52604160045260245ffd5b7f4e487b71000000000000000000000000000000000000000000000000000000005f52603260045260245ffd5b5f610521826103a6565b91507fffffffffffffffffffffffffffffffffffffffffffffffffffffffffffffffff82036105535761055261045d565b5b60018201905091905056fea2646970667358221220605846ab2dbb3ae7fe6125a6db6d96bf0038e8dd80df5ab72e83900dced172a364736f6c63430008220033",
					"opcodes": "PUSH1 0x80 PUSH1 0x40 MSTORE CALLVALUE DUP1 ISZERO PUSH1 0xE JUMPI PUSH0 PUSH0 REVERT JUMPDEST POP PUSH2 0x594 DUP1 PUSH2 0x1C PUSH0 CODECOPY PUSH0 RETURN INVALID PUSH1 0x80 PUSH1 0x40 MSTORE CALLVALUE DUP1 ISZERO PUSH2 0xF JUMPI PUSH0 PUSH0 REVERT JUMPDEST POP PUSH1 0x4 CALLDATASIZE LT PUSH2 0x29 JUMPI PUSH0 CALLDATALOAD PUSH1 0xE0 SHR DUP1 PUSH4 0x88B9BF6 EQ PUSH2 0x2D JUMPI JUMPDEST PUSH0 PUSH0 REVERT JUMPDEST PUSH2 0x47 PUSH1 0x4 DUP1 CALLDATASIZE SUB DUP2 ADD SWAP1 PUSH2 0x42 SWAP2 SWAP1 PUSH2 0x2FF JUMP JUMPDEST PUSH2 0x5D JUMP JUMPDEST PUSH1 0x40 MLOAD PUSH2 0x54 SWAP2 SWAP1 PUSH2 0x43D JUMP JUMPDEST PUSH1 0x40 MLOAD DUP1 SWAP2 SUB SWAP1 RETURN JUMPDEST PUSH1 0x60 PUSH0 DUP6 DUP6 SWAP1 POP SWAP1 POP PUSH0 DUP5 DUP5 SWAP1 POP SWAP1 POP PUSH0 PUSH0 SWAP1 POP PUSH0 PUSH0 SWAP1 POP PUSH0 PUSH0 SWAP1 POP DUP4 DUP6 PUSH2 0x85 SWAP2 SWAP1 PUSH2 0x48A JUMP JUMPDEST PUSH8 0xFFFFFFFFFFFFFFFF DUP2 GT ISZERO PUSH2 0x9E JUMPI PUSH2 0x9D PUSH2 0x4BD JUMP JUMPDEST JUMPDEST PUSH1 0x40 MLOAD SWAP1 DUP1 DUP3 MSTORE DUP1 PUSH1 0x20 MUL PUSH1 0x20 ADD DUP3 ADD PUSH1 0x40 MSTORE DUP1 ISZERO PUSH2 0xCC JUMPI DUP2 PUSH1 0x20 ADD PUSH1 0x20 DUP3 MUL DUP1 CALLDATASIZE DUP4 CALLDATACOPY DUP1 DUP3 ADD SWAP2 POP POP SWAP1 POP JUMPDEST POP SWAP6 POP JUMPDEST DUP5 DUP4 LT DUP1 ISZERO PUSH2 0xDE JUMPI POP DUP4 DUP3 LT JUMPDEST ISZERO PUSH2 0x1C3 JUMPI DUP8 DUP8 DUP4 DUP2 DUP2 LT PUSH2 0xF6 JUMPI PUSH2 0xF5 PUSH2 0x4EA JUMP JUMPDEST JUMPDEST SWAP1 POP PUSH1 0x20 MUL ADD CALLDATALOAD DUP11 DUP11 DUP6 DUP2 DUP2 LT PUSH2 0x110 JUMPI PUSH2 0x10F PUSH2 0x4EA JUMP JUMPDEST JUMPDEST SWAP1 POP PUSH1 0x20 MUL ADD CALLDATALOAD GT PUSH2 0x168 JUMPI DUP10 DUP10 DUP5 DUP2 DUP2 LT PUSH2 0x12F JUMPI PUSH2 0x12E PUSH2 0x4EA JUMP JUMPDEST JUMPDEST SWAP1 POP PUSH1 0x20 MUL ADD CALLDATALOAD DUP7 DUP3 DUP2 MLOAD DUP2 LT PUSH2 0x149 JUMPI PUSH2 0x148 PUSH2 0x4EA JUMP JUMPDEST JUMPDEST PUSH1 0x20 MUL PUSH1 0x20 ADD ADD DUP2 DUP2 MSTORE POP POP DUP3 DUP1 PUSH2 0x160 SWAP1 PUSH2 0x517 JUMP JUMPDEST SWAP4 POP POP PUSH2 0x1B0 JUMP JUMPDEST DUP8 DUP8 DUP4 DUP2 DUP2 LT PUSH2 0x17B JUMPI PUSH2 0x17A PUSH2 0x4EA JUMP JUMPDEST JUMPDEST SWAP1 POP PUSH1 0x20 MUL ADD CALLDATALOAD DUP7 DUP3 DUP2 MLOAD DUP2 LT PUSH2 0x195 JUMPI PUSH2 0x194 PUSH2 0x4EA JUMP JUMPDEST JUMPDEST PUSH1 0x20 MUL PUSH1 0x20 ADD ADD DUP2 DUP2 MSTORE POP POP DUP2 DUP1 PUSH2 0x1AC SWAP1 PUSH2 0x517 JUMP JUMPDEST SWAP3 POP POP JUMPDEST DUP1 DUP1 PUSH2 0x1BB SWAP1 PUSH2 0x517 JUMP JUMPDEST SWAP2 POP POP PUSH2 0xD0 JUMP JUMPDEST JUMPDEST DUP5 DUP4 LT ISZERO PUSH2 0x226 JUMPI DUP10 DUP10 DUP5 DUP2 DUP2 LT PUSH2 0x1DF JUMPI PUSH2 0x1DE PUSH2 0x4EA JUMP JUMPDEST JUMPDEST SWAP1 POP PUSH1 0x20 MUL ADD CALLDATALOAD DUP7 DUP3 DUP2 MLOAD DUP2 LT PUSH2 0x1F9 JUMPI PUSH2 0x1F8 PUSH2 0x4EA JUMP JUMPDEST JUMPDEST PUSH1 0x20 MUL PUSH1 0x20 ADD ADD DUP2 DUP2 MSTORE POP POP DUP3 DUP1 PUSH2 0x210 SWAP1 PUSH2 0x517 JUMP JUMPDEST SWAP4 POP POP DUP1 DUP1 PUSH2 0x21E SWAP1 PUSH2 0x517 JUMP JUMPDEST SWAP2 POP POP PUSH2 0x1C4 JUMP JUMPDEST JUMPDEST DUP4 DUP3 LT ISZERO PUSH2 0x289 JUMPI DUP8 DUP8 DUP4 DUP2 DUP2 LT PUSH2 0x242 JUMPI PUSH2 0x241 PUSH2 0x4EA JUMP JUMPDEST JUMPDEST SWAP1 POP PUSH1 0x20 MUL ADD CALLDATALOAD DUP7 DUP3 DUP2 MLOAD DUP2 LT PUSH2 0x25C JUMPI PUSH2 0x25B PUSH2 0x4EA JUMP JUMPDEST JUMPDEST PUSH1 0x20 MUL PUSH1 0x20 ADD ADD DUP2 DUP2 MSTORE POP POP DUP2 DUP1 PUSH2 0x273 SWAP1 PUSH2 0x517 JUMP JUMPDEST SWAP3 POP POP DUP1 DUP1 PUSH2 0x281 SWAP1 PUSH2 0x517 JUMP JUMPDEST SWAP2 POP POP PUSH2 0x227 JUMP JUMPDEST POP POP POP POP POP SWAP5 SWAP4 POP POP POP POP JUMP JUMPDEST PUSH0 PUSH0 REVERT JUMPDEST PUSH0 PUSH0 REVERT JUMPDEST PUSH0 PUSH0 REVERT JUMPDEST PUSH0 PUSH0 REVERT JUMPDEST PUSH0 PUSH0 REVERT JUMPDEST PUSH0 PUSH0 DUP4 PUSH1 0x1F DUP5 ADD SLT PUSH2 0x2BF JUMPI PUSH2 0x2BE PUSH2 0x29E JUMP JUMPDEST JUMPDEST DUP3 CALLDATALOAD SWAP1 POP PUSH8 0xFFFFFFFFFFFFFFFF DUP2 GT ISZERO PUSH2 0x2DC JUMPI PUSH2 0x2DB PUSH2 0x2A2 JUMP JUMPDEST JUMPDEST PUSH1 0x20 DUP4 ADD SWAP2 POP DUP4 PUSH1 0x20 DUP3 MUL DUP4 ADD GT ISZERO PUSH2 0x2F8 JUMPI PUSH2 0x2F7 PUSH2 0x2A6 JUMP JUMPDEST JUMPDEST SWAP3 POP SWAP3 SWAP1 POP JUMP JUMPDEST PUSH0 PUSH0 PUSH0 PUSH0 PUSH1 0x40 DUP6 DUP8 SUB SLT ISZERO PUSH2 0x317 JUMPI PUSH2 0x316 PUSH2 0x296 JUMP JUMPDEST JUMPDEST PUSH0 DUP6 ADD CALLDATALOAD PUSH8 0xFFFFFFFFFFFFFFFF DUP2 GT ISZERO PUSH2 0x334 JUMPI PUSH2 0x333 PUSH2 0x29A JUMP JUMPDEST JUMPDEST PUSH2 0x340 DUP8 DUP3 DUP9 ADD PUSH2 0x2AA JUMP JUMPDEST SWAP5 POP SWAP5 POP POP PUSH1 0x20 DUP6 ADD CALLDATALOAD PUSH8 0xFFFFFFFFFFFFFFFF DUP2 GT ISZERO PUSH2 0x363 JUMPI PUSH2 0x362 PUSH2 0x29A JUMP JUMPDEST JUMPDEST PUSH2 0x36F DUP8 DUP3 DUP9 ADD PUSH2 0x2AA JUMP JUMPDEST SWAP3 POP SWAP3 POP POP SWAP3 SWAP6 SWAP2 SWAP5 POP SWAP3 POP JUMP JUMPDEST PUSH0 DUP2 MLOAD SWAP1 POP SWAP2 SWAP1 POP JUMP JUMPDEST PUSH0 DUP3 DUP3 MSTORE PUSH1 0x20 DUP3 ADD SWAP1 POP SWAP3 SWAP2 POP POP JUMP JUMPDEST PUSH0 DUP2 SWAP1 POP PUSH1 0x20 DUP3 ADD SWAP1 POP SWAP2 SWAP1 POP JUMP JUMPDEST PUSH0 DUP2 SWAP1 POP SWAP2 SWAP1 POP JUMP JUMPDEST PUSH2 0x3B8 DUP2 PUSH2 0x3A6 JUMP JUMPDEST DUP3 MSTORE POP POP JUMP JUMPDEST PUSH0 PUSH2 0x3C9 DUP4 DUP4 PUSH2 0x3AF JUMP JUMPDEST PUSH1 0x20 DUP4 ADD SWAP1 POP SWAP3 SWAP2 POP POP JUMP JUMPDEST PUSH0 PUSH1 0x20 DUP3 ADD SWAP1 POP SWAP2 SWAP1 POP JUMP JUMPDEST PUSH0 PUSH2 0x3EB DUP3 PUSH2 0x37D JUMP JUMPDEST PUSH2 0x3F5 DUP2 DUP6 PUSH2 0x387 JUMP JUMPDEST SWAP4 POP PUSH2 0x400 DUP4 PUSH2 0x397 JUMP JUMPDEST DUP1 PUSH0 JUMPDEST DUP4 DUP2 LT ISZERO PUSH2 0x430 JUMPI DUP2 MLOAD PUSH2 0x417 DUP9 DUP3 PUSH2 0x3BE JUMP JUMPDEST SWAP8 POP PUSH2 0x422 DUP4 PUSH2 0x3D5 JUMP JUMPDEST SWAP3 POP POP PUSH1 0x1 DUP2 ADD SWAP1 POP PUSH2 0x403 JUMP JUMPDEST POP DUP6 SWAP4 POP POP POP POP SWAP3 SWAP2 POP POP JUMP JUMPDEST PUSH0 PUSH1 0x20 DUP3 ADD SWAP1 POP DUP2 DUP2 SUB PUSH0 DUP4 ADD MSTORE PUSH2 0x455 DUP2 DUP5 PUSH2 0x3E1 JUMP JUMPDEST SWAP1 POP SWAP3 SWAP2 POP POP JUMP JUMPDEST PUSH32 0x4E487B7100000000000000000000000000000000000000000000000000000000 PUSH0 MSTORE PUSH1 0x11 PUSH1 0x4 MSTORE PUSH1 0x24 PUSH0 REVERT JUMPDEST PUSH0 PUSH2 0x494 DUP3 PUSH2 0x3A6 JUMP JUMPDEST SWAP2 POP PUSH2 0x49F DUP4 PUSH2 0x3A6 JUMP JUMPDEST SWAP3 POP DUP3 DUP3 ADD SWAP1 POP DUP1 DUP3 GT ISZERO PUSH2 0x4B7 JUMPI PUSH2 0x4B6 PUSH2 0x45D JUMP JUMPDEST JUMPDEST SWAP3 SWAP2 POP POP JUMP JUMPDEST PUSH32 0x4E487B7100000000000000000000000000000000000000000000000000000000 PUSH0 MSTORE PUSH1 0x41 PUSH1 0x4 MSTORE PUSH1 0x24 PUSH0 REVERT JUMPDEST PUSH32 0x4E487B7100000000000000000000000000000000000000000000000000000000 PUSH0 MSTORE PUSH1 0x32 PUSH1 0x4 MSTORE PUSH1 0x24 PUSH0 REVERT JUMPDEST PUSH0 PUSH2 0x521 DUP3 PUSH2 0x3A6 JUMP JUMPDEST SWAP2 POP PUSH32 0xFFFFFFFFFFFFFFFFFFFFFFFFFFFFFFFFFFFFFFFFFFFFFFFFFFFFFFFFFFFFFFFF DUP3 SUB PUSH2 0x553 JUMPI PUSH2 0x552 PUSH2 0x45D JUMP JUMPDEST JUMPDEST PUSH1 0x1 DUP3 ADD SWAP1 POP SWAP2 SWAP1 POP JUMP INVALID LOG2 PUSH5 0x6970667358 0x22 SLT KECCAK256 PUSH1 0x58 CHAINID 0xAB 0x2D 0xBB GASPRICE SWAPN 0xFE PUSH2 0x25A6 0xDB PUSH14 0x96BF0038E8DD80DF5AB72E83900D 0xCE DATALOADN 0x72A3 PUSH5 0x736F6C6343 STOP ADDMOD 0x22 STOP CALLER "
				},
				"gasEstimates": {
					"creation": {
						"codeDepositCost": "285600",
						"executionCost": "322",
						"totalCost": "285922"
					},
					"external": {
						"merge(uint256[],uint256[])": "infinite"
					}
				},
				"methodIdentifiers": {
					"merge(uint256[],uint256[])": "088b9bf6"
				}
			},
			"storageLayout": {
				"storage": [],
				"types": null
			},
			"userdoc": {
				"kind": "user",
				"methods": {},
				"version": 1
			}
		}
	}
}