{
	"homework02.sol": {
		"BeggingContract": {
			"abi": [
				{
					"inputs": [
						{
							"internalType": "address",
							"name": "owner",
							"type": "address"
						}
					],
					"stateMutability": "nonpayable",
					"type": "constructor"
				},
				{
					"inputs": [],
					"name": "DonationEnd",
					"type": "error"
				},
				{
					"inputs": [],
					"name": "NoMoney",
					"type": "error"
				},
				{
					"inputs": [
						{
							"internalType": "address",
							"name": "owner",
							"type": "address"
						}
					],
					"name": "OwnableInvalidOwner",
					"type": "error"
				},
				{
					"inputs": [
						{
							"internalType": "address",
							"name": "account",
							"type": "address"
						}
					],
					"name": "OwnableUnauthorizedAccount",
					"type": "error"
				},
				{
					"inputs": [],
					"name": "WithdrawFailed",
					"type": "error"
				},
				{
					"anonymous": false,
					"inputs": [
						{
							"indexed": false,
							"internalType": "address",
							"name": "donator",
							"type": "address"
						},
						{
							"indexed": false,
							"internalType": "uint256",
							"name": "amount",
							"type": "uint256"
						}
					],
					"name": "Donate",
					"type": "event"
				},
				{
					"anonymous": false,
					"inputs": [
						{
							"indexed": true,
							"internalType": "address",
							"name": "previousOwner",
							"type": "address"
						},
						{
							"indexed": true,
							"internalType": "address",
							"name": "newOwner",
							"type": "address"
						}
					],
					"name": "OwnershipTransferred",
					"type": "event"
				},
				{
					"inputs": [],
					"name": "donate",
					"outputs": [],
					"stateMutability": "payable",
					"type": "function"
				},
				{
					"inputs": [
						{
							"internalType": "uint256",
							"name": "",
							"type": "uint256"
						}
					],
					"name": "donators",
					"outputs": [
						{
							"internalType": "address",
							"name": "",
							"type": "address"
						}
					],
					"stateMutability": "view",
					"type": "function"
				},
				{
					"inputs": [
						{
							"internalType": "address",
							"name": "donator",
							"type": "address"
						}
					],
					"name": "getDonation",
					"outputs": [
						{
							"internalType": "uint256",
							"name": "",
							"type": "uint256"
						}
					],
					"stateMutability": "view",
					"type": "function"
				},
				{
					"inputs": [],
					"name": "getTop3Donors",
					"outputs": [
						{
							"internalType": "address",
							"name": "top1",
							"type": "address"
						},
						{
							"internalType": "uint256",
							"name": "top1Amount",
							"type": "uint256"
						},
						{
							"internalType": "address",
							"name": "top2",
							"type": "address"
						},
						{
							"internalType": "uint256",
							"name": "top2Amount",
							"type": "uint256"
						},
						{
							"internalType": "address",
							"name": "top3",
							"type": "address"
						},
						{
							"internalType": "uint256",
							"name": "top3Amount",
							"type": "uint256"
						}
					],
					"stateMutability": "view",
					"type": "function"
				},
				{
					"inputs": [],
					"name": "owner",
					"outputs": [
						{
							"internalType": "address",
							"name": "",
							"type": "address"
						}
					],
					"stateMutability": "view",
					"type": "function"
				},
				{
					"inputs": [],
					"name": "renounceOwnership",
					"outputs": [],
					"stateMutability": "nonpayable",
					"type": "function"
				},
				{
					"inputs": [],
					"name": "totalAmout",
					"outputs": [
						{
							"internalType": "uint256",
							"name": "",
							"type": "uint256"
						}
					],
					"stateMutability": "view",
					"type": "function"
				},
				{
					"inputs": [
						{
							"internalType": "address",
							"name": "newOwner",
							"type": "address"
						}
					],
					"name": "transferOwnership",
					"outputs": [],
					"stateMutability": "nonpayable",
					"type": "function"
				},
				{
					"inputs": [],
					"name": "withdraw",
					"outputs": [],
					"stateMutability": "nonpayable",
					"type": "function"
				}
			],
			"devdoc": {
				"errors": {
					"OwnableInvalidOwner(address)": [
						{
							"details": "The owner is not a valid owner account. (eg. `address(0)`)"
						}
					],
					"OwnableUnauthorizedAccount(address)": [
						{
							"details": "The caller account is not authorized to perform an operation."
						}
					]
				},
				"kind": "dev",
				"methods": {
					"owner()": {
						"details": "Returns the address of the current owner."
					},
					"renounceOwnership()": {
						"details": "Leaves the contract without owner. It will not be possible to call `onlyOwner` functions. Can only be called by the current owner. NOTE: Renouncing ownership will leave the contract without an owner, thereby disabling any functionality that is only available to the owner."
					},
					"transferOwnership(address)": {
						"details": "Transfers ownership of the contract to a new account (`newOwner`). Can only be called by the current owner."
					}
				},
				"version": 1
			},
			"evm": {
				"assembly": "    /* \"homework02.sol\":132:3477  contract BeggingContract is Ownable {... */\n  mstore(0x40, 0xa0)\n    /* \"homework02.sol\":677:785  constructor(address owner) Ownable(owner) {... */\n  callvalue\n  dup1\n  iszero\n  tag_1\n  jumpi\n  revert(0x00, 0x00)\ntag_1:\n  pop\n  mload(0x40)\n  sub(codesize, bytecodeSize)\n  dup1\n  bytecodeSize\n  dup4\n  codecopy\n  dup2\n  dup2\n  add\n  0x40\n  mstore\n  dup2\n  add\n  swap1\n  tag_2\n  swap2\n  swap1\n  tag_3\n  jump\t// in\ntag_2:\n    /* \"homework02.sol\":712:717  owner */\n  dup1\n    /* \"@openzeppelin/contracts/access/Ownable.sol\":1297:1298  0 */\n  0x00\n    /* \"@openzeppelin/contracts/access/Ownable.sol\":1273:1299  initialOwner == address(0) */\n  0xffffffffffffffffffffffffffffffffffffffff\n  and\n    /* \"@openzeppelin/contracts/access/Ownable.sol\":1273:1285  initialOwner */\n  dup2\n    /* \"@openzeppelin/contracts/access/Ownable.sol\":1273:1299  initialOwner == address(0) */\n  0xffffffffffffffffffffffffffffffffffffffff\n  and\n  sub\n    /* \"@openzeppelin/contracts/access/Ownable.sol\":1269:1364  if (initialOwner == address(0)) {... */\n  tag_7\n  jumpi\n    /* \"@openzeppelin/contracts/access/Ownable.sol\":1350:1351  0 */\n  0x00\n    /* \"@openzeppelin/contracts/access/Ownable.sol\":1322:1353  OwnableInvalidOwner(address(0)) */\n  mload(0x40)\n  0x1e4fbdf700000000000000000000000000000000000000000000000000000000\n  dup2\n  mstore\n  0x04\n  add\n  tag_8\n  swap2\n  swap1\n  tag_9\n  jump\t// in\ntag_8:\n  mload(0x40)\n  dup1\n  swap2\n  sub\n  swap1\n  revert\n    /* \"@openzeppelin/contracts/access/Ownable.sol\":1269:1364  if (initialOwner == address(0)) {... */\ntag_7:\n    /* \"@openzeppelin/contracts/access/Ownable.sol\":1373:1405  _transferOwnership(initialOwner) */\n  tag_10\n    /* \"@openzeppelin/contracts/access/Ownable.sol\":1392:1404  initialOwner */\n  dup2\n    /* \"@openzeppelin/contracts/access/Ownable.sol\":1373:1391  _transferOwnership */\n  shl(0x20, tag_11)\n    /* \"@openzeppelin/contracts/access/Ownable.sol\":1373:1405  _transferOwnership(initialOwner) */\n  0x20\n  shr\n  jump\t// in\ntag_10:\n    /* \"@openzeppelin/contracts/access/Ownable.sol\":1225:1412  constructor(address initialOwner) {... */\n  pop\n    /* \"homework02.sol\":491:496  86400 */\n  0x015180\n    /* \"homework02.sol\":752:767  block.timestamp */\n  timestamp\n    /* \"homework02.sol\":752:777  block.timestamp + ONE_DAY */\n  tag_13\n  swap2\n  swap1\n  tag_14\n  jump\t// in\ntag_13:\n    /* \"homework02.sol\":732:777  DONATION_END_TIME = block.timestamp + ONE_DAY */\n  0x80\n  dup2\n  dup2\n  mstore\n  pop\n  pop\n    /* \"homework02.sol\":677:785  constructor(address owner) Ownable(owner) {... */\n  pop\n    /* \"homework02.sol\":132:3477  contract BeggingContract is Ownable {... */\n  jump(tag_15)\n    /* \"@openzeppelin/contracts/access/Ownable.sol\":2912:3099  function _transferOwnership(address newOwner) internal virtual {... */\ntag_11:\n    /* \"@openzeppelin/contracts/access/Ownable.sol\":2985:3001  address oldOwner */\n  0x00\n    /* \"@openzeppelin/contracts/access/Ownable.sol\":3004:3010  _owner */\n  0x00\n  0x00\n  swap1\n  sload\n  swap1\n  0x0100\n  exp\n  swap1\n  div\n  0xffffffffffffffffffffffffffffffffffffffff\n  and\n    /* \"@openzeppelin/contracts/access/Ownable.sol\":2985:3010  address oldOwner = _owner */\n  swap1\n  pop\n    /* \"@openzeppelin/contracts/access/Ownable.sol\":3029:3037  newOwner */\n  dup2\n    /* \"@openzeppelin/contracts/access/Ownable.sol\":3020:3026  _owner */\n  0x00\n  0x00\n    /* \"@openzeppelin/contracts/access/Ownable.sol\":3020:3037  _owner = newOwner */\n  0x0100\n  exp\n  dup2\n  sload\n  dup2\n  0xffffffffffffffffffffffffffffffffffffffff\n  mul\n  not\n  and\n  swap1\n  dup4\n  0xffffffffffffffffffffffffffffffffffffffff\n  and\n  mul\n  or\n  swap1\n  sstore\n  pop\n    /* \"@openzeppelin/contracts/access/Ownable.sol\":3083:3091  newOwner */\n  dup2\n    /* \"@openzeppelin/contracts/access/Ownable.sol\":3052:3092  OwnershipTransferred(oldOwner, newOwner) */\n  0xffffffffffffffffffffffffffffffffffffffff\n  and\n    /* \"@openzeppelin/contracts/access/Ownable.sol\":3073:3081  oldOwner */\n  dup2\n    /* \"@openzeppelin/contracts/access/Ownable.sol\":3052:3092  OwnershipTransferred(oldOwner, newOwner) */\n  0xffffffffffffffffffffffffffffffffffffffff\n  and\n  0x8be0079c531659141344cd1fd0a4f28419497f9722a3daafe3b4186f6b6457e0\n  mload(0x40)\n  mload(0x40)\n  dup1\n  swap2\n  sub\n  swap1\n  log3\n    /* \"@openzeppelin/contracts/access/Ownable.sol\":2975:3099  {... */\n  pop\n    /* \"@openzeppelin/contracts/access/Ownable.sol\":2912:3099  function _transferOwnership(address newOwner) internal virtual {... */\n  pop\n  jump\t// out\n    /* \"#utility.yul\":88:205   */\ntag_18:\n    /* \"#utility.yul\":197:198   */\n  0x00\n    /* \"#utility.yul\":194:195   */\n  0x00\n    /* \"#utility.yul\":187:199   */\n  revert\n    /* \"#utility.yul\":334:460   */\ntag_20:\n    /* \"#utility.yul\":371:378   */\n  0x00\n    /* \"#utility.yul\":411:453   */\n  0xffffffffffffffffffffffffffffffffffffffff\n    /* \"#utility.yul\":404:409   */\n  dup3\n    /* \"#utility.yul\":400:454   */\n  and\n    /* \"#utility.yul\":389:454   */\n  swap1\n  pop\n    /* \"#utility.yul\":334:460   */\n  swap2\n  swap1\n  pop\n  jump\t// out\n    /* \"#utility.yul\":466:562   */\ntag_21:\n    /* \"#utility.yul\":503:510   */\n  0x00\n    /* \"#utility.yul\":532:556   */\n  tag_33\n    /* \"#utility.yul\":550:555   */\n  dup3\n    /* \"#utility.yul\":532:556   */\n  tag_20\n  jump\t// in\ntag_33:\n    /* \"#utility.yul\":521:556   */\n  swap1\n  pop\n    /* \"#utility.yul\":466:562   */\n  swap2\n  swap1\n  pop\n  jump\t// out\n    /* \"#utility.yul\":568:690   */\ntag_22:\n    /* \"#utility.yul\":641:665   */\n  tag_35\n    /* \"#utility.yul\":659:664   */\n  dup2\n    /* \"#utility.yul\":641:665   */\n  tag_21\n  jump\t// in\ntag_35:\n    /* \"#utility.yul\":634:639   */\n  dup2\n    /* \"#utility.yul\":631:666   */\n  eq\n    /* \"#utility.yul\":621:684   */\n  tag_36\n  jumpi\n    /* \"#utility.yul\":680:681   */\n  0x00\n    /* \"#utility.yul\":677:678   */\n  0x00\n    /* \"#utility.yul\":670:682   */\n  revert\n    /* \"#utility.yul\":621:684   */\ntag_36:\n    /* \"#utility.yul\":568:690   */\n  pop\n  jump\t// out\n    /* \"#utility.yul\":696:839   */\ntag_23:\n    /* \"#utility.yul\":753:758   */\n  0x00\n    /* \"#utility.yul\":784:790   */\n  dup2\n    /* \"#utility.yul\":778:791   */\n  mload\n    /* \"#utility.yul\":769:791   */\n  swap1\n  pop\n    /* \"#utility.yul\":800:833   */\n  tag_38\n    /* \"#utility.yul\":827:832   */\n  dup2\n    /* \"#utility.yul\":800:833   */\n  tag_22\n  jump\t// in\ntag_38:\n    /* \"#utility.yul\":696:839   */\n  swap3\n  swap2\n  pop\n  pop\n  jump\t// out\n    /* \"#utility.yul\":845:1196   */\ntag_3:\n    /* \"#utility.yul\":915:921   */\n  0x00\n    /* \"#utility.yul\":964:966   */\n  0x20\n    /* \"#utility.yul\":952:961   */\n  dup3\n    /* \"#utility.yul\":943:950   */\n  dup5\n    /* \"#utility.yul\":939:962   */\n  sub\n    /* \"#utility.yul\":935:967   */\n  slt\n    /* \"#utility.yul\":932:1051   */\n  iszero\n  tag_40\n  jumpi\n    /* \"#utility.yul\":970:1049   */\n  tag_41\n  tag_18\n  jump\t// in\ntag_41:\n    /* \"#utility.yul\":932:1051   */\ntag_40:\n    /* \"#utility.yul\":1090:1091   */\n  0x00\n    /* \"#utility.yul\":1115:1179   */\n  tag_42\n    /* \"#utility.yul\":1171:1178   */\n  dup5\n    /* \"#utility.yul\":1162:1168   */\n  dup3\n    /* \"#utility.yul\":1151:1160   */\n  dup6\n    /* \"#utility.yul\":1147:1169   */\n  add\n    /* \"#utility.yul\":1115:1179   */\n  tag_23\n  jump\t// in\ntag_42:\n    /* \"#utility.yul\":1105:1179   */\n  swap2\n  pop\n    /* \"#utility.yul\":1061:1189   */\n  pop\n    /* \"#utility.yul\":845:1196   */\n  swap3\n  swap2\n  pop\n  pop\n  jump\t// out\n    /* \"#utility.yul\":1202:1320   */\ntag_24:\n    /* \"#utility.yul\":1289:1313   */\n  tag_44\n    /* \"#utility.yul\":1307:1312   */\n  dup2\n    /* \"#utility.yul\":1289:1313   */\n  tag_21\n  jump\t// in\ntag_44:\n    /* \"#utility.yul\":1284:1287   */\n  dup3\n    /* \"#utility.yul\":1277:1314   */\n  mstore\n    /* \"#utility.yul\":1202:1320   */\n  pop\n  pop\n  jump\t// out\n    /* \"#utility.yul\":1326:1548   */\ntag_9:\n    /* \"#utility.yul\":1419:1423   */\n  0x00\n    /* \"#utility.yul\":1457:1459   */\n  0x20\n    /* \"#utility.yul\":1446:1455   */\n  dup3\n    /* \"#utility.yul\":1442:1460   */\n  add\n    /* \"#utility.yul\":1434:1460   */\n  swap1\n  pop\n    /* \"#utility.yul\":1470:1541   */\n  tag_46\n    /* \"#utility.yul\":1538:1539   */\n  0x00\n    /* \"#utility.yul\":1527:1536   */\n  dup4\n    /* \"#utility.yul\":1523:1540   */\n  add\n    /* \"#utility.yul\":1514:1520   */\n  dup5\n    /* \"#utility.yul\":1470:1541   */\n  tag_24\n  jump\t// in\ntag_46:\n    /* \"#utility.yul\":1326:1548   */\n  swap3\n  swap2\n  pop\n  pop\n  jump\t// out\n    /* \"#utility.yul\":1554:1631   */\ntag_25:\n    /* \"#utility.yul\":1591:1598   */\n  0x00\n    /* \"#utility.yul\":1620:1625   */\n  dup2\n    /* \"#utility.yul\":1609:1625   */\n  swap1\n  pop\n    /* \"#utility.yul\":1554:1631   */\n  swap2\n  swap1\n  pop\n  jump\t// out\n    /* \"#utility.yul\":1637:1817   */\ntag_26:\n    /* \"#utility.yul\":1685:1762   */\n  0x4e487b7100000000000000000000000000000000000000000000000000000000\n    /* \"#utility.yul\":1682:1683   */\n  0x00\n    /* \"#utility.yul\":1675:1763   */\n  mstore\n    /* \"#utility.yul\":1782:1786   */\n  0x11\n    /* \"#utility.yul\":1779:1780   */\n  0x04\n    /* \"#utility.yul\":1772:1787   */\n  mstore\n    /* \"#utility.yul\":1806:1810   */\n  0x24\n    /* \"#utility.yul\":1803:1804   */\n  0x00\n    /* \"#utility.yul\":1796:1811   */\n  revert\n    /* \"#utility.yul\":1823:2014   */\ntag_14:\n    /* \"#utility.yul\":1863:1866   */\n  0x00\n    /* \"#utility.yul\":1882:1902   */\n  tag_50\n    /* \"#utility.yul\":1900:1901   */\n  dup3\n    /* \"#utility.yul\":1882:1902   */\n  tag_25\n  jump\t// in\ntag_50:\n    /* \"#utility.yul\":1877:1902   */\n  swap2\n  pop\n    /* \"#utility.yul\":1916:1936   */\n  tag_51\n    /* \"#utility.yul\":1934:1935   */\n  dup4\n    /* \"#utility.yul\":1916:1936   */\n  tag_25\n  jump\t// in\ntag_51:\n    /* \"#utility.yul\":1911:1936   */\n  swap3\n  pop\n    /* \"#utility.yul\":1959:1960   */\n  dup3\n    /* \"#utility.yul\":1956:1957   */\n  dup3\n    /* \"#utility.yul\":1952:1961   */\n  add\n    /* \"#utility.yul\":1945:1961   */\n  swap1\n  pop\n    /* \"#utility.yul\":1980:1983   */\n  dup1\n    /* \"#utility.yul\":1977:1978   */\n  dup3\n    /* \"#utility.yul\":1974:1984   */\n  gt\n    /* \"#utility.yul\":1971:2007   */\n  iszero\n  tag_52\n  jumpi\n    /* \"#utility.yul\":1987:2005   */\n  tag_53\n  tag_26\n  jump\t// in\ntag_53:\n    /* \"#utility.yul\":1971:2007   */\ntag_52:\n    /* \"#utility.yul\":1823:2014   */\n  swap3\n  swap2\n  pop\n  pop\n  jump\t// out\n    /* \"homework02.sol\":132:3477  contract BeggingContract is Ownable {... */\ntag_15:\n  mload(0x80)\n  codecopy(0x00, dataOffset(sub_0), dataSize(sub_0))\n  0x00\n  assignImmutable(\"0x9a8b6999955579552efb49f9b1ba44e9b405d36c1cd9fda072316c810fd42bbd\")\n  return(0x00, dataSize(sub_0))\nstop\n\nsub_0: assembly {\n        /* \"homework02.sol\":132:3477  contract BeggingContract is Ownable {... */\n      mstore(0x40, 0x80)\n      jumpi(tag_1, lt(calldatasize, 0x04))\n      shr(0xe0, calldataload(0x00))\n      dup1\n      0x8da5cb5b\n      gt\n      tag_11\n      jumpi\n      dup1\n      0x8da5cb5b\n      eq\n      tag_6\n      jumpi\n      dup1\n      0xac62f566\n      eq\n      tag_7\n      jumpi\n      dup1\n      0xdfeb3022\n      eq\n      tag_8\n      jumpi\n      dup1\n      0xed88c68e\n      eq\n      tag_9\n      jumpi\n      dup1\n      0xf2fde38b\n      eq\n      tag_10\n      jumpi\n      jump(tag_1)\n    tag_11:\n      dup1\n      0x2d1e2518\n      eq\n      tag_2\n      jumpi\n      dup1\n      0x3ccfd60b\n      eq\n      tag_3\n      jumpi\n      dup1\n      0x410a1d32\n      eq\n      tag_4\n      jumpi\n      dup1\n      0x715018a6\n      eq\n      tag_5\n      jumpi\n    tag_1:\n      revert(0x00, 0x00)\n        /* \"homework02.sol\":3084:3474  function getTop3Donors() ... */\n    tag_2:\n      callvalue\n      dup1\n      iszero\n      tag_12\n      jumpi\n      revert(0x00, 0x00)\n    tag_12:\n      pop\n      tag_13\n      tag_14\n      jump\t// in\n    tag_13:\n      mload(0x40)\n      tag_15\n      swap7\n      swap6\n      swap5\n      swap4\n      swap3\n      swap2\n      swap1\n      tag_16\n      jump\t// in\n    tag_15:\n      mload(0x40)\n      dup1\n      swap2\n      sub\n      swap1\n      return\n        /* \"homework02.sol\":1315:1589  function withdraw() public onlyOwner {... */\n    tag_3:\n      callvalue\n      dup1\n      iszero\n      tag_17\n      jumpi\n      revert(0x00, 0x00)\n    tag_17:\n      pop\n      tag_18\n      tag_19\n      jump\t// in\n    tag_18:\n      stop\n        /* \"homework02.sol\":1597:1714  function getDonation(address donator) external view returns (uint) {... */\n    tag_4:\n      callvalue\n      dup1\n      iszero\n      tag_20\n      jumpi\n      revert(0x00, 0x00)\n    tag_20:\n      pop\n      tag_21\n      0x04\n      dup1\n      calldatasize\n      sub\n      dup2\n      add\n      swap1\n      tag_22\n      swap2\n      swap1\n      tag_23\n      jump\t// in\n    tag_22:\n      tag_24\n      jump\t// in\n    tag_21:\n      mload(0x40)\n      tag_25\n      swap2\n      swap1\n      tag_26\n      jump\t// in\n    tag_25:\n      mload(0x40)\n      dup1\n      swap2\n      sub\n      swap1\n      return\n        /* \"@openzeppelin/contracts/access/Ownable.sol\":2293:2394  function renounceOwnership() public virtual onlyOwner {... */\n    tag_5:\n      callvalue\n      dup1\n      iszero\n      tag_27\n      jumpi\n      revert(0x00, 0x00)\n    tag_27:\n      pop\n      tag_28\n      tag_29\n      jump\t// in\n    tag_28:\n      stop\n        /* \"@openzeppelin/contracts/access/Ownable.sol\":1638:1723  function owner() public view virtual returns (address) {... */\n    tag_6:\n      callvalue\n      dup1\n      iszero\n      tag_30\n      jumpi\n      revert(0x00, 0x00)\n    tag_30:\n      pop\n      tag_31\n      tag_32\n      jump\t// in\n    tag_31:\n      mload(0x40)\n      tag_33\n      swap2\n      swap1\n      tag_34\n      jump\t// in\n    tag_33:\n      mload(0x40)\n      dup1\n      swap2\n      sub\n      swap1\n      return\n        /* \"homework02.sol\":233:258  address[] public donators */\n    tag_7:\n      callvalue\n      dup1\n      iszero\n      tag_35\n      jumpi\n      revert(0x00, 0x00)\n    tag_35:\n      pop\n      tag_36\n      0x04\n      dup1\n      calldatasize\n      sub\n      dup2\n      add\n      swap1\n      tag_37\n      swap2\n      swap1\n      tag_38\n      jump\t// in\n    tag_37:\n      tag_39\n      jump\t// in\n    tag_36:\n      mload(0x40)\n      tag_40\n      swap2\n      swap1\n      tag_34\n      jump\t// in\n    tag_40:\n      mload(0x40)\n      dup1\n      swap2\n      sub\n      swap1\n      return\n        /* \"homework02.sol\":267:289  uint public totalAmout */\n    tag_8:\n      callvalue\n      dup1\n      iszero\n      tag_41\n      jumpi\n      revert(0x00, 0x00)\n    tag_41:\n      pop\n      tag_42\n      tag_43\n      jump\t// in\n    tag_42:\n      mload(0x40)\n      tag_44\n      swap2\n      swap1\n      tag_26\n      jump\t// in\n    tag_44:\n      mload(0x40)\n      dup1\n      swap2\n      sub\n      swap1\n      return\n        /* \"homework02.sol\":793:1303  function donate() external payable {... */\n    tag_9:\n      tag_45\n      tag_46\n      jump\t// in\n    tag_45:\n      stop\n        /* \"@openzeppelin/contracts/access/Ownable.sol\":2543:2758  function transferOwnership(address newOwner) public virtual onlyOwner {... */\n    tag_10:\n      callvalue\n      dup1\n      iszero\n      tag_47\n      jumpi\n      revert(0x00, 0x00)\n    tag_47:\n      pop\n      tag_48\n      0x04\n      dup1\n      calldatasize\n      sub\n      dup2\n      add\n      swap1\n      tag_49\n      swap2\n      swap1\n      tag_23\n      jump\t// in\n    tag_49:\n      tag_50\n      jump\t// in\n    tag_48:\n      stop\n        /* \"homework02.sol\":3084:3474  function getTop3Donors() ... */\n    tag_14:\n        /* \"homework02.sol\":3176:3188  address top1 */\n      0x00\n        /* \"homework02.sol\":3190:3208  uint256 top1Amount */\n      0x00\n        /* \"homework02.sol\":3223:3235  address top2 */\n      0x00\n        /* \"homework02.sol\":3237:3255  uint256 top2Amount */\n      0x00\n        /* \"homework02.sol\":3270:3282  address top3 */\n      0x00\n        /* \"homework02.sol\":3284:3302  uint256 top3Amount */\n      0x00\n        /* \"homework02.sol\":3353:3358  _rank */\n      0x04\n        /* \"homework02.sol\":3359:3360  0 */\n      0x00\n        /* \"homework02.sol\":3353:3361  _rank[0] */\n      0x03\n      dup2\n      lt\n      tag_52\n      jumpi\n      tag_53\n      tag_54\n      jump\t// in\n    tag_53:\n    tag_52:\n      add\n      0x00\n      swap1\n      sload\n      swap1\n      0x0100\n      exp\n      swap1\n      div\n      0xffffffffffffffffffffffffffffffffffffffff\n      and\n        /* \"homework02.sol\":3363:3374  _rankAmount */\n      0x07\n        /* \"homework02.sol\":3375:3376  0 */\n      0x00\n        /* \"homework02.sol\":3363:3377  _rankAmount[0] */\n      0x03\n      dup2\n      lt\n      tag_56\n      jumpi\n      tag_57\n      tag_54\n      jump\t// in\n    tag_57:\n    tag_56:\n      add\n      sload\n        /* \"homework02.sol\":3392:3397  _rank */\n      0x04\n        /* \"homework02.sol\":3398:3399  1 */\n      0x01\n        /* \"homework02.sol\":3392:3400  _rank[1] */\n      0x03\n      dup2\n      lt\n      tag_59\n      jumpi\n      tag_60\n      tag_54\n      jump\t// in\n    tag_60:\n    tag_59:\n      add\n      0x00\n      swap1\n      sload\n      swap1\n      0x0100\n      exp\n      swap1\n      div\n      0xffffffffffffffffffffffffffffffffffffffff\n      and\n        /* \"homework02.sol\":3402:3413  _rankAmount */\n      0x07\n        /* \"homework02.sol\":3414:3415  1 */\n      0x01\n        /* \"homework02.sol\":3402:3416  _rankAmount[1] */\n      0x03\n      dup2\n      lt\n      tag_62\n      jumpi\n      tag_63\n      tag_54\n      jump\t// in\n    tag_63:\n    tag_62:\n      add\n      sload\n        /* \"homework02.sol\":3431:3436  _rank */\n      0x04\n        /* \"homework02.sol\":3437:3438  2 */\n      0x02\n        /* \"homework02.sol\":3431:3439  _rank[2] */\n      0x03\n      dup2\n      lt\n      tag_65\n      jumpi\n      tag_66\n      tag_54\n      jump\t// in\n    tag_66:\n    tag_65:\n      add\n      0x00\n      swap1\n      sload\n      swap1\n      0x0100\n      exp\n      swap1\n      div\n      0xffffffffffffffffffffffffffffffffffffffff\n      and\n        /* \"homework02.sol\":3441:3452  _rankAmount */\n      0x07\n        /* \"homework02.sol\":3453:3454  2 */\n      0x02\n        /* \"homework02.sol\":3441:3455  _rankAmount[2] */\n      0x03\n      dup2\n      lt\n      tag_68\n      jumpi\n      tag_69\n      tag_54\n      jump\t// in\n    tag_69:\n    tag_68:\n      add\n      sload\n        /* \"homework02.sol\":3331:3466  return (... */\n      swap6\n      pop\n      swap6\n      pop\n      swap6\n      pop\n      swap6\n      pop\n      swap6\n      pop\n      swap6\n      pop\n        /* \"homework02.sol\":3084:3474  function getTop3Donors() ... */\n      swap1\n      swap2\n      swap3\n      swap4\n      swap5\n      swap6\n      jump\t// out\n        /* \"homework02.sol\":1315:1589  function withdraw() public onlyOwner {... */\n    tag_19:\n        /* \"@openzeppelin/contracts/access/Ownable.sol\":1531:1544  _checkOwner() */\n      tag_72\n        /* \"@openzeppelin/contracts/access/Ownable.sol\":1531:1542  _checkOwner */\n      tag_73\n        /* \"@openzeppelin/contracts/access/Ownable.sol\":1531:1544  _checkOwner() */\n      jump\t// in\n    tag_72:\n        /* \"homework02.sol\":1387:1388  0 */\n      0x00\n        /* \"homework02.sol\":1373:1383  totalAmout */\n      sload(0x03)\n        /* \"homework02.sol\":1373:1388  totalAmout != 0 */\n      sub\n        /* \"homework02.sol\":1365:1400  require(totalAmout != 0, NoMoney()) */\n      tag_75\n      jumpi\n      mload(0x40)\n      0x469ea76800000000000000000000000000000000000000000000000000000000\n      dup2\n      mstore\n      0x04\n      add\n      mload(0x40)\n      dup1\n      swap2\n      sub\n      swap1\n      revert\n    tag_75:\n        /* \"homework02.sol\":1413:1424  uint amount */\n      0x00\n        /* \"homework02.sol\":1427:1437  totalAmout */\n      sload(0x03)\n        /* \"homework02.sol\":1413:1437  uint amount = totalAmout */\n      swap1\n      pop\n        /* \"homework02.sol\":1463:1464  0 */\n      0x00\n        /* \"homework02.sol\":1450:1460  totalAmout */\n      0x03\n        /* \"homework02.sol\":1450:1464  totalAmout = 0 */\n      dup2\n      swap1\n      sstore\n      pop\n        /* \"homework02.sol\":1478:1490  bool success */\n      0x00\n        /* \"homework02.sol\":1504:1511  owner() */\n      tag_76\n        /* \"homework02.sol\":1504:1509  owner */\n      tag_32\n        /* \"homework02.sol\":1504:1511  owner() */\n      jump\t// in\n    tag_76:\n        /* \"homework02.sol\":1496:1517  address(owner()).call */\n      0xffffffffffffffffffffffffffffffffffffffff\n      and\n        /* \"homework02.sol\":1525:1531  amount */\n      dup3\n        /* \"homework02.sol\":1496:1536  address(owner()).call{value: amount}(\"\") */\n      mload(0x40)\n      tag_77\n      swap1\n      tag_78\n      jump\t// in\n    tag_77:\n      0x00\n      mload(0x40)\n      dup1\n      dup4\n      sub\n      dup2\n      dup6\n      dup8\n      gas\n      call\n      swap3\n      pop\n      pop\n      pop\n      returndatasize\n      dup1\n      0x00\n      dup2\n      eq\n      tag_81\n      jumpi\n      mload(0x40)\n      swap2\n      pop\n      and(add(returndatasize, 0x3f), not(0x1f))\n      dup3\n      add\n      0x40\n      mstore\n      returndatasize\n      dup3\n      mstore\n      returndatasize\n      0x00\n      0x20\n      dup5\n      add\n      returndatacopy\n      jump(tag_80)\n    tag_81:\n      0x60\n      swap2\n      pop\n    tag_80:\n      pop\n        /* \"homework02.sol\":1477:1536  (bool success, ) = address(owner()).call{value: amount}(\"\") */\n      pop\n      swap1\n      pop\n        /* \"homework02.sol\":1555:1562  success */\n      dup1\n        /* \"homework02.sol\":1547:1581  require(success, WithdrawFailed()) */\n      tag_82\n      jumpi\n      mload(0x40)\n      0x750b219c00000000000000000000000000000000000000000000000000000000\n      dup2\n      mstore\n      0x04\n      add\n      mload(0x40)\n      dup1\n      swap2\n      sub\n      swap1\n      revert\n    tag_82:\n        /* \"homework02.sol\":1352:1589  {... */\n      pop\n      pop\n        /* \"homework02.sol\":1315:1589  function withdraw() public onlyOwner {... */\n      jump\t// out\n        /* \"homework02.sol\":1597:1714  function getDonation(address donator) external view returns (uint) {... */\n    tag_24:\n        /* \"homework02.sol\":1658:1662  uint */\n      0x00\n        /* \"homework02.sol\":1684:1697  _donateRecord */\n      0x01\n        /* \"homework02.sol\":1684:1706  _donateRecord[donator] */\n      0x00\n        /* \"homework02.sol\":1698:1705  donator */\n      dup4\n        /* \"homework02.sol\":1684:1706  _donateRecord[donator] */\n      0xffffffffffffffffffffffffffffffffffffffff\n      and\n      0xffffffffffffffffffffffffffffffffffffffff\n      and\n      dup2\n      mstore\n      0x20\n      add\n      swap1\n      dup2\n      mstore\n      0x20\n      add\n      0x00\n      keccak256\n      sload\n        /* \"homework02.sol\":1677:1706  return _donateRecord[donator] */\n      swap1\n      pop\n        /* \"homework02.sol\":1597:1714  function getDonation(address donator) external view returns (uint) {... */\n      swap2\n      swap1\n      pop\n      jump\t// out\n        /* \"@openzeppelin/contracts/access/Ownable.sol\":2293:2394  function renounceOwnership() public virtual onlyOwner {... */\n    tag_29:\n        /* \"@openzeppelin/contracts/access/Ownable.sol\":1531:1544  _checkOwner() */\n      tag_85\n        /* \"@openzeppelin/contracts/access/Ownable.sol\":1531:1542  _checkOwner */\n      tag_73\n        /* \"@openzeppelin/contracts/access/Ownable.sol\":1531:1544  _checkOwner() */\n      jump\t// in\n    tag_85:\n        /* \"@openzeppelin/contracts/access/Ownable.sol\":2357:2387  _transferOwnership(address(0)) */\n      tag_87\n        /* \"@openzeppelin/contracts/access/Ownable.sol\":2384:2385  0 */\n      0x00\n        /* \"@openzeppelin/contracts/access/Ownable.sol\":2357:2375  _transferOwnership */\n      tag_88\n        /* \"@openzeppelin/contracts/access/Ownable.sol\":2357:2387  _transferOwnership(address(0)) */\n      jump\t// in\n    tag_87:\n        /* \"@openzeppelin/contracts/access/Ownable.sol\":2293:2394  function renounceOwnership() public virtual onlyOwner {... */\n      jump\t// out\n        /* \"@openzeppelin/contracts/access/Ownable.sol\":1638:1723  function owner() public view virtual returns (address) {... */\n    tag_32:\n        /* \"@openzeppelin/contracts/access/Ownable.sol\":1684:1691  address */\n      0x00\n        /* \"@openzeppelin/contracts/access/Ownable.sol\":1710:1716  _owner */\n      0x00\n      0x00\n      swap1\n      sload\n      swap1\n      0x0100\n      exp\n      swap1\n      div\n      0xffffffffffffffffffffffffffffffffffffffff\n      and\n        /* \"@openzeppelin/contracts/access/Ownable.sol\":1703:1716  return _owner */\n      swap1\n      pop\n        /* \"@openzeppelin/contracts/access/Ownable.sol\":1638:1723  function owner() public view virtual returns (address) {... */\n      swap1\n      jump\t// out\n        /* \"homework02.sol\":233:258  address[] public donators */\n    tag_39:\n      0x02\n      dup2\n      dup2\n      sload\n      dup2\n      lt\n      tag_90\n      jumpi\n      0x00\n      dup1\n      revert\n    tag_90:\n      swap1\n      0x00\n      mstore\n      keccak256(0x00, 0x20)\n      add\n      0x00\n      swap2\n      pop\n      sload\n      swap1\n      0x0100\n      exp\n      swap1\n      div\n      0xffffffffffffffffffffffffffffffffffffffff\n      and\n      dup2\n      jump\t// out\n        /* \"homework02.sol\":267:289  uint public totalAmout */\n    tag_43:\n      sload(0x03)\n      dup2\n      jump\t// out\n        /* \"homework02.sol\":793:1303  function donate() external payable {... */\n    tag_46:\n        /* \"homework02.sol\":867:884  DONATION_END_TIME */\n      immutable(\"0x9a8b6999955579552efb49f9b1ba44e9b405d36c1cd9fda072316c810fd42bbd\")\n        /* \"homework02.sol\":849:864  block.timestamp */\n      timestamp\n        /* \"homework02.sol\":849:884  block.timestamp < DONATION_END_TIME */\n      lt\n        /* \"homework02.sol\":841:900  require(block.timestamp < DONATION_END_TIME, DonationEnd()) */\n      tag_93\n      jumpi\n      mload(0x40)\n      0xc8caf0c200000000000000000000000000000000000000000000000000000000\n      dup2\n      mstore\n      0x04\n      add\n      mload(0x40)\n      dup1\n      swap2\n      sub\n      swap1\n      revert\n    tag_93:\n        /* \"homework02.sol\":933:934  0 */\n      0x00\n        /* \"homework02.sol\":921:930  msg.value */\n      callvalue\n        /* \"homework02.sol\":921:934  msg.value > 0 */\n      gt\n        /* \"homework02.sol\":913:946  require(msg.value > 0, NoMoney()) */\n      tag_94\n      jumpi\n      mload(0x40)\n      0x469ea76800000000000000000000000000000000000000000000000000000000\n      dup2\n      mstore\n      0x04\n      add\n      mload(0x40)\n      dup1\n      swap2\n      sub\n      swap1\n      revert\n    tag_94:\n        /* \"homework02.sol\":959:972  uint newtotal */\n      0x00\n        /* \"homework02.sol\":1003:1012  msg.value */\n      callvalue\n        /* \"homework02.sol\":975:988  _donateRecord */\n      0x01\n        /* \"homework02.sol\":975:1000  _donateRecord[msg.sender] */\n      0x00\n        /* \"homework02.sol\":989:999  msg.sender */\n      caller\n        /* \"homework02.sol\":975:1000  _donateRecord[msg.sender] */\n      0xffffffffffffffffffffffffffffffffffffffff\n      and\n      0xffffffffffffffffffffffffffffffffffffffff\n      and\n      dup2\n      mstore\n      0x20\n      add\n      swap1\n      dup2\n      mstore\n      0x20\n      add\n      0x00\n      keccak256\n      sload\n        /* \"homework02.sol\":975:1012  _donateRecord[msg.sender] + msg.value */\n      tag_95\n      swap2\n      swap1\n      tag_96\n      jump\t// in\n    tag_95:\n        /* \"homework02.sol\":959:1012  uint newtotal = _donateRecord[msg.sender] + msg.value */\n      swap1\n      pop\n        /* \"homework02.sol\":1054:1063  msg.value */\n      callvalue\n        /* \"homework02.sol\":1025:1038  _donateRecord */\n      0x01\n        /* \"homework02.sol\":1025:1050  _donateRecord[msg.sender] */\n      0x00\n        /* \"homework02.sol\":1039:1049  msg.sender */\n      caller\n        /* \"homework02.sol\":1025:1050  _donateRecord[msg.sender] */\n      0xffffffffffffffffffffffffffffffffffffffff\n      and\n      0xffffffffffffffffffffffffffffffffffffffff\n      and\n      dup2\n      mstore\n      0x20\n      add\n      swap1\n      dup2\n      mstore\n      0x20\n      add\n      0x00\n      keccak256\n      0x00\n        /* \"homework02.sol\":1025:1063  _donateRecord[msg.sender] += msg.value */\n      dup3\n      dup3\n      sload\n      tag_97\n      swap2\n      swap1\n      tag_96\n      jump\t// in\n    tag_97:\n      swap3\n      pop\n      pop\n      dup2\n      swap1\n      sstore\n      pop\n        /* \"homework02.sol\":1099:1108  msg.value */\n      callvalue\n        /* \"homework02.sol\":1087:1095  newtotal */\n      dup2\n        /* \"homework02.sol\":1087:1108  newtotal == msg.value */\n      sub\n        /* \"homework02.sol\":1084:1164  if(newtotal == msg.value) {... */\n      tag_98\n      jumpi\n        /* \"homework02.sol\":1127:1135  donators */\n      0x02\n        /* \"homework02.sol\":1141:1151  msg.sender */\n      caller\n        /* \"homework02.sol\":1127:1152  donators.push(msg.sender) */\n      swap1\n      dup1\n      0x01\n      dup2\n      sload\n      add\n      dup1\n      dup3\n      sstore\n      dup1\n      swap2\n      pop\n      pop\n      0x01\n      swap1\n      sub\n      swap1\n      0x00\n      mstore\n      keccak256(0x00, 0x20)\n      add\n      0x00\n      swap1\n      swap2\n      swap1\n      swap2\n      swap1\n      swap2\n      0x0100\n      exp\n      dup2\n      sload\n      dup2\n      0xffffffffffffffffffffffffffffffffffffffff\n      mul\n      not\n      and\n      swap1\n      dup4\n      0xffffffffffffffffffffffffffffffffffffffff\n      and\n      mul\n      or\n      swap1\n      sstore\n      pop\n        /* \"homework02.sol\":1084:1164  if(newtotal == msg.value) {... */\n    tag_98:\n        /* \"homework02.sol\":1190:1199  msg.value */\n      callvalue\n        /* \"homework02.sol\":1176:1186  totalAmout */\n      0x03\n      0x00\n        /* \"homework02.sol\":1176:1199  totalAmout += msg.value */\n      dup3\n      dup3\n      sload\n      tag_100\n      swap2\n      swap1\n      tag_96\n      jump\t// in\n    tag_100:\n      swap3\n      pop\n      pop\n      dup2\n      swap1\n      sstore\n      pop\n        /* \"homework02.sol\":1217:1246  Donate(msg.sender, msg.value) */\n      0x0553260a2e46b0577270d8992db02d30856ca880144c72d6e9503760946aef13\n        /* \"homework02.sol\":1224:1234  msg.sender */\n      caller\n        /* \"homework02.sol\":1236:1245  msg.value */\n      callvalue\n        /* \"homework02.sol\":1217:1246  Donate(msg.sender, msg.value) */\n      mload(0x40)\n      tag_101\n      swap3\n      swap2\n      swap1\n      tag_102\n      jump\t// in\n    tag_101:\n      mload(0x40)\n      dup1\n      swap2\n      sub\n      swap1\n      log1\n        /* \"homework02.sol\":1259:1295  _updateRanking(msg.sender, newtotal) */\n      tag_103\n        /* \"homework02.sol\":1274:1284  msg.sender */\n      caller\n        /* \"homework02.sol\":1286:1294  newtotal */\n      dup3\n        /* \"homework02.sol\":1259:1273  _updateRanking */\n      tag_104\n        /* \"homework02.sol\":1259:1295  _updateRanking(msg.sender, newtotal) */\n      jump\t// in\n    tag_103:\n        /* \"homework02.sol\":828:1303  {... */\n      pop\n        /* \"homework02.sol\":793:1303  function donate() external payable {... */\n      jump\t// out\n        /* \"@openzeppelin/contracts/access/Ownable.sol\":2543:2758  function transferOwnership(address newOwner) public virtual onlyOwner {... */\n    tag_50:\n        /* \"@openzeppelin/contracts/access/Ownable.sol\":1531:1544  _checkOwner() */\n      tag_106\n        /* \"@openzeppelin/contracts/access/Ownable.sol\":1531:1542  _checkOwner */\n      tag_73\n        /* \"@openzeppelin/contracts/access/Ownable.sol\":1531:1544  _checkOwner() */\n      jump\t// in\n    tag_106:\n        /* \"@openzeppelin/contracts/access/Ownable.sol\":2647:2648  0 */\n      0x00\n        /* \"@openzeppelin/contracts/access/Ownable.sol\":2627:2649  newOwner == address(0) */\n      0xffffffffffffffffffffffffffffffffffffffff\n      and\n        /* \"@openzeppelin/contracts/access/Ownable.sol\":2627:2635  newOwner */\n      dup2\n        /* \"@openzeppelin/contracts/access/Ownable.sol\":2627:2649  newOwner == address(0) */\n      0xffffffffffffffffffffffffffffffffffffffff\n      and\n      sub\n        /* \"@openzeppelin/contracts/access/Ownable.sol\":2623:2714  if (newOwner == address(0)) {... */\n      tag_108\n      jumpi\n        /* \"@openzeppelin/contracts/access/Ownable.sol\":2700:2701  0 */\n      0x00\n        /* \"@openzeppelin/contracts/access/Ownable.sol\":2672:2703  OwnableInvalidOwner(address(0)) */\n      mload(0x40)\n      0x1e4fbdf700000000000000000000000000000000000000000000000000000000\n      dup2\n      mstore\n      0x04\n      add\n      tag_109\n      swap2\n      swap1\n      tag_34\n      jump\t// in\n    tag_109:\n      mload(0x40)\n      dup1\n      swap2\n      sub\n      swap1\n      revert\n        /* \"@openzeppelin/contracts/access/Ownable.sol\":2623:2714  if (newOwner == address(0)) {... */\n    tag_108:\n        /* \"@openzeppelin/contracts/access/Ownable.sol\":2723:2751  _transferOwnership(newOwner) */\n      tag_110\n        /* \"@openzeppelin/contracts/access/Ownable.sol\":2742:2750  newOwner */\n      dup2\n        /* \"@openzeppelin/contracts/access/Ownable.sol\":2723:2741  _transferOwnership */\n      tag_88\n        /* \"@openzeppelin/contracts/access/Ownable.sol\":2723:2751  _transferOwnership(newOwner) */\n      jump\t// in\n    tag_110:\n        /* \"@openzeppelin/contracts/access/Ownable.sol\":2543:2758  function transferOwnership(address newOwner) public virtual onlyOwner {... */\n      pop\n      jump\t// out\n        /* \"@openzeppelin/contracts/access/Ownable.sol\":1796:1958  function _checkOwner() internal view virtual {... */\n    tag_73:\n        /* \"@openzeppelin/contracts/access/Ownable.sol\":1866:1878  _msgSender() */\n      tag_112\n        /* \"@openzeppelin/contracts/access/Ownable.sol\":1866:1876  _msgSender */\n      tag_113\n        /* \"@openzeppelin/contracts/access/Ownable.sol\":1866:1878  _msgSender() */\n      jump\t// in\n    tag_112:\n        /* \"@openzeppelin/contracts/access/Ownable.sol\":1855:1878  owner() != _msgSender() */\n      0xffffffffffffffffffffffffffffffffffffffff\n      and\n        /* \"@openzeppelin/contracts/access/Ownable.sol\":1855:1862  owner() */\n      tag_114\n        /* \"@openzeppelin/contracts/access/Ownable.sol\":1855:1860  owner */\n      tag_32\n        /* \"@openzeppelin/contracts/access/Ownable.sol\":1855:1862  owner() */\n      jump\t// in\n    tag_114:\n        /* \"@openzeppelin/contracts/access/Ownable.sol\":1855:1878  owner() != _msgSender() */\n      0xffffffffffffffffffffffffffffffffffffffff\n      and\n      eq\n        /* \"@openzeppelin/contracts/access/Ownable.sol\":1851:1952  if (owner() != _msgSender()) {... */\n      tag_115\n      jumpi\n        /* \"@openzeppelin/contracts/access/Ownable.sol\":1928:1940  _msgSender() */\n      tag_116\n        /* \"@openzeppelin/contracts/access/Ownable.sol\":1928:1938  _msgSender */\n      tag_113\n        /* \"@openzeppelin/contracts/access/Ownable.sol\":1928:1940  _msgSender() */\n      jump\t// in\n    tag_116:\n        /* \"@openzeppelin/contracts/access/Ownable.sol\":1901:1941  OwnableUnauthorizedAccount(_msgSender()) */\n      mload(0x40)\n      0x118cdaa700000000000000000000000000000000000000000000000000000000\n      dup2\n      mstore\n      0x04\n      add\n      tag_117\n      swap2\n      swap1\n      tag_34\n      jump\t// in\n    tag_117:\n      mload(0x40)\n      dup1\n      swap2\n      sub\n      swap1\n      revert\n        /* \"@openzeppelin/contracts/access/Ownable.sol\":1851:1952  if (owner() != _msgSender()) {... */\n    tag_115:\n        /* \"@openzeppelin/contracts/access/Ownable.sol\":1796:1958  function _checkOwner() internal view virtual {... */\n      jump\t// out\n        /* \"@openzeppelin/contracts/access/Ownable.sol\":2912:3099  function _transferOwnership(address newOwner) internal virtual {... */\n    tag_88:\n        /* \"@openzeppelin/contracts/access/Ownable.sol\":2985:3001  address oldOwner */\n      0x00\n        /* \"@openzeppelin/contracts/access/Ownable.sol\":3004:3010  _owner */\n      0x00\n      0x00\n      swap1\n      sload\n      swap1\n      0x0100\n      exp\n      swap1\n      div\n      0xffffffffffffffffffffffffffffffffffffffff\n      and\n        /* \"@openzeppelin/contracts/access/Ownable.sol\":2985:3010  address oldOwner = _owner */\n      swap1\n      pop\n        /* \"@openzeppelin/contracts/access/Ownable.sol\":3029:3037  newOwner */\n      dup2\n        /* \"@openzeppelin/contracts/access/Ownable.sol\":3020:3026  _owner */\n      0x00\n      0x00\n        /* \"@openzeppelin/contracts/access/Ownable.sol\":3020:3037  _owner = newOwner */\n      0x0100\n      exp\n      dup2\n      sload\n      dup2\n      0xffffffffffffffffffffffffffffffffffffffff\n      mul\n      not\n      and\n      swap1\n      dup4\n      0xffffffffffffffffffffffffffffffffffffffff\n      and\n      mul\n      or\n      swap1\n      sstore\n      pop\n        /* \"@openzeppelin/contracts/access/Ownable.sol\":3083:3091  newOwner */\n      dup2\n        /* \"@openzeppelin/contracts/access/Ownable.sol\":3052:3092  OwnershipTransferred(oldOwner, newOwner) */\n      0xffffffffffffffffffffffffffffffffffffffff\n      and\n        /* \"@openzeppelin/contracts/access/Ownable.sol\":3073:3081  oldOwner */\n      dup2\n        /* \"@openzeppelin/contracts/access/Ownable.sol\":3052:3092  OwnershipTransferred(oldOwner, newOwner) */\n      0xffffffffffffffffffffffffffffffffffffffff\n      and\n      0x8be0079c531659141344cd1fd0a4f28419497f9722a3daafe3b4186f6b6457e0\n      mload(0x40)\n      mload(0x40)\n      dup1\n      swap2\n      sub\n      swap1\n      log3\n        /* \"@openzeppelin/contracts/access/Ownable.sol\":2975:3099  {... */\n      pop\n        /* \"@openzeppelin/contracts/access/Ownable.sol\":2912:3099  function _transferOwnership(address newOwner) internal virtual {... */\n      pop\n      jump\t// out\n        /* \"homework02.sol\":1722:2578  function _updateRanking(address donor, uint256 amount) private {... */\n    tag_104:\n        /* \"homework02.sol\":1812:1823  _rankAmount */\n      0x07\n        /* \"homework02.sol\":1824:1825  2 */\n      0x02\n        /* \"homework02.sol\":1812:1826  _rankAmount[2] */\n      0x03\n      dup2\n      lt\n      tag_120\n      jumpi\n      tag_121\n      tag_54\n      jump\t// in\n    tag_121:\n    tag_120:\n      add\n      sload\n        /* \"homework02.sol\":1802:1808  amount */\n      dup2\n        /* \"homework02.sol\":1802:1826  amount <= _rankAmount[2] */\n      gt\n        /* \"homework02.sol\":1798:1907  if (amount <= _rankAmount[2]) {... */\n      iszero\n        /* \"homework02.sol\":1843:1850  return; */\n      tag_119\n        /* \"homework02.sol\":1798:1907  if (amount <= _rankAmount[2]) {... */\n      jumpi\n        /* \"homework02.sol\":1998:2018  int256 existingIndex */\n      0x00\n        /* \"homework02.sol\":2021:2023  -1 */\n      0xffffffffffffffffffffffffffffffffffffffffffffffffffffffffffffffff\n        /* \"homework02.sol\":1998:2023  int256 existingIndex = -1 */\n      swap1\n      pop\n        /* \"homework02.sol\":2039:2048  uint256 i */\n      0x00\n        /* \"homework02.sol\":2051:2052  0 */\n      0x00\n        /* \"homework02.sol\":2039:2052  uint256 i = 0 */\n      swap1\n      pop\n        /* \"homework02.sol\":2034:2199  for (uint256 i = 0; i < 3; i++) {... */\n    tag_124:\n        /* \"homework02.sol\":2058:2059  3 */\n      0x03\n        /* \"homework02.sol\":2054:2055  i */\n      dup2\n        /* \"homework02.sol\":2054:2059  i < 3 */\n      lt\n        /* \"homework02.sol\":2034:2199  for (uint256 i = 0; i < 3; i++) {... */\n      iszero\n      tag_125\n      jumpi\n        /* \"homework02.sol\":2097:2102  donor */\n      dup4\n        /* \"homework02.sol\":2085:2102  _rank[i] == donor */\n      0xffffffffffffffffffffffffffffffffffffffff\n      and\n        /* \"homework02.sol\":2085:2090  _rank */\n      0x04\n        /* \"homework02.sol\":2091:2092  i */\n      dup3\n        /* \"homework02.sol\":2085:2093  _rank[i] */\n      0x03\n      dup2\n      lt\n      tag_127\n      jumpi\n      tag_128\n      tag_54\n      jump\t// in\n    tag_128:\n    tag_127:\n      add\n      0x00\n      swap1\n      sload\n      swap1\n      0x0100\n      exp\n      swap1\n      div\n      0xffffffffffffffffffffffffffffffffffffffff\n      and\n        /* \"homework02.sol\":2085:2102  _rank[i] == donor */\n      0xffffffffffffffffffffffffffffffffffffffff\n      and\n      sub\n        /* \"homework02.sol\":2081:2188  if (_rank[i] == donor) {... */\n      tag_130\n      jumpi\n        /* \"homework02.sol\":2146:2147  i */\n      dup1\n        /* \"homework02.sol\":2123:2148  existingIndex = int256(i) */\n      swap2\n      pop\n        /* \"homework02.sol\":2167:2172  break */\n      jump(tag_125)\n        /* \"homework02.sol\":2081:2188  if (_rank[i] == donor) {... */\n    tag_130:\n        /* \"homework02.sol\":2061:2064  i++ */\n      dup1\n      dup1\n      0x01\n      add\n      swap2\n      pop\n      pop\n        /* \"homework02.sol\":2034:2199  for (uint256 i = 0; i < 3; i++) {... */\n      jump(tag_124)\n    tag_125:\n      pop\n        /* \"homework02.sol\":2232:2234  -1 */\n      0xffffffffffffffffffffffffffffffffffffffffffffffffffffffffffffffff\n        /* \"homework02.sol\":2215:2228  existingIndex */\n      dup2\n        /* \"homework02.sol\":2215:2234  existingIndex != -1 */\n      eq\n        /* \"homework02.sol\":2211:2547  if (existingIndex != -1) {... */\n      tag_131\n      jumpi\n        /* \"homework02.sol\":2364:2370  amount */\n      dup2\n        /* \"homework02.sol\":2326:2337  _rankAmount */\n      0x07\n        /* \"homework02.sol\":2346:2359  existingIndex */\n      dup3\n        /* \"homework02.sol\":2326:2361  _rankAmount[uint256(existingIndex)] */\n      0x03\n      dup2\n      lt\n      tag_132\n      jumpi\n      tag_133\n      tag_54\n      jump\t// in\n    tag_133:\n    tag_132:\n      add\n        /* \"homework02.sol\":2326:2370  _rankAmount[uint256(existingIndex)] = amount */\n      dup2\n      swap1\n      sstore\n      pop\n        /* \"homework02.sol\":2211:2547  if (existingIndex != -1) {... */\n      jump(tag_135)\n    tag_131:\n        /* \"homework02.sol\":2492:2497  donor */\n      dup3\n        /* \"homework02.sol\":2481:2486  _rank */\n      0x04\n        /* \"homework02.sol\":2487:2488  2 */\n      0x02\n        /* \"homework02.sol\":2481:2489  _rank[2] */\n      0x03\n      dup2\n      lt\n      tag_136\n      jumpi\n      tag_137\n      tag_54\n      jump\t// in\n    tag_137:\n    tag_136:\n      add\n      0x00\n        /* \"homework02.sol\":2481:2497  _rank[2] = donor */\n      0x0100\n      exp\n      dup2\n      sload\n      dup2\n      0xffffffffffffffffffffffffffffffffffffffff\n      mul\n      not\n      and\n      swap1\n      dup4\n      0xffffffffffffffffffffffffffffffffffffffff\n      and\n      mul\n      or\n      swap1\n      sstore\n      pop\n        /* \"homework02.sol\":2529:2535  amount */\n      dup2\n        /* \"homework02.sol\":2512:2523  _rankAmount */\n      0x07\n        /* \"homework02.sol\":2524:2525  2 */\n      0x02\n        /* \"homework02.sol\":2512:2526  _rankAmount[2] */\n      0x03\n      dup2\n      lt\n      tag_139\n      jumpi\n      tag_140\n      tag_54\n      jump\t// in\n    tag_140:\n    tag_139:\n      add\n        /* \"homework02.sol\":2512:2535  _rankAmount[2] = amount */\n      dup2\n      swap1\n      sstore\n      pop\n        /* \"homework02.sol\":2211:2547  if (existingIndex != -1) {... */\n    tag_135:\n        /* \"homework02.sol\":2559:2570  _sortTop3() */\n      tag_142\n        /* \"homework02.sol\":2559:2568  _sortTop3 */\n      tag_143\n        /* \"homework02.sol\":2559:2570  _sortTop3() */\n      jump\t// in\n    tag_142:\n        /* \"homework02.sol\":1785:2578  {... */\n      pop\n        /* \"homework02.sol\":1722:2578  function _updateRanking(address donor, uint256 amount) private {... */\n    tag_119:\n      pop\n      pop\n      jump\t// out\n        /* \"@openzeppelin/contracts/utils/Context.sol\":656:752  function _msgSender() internal view virtual returns (address) {... */\n    tag_113:\n        /* \"@openzeppelin/contracts/utils/Context.sol\":709:716  address */\n      0x00\n        /* \"@openzeppelin/contracts/utils/Context.sol\":735:745  msg.sender */\n      caller\n        /* \"@openzeppelin/contracts/utils/Context.sol\":728:745  return msg.sender */\n      swap1\n      pop\n        /* \"@openzeppelin/contracts/utils/Context.sol\":656:752  function _msgSender() internal view virtual returns (address) {... */\n      swap1\n      jump\t// out\n        /* \"homework02.sol\":2588:3074  function _sortTop3() private {... */\n    tag_143:\n        /* \"homework02.sol\":2635:2641  uint i */\n      0x00\n        /* \"homework02.sol\":2644:2645  0 */\n      0x00\n        /* \"homework02.sol\":2635:2645  uint i = 0 */\n      swap1\n      pop\n        /* \"homework02.sol\":2630:3067  for (uint i = 0; i < 2; i++) {... */\n    tag_146:\n        /* \"homework02.sol\":2651:2652  2 */\n      0x02\n        /* \"homework02.sol\":2647:2648  i */\n      dup2\n        /* \"homework02.sol\":2647:2652  i < 2 */\n      lt\n        /* \"homework02.sol\":2630:3067  for (uint i = 0; i < 2; i++) {... */\n      iszero\n      tag_147\n      jumpi\n        /* \"homework02.sol\":2679:2685  uint j */\n      0x00\n        /* \"homework02.sol\":2688:2689  0 */\n      0x00\n        /* \"homework02.sol\":2679:2689  uint j = 0 */\n      swap1\n      pop\n        /* \"homework02.sol\":2674:3056  for (uint j = 0; j < 2 - i; j++) {... */\n    tag_149:\n        /* \"homework02.sol\":2699:2700  i */\n      dup2\n        /* \"homework02.sol\":2695:2696  2 */\n      0x02\n        /* \"homework02.sol\":2695:2700  2 - i */\n      tag_152\n      swap2\n      swap1\n      tag_153\n      jump\t// in\n    tag_152:\n        /* \"homework02.sol\":2691:2692  j */\n      dup2\n        /* \"homework02.sol\":2691:2700  j < 2 - i */\n      lt\n        /* \"homework02.sol\":2674:3056  for (uint j = 0; j < 2 - i; j++) {... */\n      iszero\n      tag_150\n      jumpi\n        /* \"homework02.sol\":2747:2758  _rankAmount */\n      0x07\n        /* \"homework02.sol\":2763:2764  1 */\n      0x01\n        /* \"homework02.sol\":2759:2760  j */\n      dup3\n        /* \"homework02.sol\":2759:2764  j + 1 */\n      tag_154\n      swap2\n      swap1\n      tag_96\n      jump\t// in\n    tag_154:\n        /* \"homework02.sol\":2747:2765  _rankAmount[j + 1] */\n      0x03\n      dup2\n      lt\n      tag_155\n      jumpi\n      tag_156\n      tag_54\n      jump\t// in\n    tag_156:\n    tag_155:\n      add\n      sload\n        /* \"homework02.sol\":2730:2741  _rankAmount */\n      0x07\n        /* \"homework02.sol\":2742:2743  j */\n      dup3\n        /* \"homework02.sol\":2730:2744  _rankAmount[j] */\n      0x03\n      dup2\n      lt\n      tag_158\n      jumpi\n      tag_159\n      tag_54\n      jump\t// in\n    tag_159:\n    tag_158:\n      add\n      sload\n        /* \"homework02.sol\":2730:2765  _rankAmount[j] < _rankAmount[j + 1] */\n      lt\n        /* \"homework02.sol\":2726:3041  if (_rankAmount[j] < _rankAmount[j + 1]) {... */\n      iszero\n      tag_161\n      jumpi\n        /* \"homework02.sol\":2870:2881  _rankAmount */\n      0x07\n        /* \"homework02.sol\":2886:2887  1 */\n      0x01\n        /* \"homework02.sol\":2882:2883  j */\n      dup3\n        /* \"homework02.sol\":2882:2887  j + 1 */\n      tag_162\n      swap2\n      swap1\n      tag_96\n      jump\t// in\n    tag_162:\n        /* \"homework02.sol\":2870:2888  _rankAmount[j + 1] */\n      0x03\n      dup2\n      lt\n      tag_163\n      jumpi\n      tag_164\n      tag_54\n      jump\t// in\n    tag_164:\n    tag_163:\n      add\n      sload\n        /* \"homework02.sol\":2890:2901  _rankAmount */\n      0x07\n        /* \"homework02.sol\":2902:2903  j */\n      dup3\n        /* \"homework02.sol\":2890:2904  _rankAmount[j] */\n      0x03\n      dup2\n      lt\n      tag_166\n      jumpi\n      tag_167\n      tag_54\n      jump\t// in\n    tag_167:\n    tag_166:\n      add\n      sload\n        /* \"homework02.sol\":2829:2840  _rankAmount */\n      0x07\n        /* \"homework02.sol\":2841:2842  j */\n      dup4\n        /* \"homework02.sol\":2829:2843  _rankAmount[j] */\n      0x03\n      dup2\n      lt\n      tag_169\n      jumpi\n      tag_170\n      tag_54\n      jump\t// in\n    tag_170:\n    tag_169:\n      add\n      0x00\n        /* \"homework02.sol\":2845:2856  _rankAmount */\n      0x07\n        /* \"homework02.sol\":2861:2862  1 */\n      0x01\n        /* \"homework02.sol\":2857:2858  j */\n      dup7\n        /* \"homework02.sol\":2857:2862  j + 1 */\n      tag_172\n      swap2\n      swap1\n      tag_96\n      jump\t// in\n    tag_172:\n        /* \"homework02.sol\":2845:2863  _rankAmount[j + 1] */\n      0x03\n      dup2\n      lt\n      tag_173\n      jumpi\n      tag_174\n      tag_54\n      jump\t// in\n    tag_174:\n    tag_173:\n      add\n      0x00\n        /* \"homework02.sol\":2827:2906  ( _rankAmount[j], _rankAmount[j + 1] ) = ( _rankAmount[j + 1], _rankAmount[j] ) */\n      dup5\n      swap2\n      swap1\n      pop\n      sstore\n      dup4\n      swap2\n      swap1\n      pop\n      sstore\n      pop\n      pop\n        /* \"homework02.sol\":2997:3002  _rank */\n      0x04\n        /* \"homework02.sol\":3007:3008  1 */\n      0x01\n        /* \"homework02.sol\":3003:3004  j */\n      dup3\n        /* \"homework02.sol\":3003:3008  j + 1 */\n      tag_176\n      swap2\n      swap1\n      tag_96\n      jump\t// in\n    tag_176:\n        /* \"homework02.sol\":2997:3009  _rank[j + 1] */\n      0x03\n      dup2\n      lt\n      tag_177\n      jumpi\n      tag_178\n      tag_54\n      jump\t// in\n    tag_178:\n    tag_177:\n      add\n      0x00\n      swap1\n      sload\n      swap1\n      0x0100\n      exp\n      swap1\n      div\n      0xffffffffffffffffffffffffffffffffffffffff\n      and\n        /* \"homework02.sol\":3011:3016  _rank */\n      0x04\n        /* \"homework02.sol\":3017:3018  j */\n      dup3\n        /* \"homework02.sol\":3011:3019  _rank[j] */\n      0x03\n      dup2\n      lt\n      tag_180\n      jumpi\n      tag_181\n      tag_54\n      jump\t// in\n    tag_181:\n    tag_180:\n      add\n      0x00\n      swap1\n      sload\n      swap1\n      0x0100\n      exp\n      swap1\n      div\n      0xffffffffffffffffffffffffffffffffffffffff\n      and\n        /* \"homework02.sol\":2968:2973  _rank */\n      0x04\n        /* \"homework02.sol\":2974:2975  j */\n      dup4\n        /* \"homework02.sol\":2968:2976  _rank[j] */\n      0x03\n      dup2\n      lt\n      tag_183\n      jumpi\n      tag_184\n      tag_54\n      jump\t// in\n    tag_184:\n    tag_183:\n      add\n      0x00\n        /* \"homework02.sol\":2978:2983  _rank */\n      0x04\n        /* \"homework02.sol\":2988:2989  1 */\n      0x01\n        /* \"homework02.sol\":2984:2985  j */\n      dup7\n        /* \"homework02.sol\":2984:2989  j + 1 */\n      tag_186\n      swap2\n      swap1\n      tag_96\n      jump\t// in\n    tag_186:\n        /* \"homework02.sol\":2978:2990  _rank[j + 1] */\n      0x03\n      dup2\n      lt\n      tag_187\n      jumpi\n      tag_188\n      tag_54\n      jump\t// in\n    tag_188:\n    tag_187:\n      add\n      0x00\n        /* \"homework02.sol\":2966:3021  ( _rank[j], _rank[j + 1] ) = ( _rank[j + 1], _rank[j] ) */\n      dup5\n      swap2\n      swap1\n      0x0100\n      exp\n      dup2\n      sload\n      dup2\n      0xffffffffffffffffffffffffffffffffffffffff\n      mul\n      not\n      and\n      swap1\n      dup4\n      0xffffffffffffffffffffffffffffffffffffffff\n      and\n      mul\n      or\n      swap1\n      sstore\n      pop\n      dup4\n      swap2\n      swap1\n      0x0100\n      exp\n      dup2\n      sload\n      dup2\n      0xffffffffffffffffffffffffffffffffffffffff\n      mul\n      not\n      and\n      swap1\n      dup4\n      0xffffffffffffffffffffffffffffffffffffffff\n      and\n      mul\n      or\n      swap1\n      sstore\n      pop\n      pop\n      pop\n        /* \"homework02.sol\":2726:3041  if (_rankAmount[j] < _rankAmount[j + 1]) {... */\n    tag_161:\n        /* \"homework02.sol\":2702:2705  j++ */\n      dup1\n      dup1\n      0x01\n      add\n      swap2\n      pop\n      pop\n        /* \"homework02.sol\":2674:3056  for (uint j = 0; j < 2 - i; j++) {... */\n      jump(tag_149)\n    tag_150:\n      pop\n        /* \"homework02.sol\":2654:2657  i++ */\n      dup1\n      dup1\n      0x01\n      add\n      swap2\n      pop\n      pop\n        /* \"homework02.sol\":2630:3067  for (uint i = 0; i < 2; i++) {... */\n      jump(tag_146)\n    tag_147:\n      pop\n        /* \"homework02.sol\":2588:3074  function _sortTop3() private {... */\n      jump\t// out\n        /* \"#utility.yul\":7:133   */\n    tag_190:\n        /* \"#utility.yul\":44:51   */\n      0x00\n        /* \"#utility.yul\":84:126   */\n      0xffffffffffffffffffffffffffffffffffffffff\n        /* \"#utility.yul\":77:82   */\n      dup3\n        /* \"#utility.yul\":73:127   */\n      and\n        /* \"#utility.yul\":62:127   */\n      swap1\n      pop\n        /* \"#utility.yul\":7:133   */\n      swap2\n      swap1\n      pop\n      jump\t// out\n        /* \"#utility.yul\":139:235   */\n    tag_191:\n        /* \"#utility.yul\":176:183   */\n      0x00\n        /* \"#utility.yul\":205:229   */\n      tag_209\n        /* \"#utility.yul\":223:228   */\n      dup3\n        /* \"#utility.yul\":205:229   */\n      tag_190\n      jump\t// in\n    tag_209:\n        /* \"#utility.yul\":194:229   */\n      swap1\n      pop\n        /* \"#utility.yul\":139:235   */\n      swap2\n      swap1\n      pop\n      jump\t// out\n        /* \"#utility.yul\":241:359   */\n    tag_192:\n        /* \"#utility.yul\":328:352   */\n      tag_211\n        /* \"#utility.yul\":346:351   */\n      dup2\n        /* \"#utility.yul\":328:352   */\n      tag_191\n      jump\t// in\n    tag_211:\n        /* \"#utility.yul\":323:326   */\n      dup3\n        /* \"#utility.yul\":316:353   */\n      mstore\n        /* \"#utility.yul\":241:359   */\n      pop\n      pop\n      jump\t// out\n        /* \"#utility.yul\":365:442   */\n    tag_193:\n        /* \"#utility.yul\":402:409   */\n      0x00\n        /* \"#utility.yul\":431:436   */\n      dup2\n        /* \"#utility.yul\":420:436   */\n      swap1\n      pop\n        /* \"#utility.yul\":365:442   */\n      swap2\n      swap1\n      pop\n      jump\t// out\n        /* \"#utility.yul\":448:566   */\n    tag_194:\n        /* \"#utility.yul\":535:559   */\n      tag_214\n        /* \"#utility.yul\":553:558   */\n      dup2\n        /* \"#utility.yul\":535:559   */\n      tag_193\n      jump\t// in\n    tag_214:\n        /* \"#utility.yul\":530:533   */\n      dup3\n        /* \"#utility.yul\":523:560   */\n      mstore\n        /* \"#utility.yul\":448:566   */\n      pop\n      pop\n      jump\t// out\n        /* \"#utility.yul\":572:1347   */\n    tag_16:\n        /* \"#utility.yul\":805:809   */\n      0x00\n        /* \"#utility.yul\":843:846   */\n      0xc0\n        /* \"#utility.yul\":832:841   */\n      dup3\n        /* \"#utility.yul\":828:847   */\n      add\n        /* \"#utility.yul\":820:847   */\n      swap1\n      pop\n        /* \"#utility.yul\":857:928   */\n      tag_216\n        /* \"#utility.yul\":925:926   */\n      0x00\n        /* \"#utility.yul\":914:923   */\n      dup4\n        /* \"#utility.yul\":910:927   */\n      add\n        /* \"#utility.yul\":901:907   */\n      dup10\n        /* \"#utility.yul\":857:928   */\n      tag_192\n      jump\t// in\n    tag_216:\n        /* \"#utility.yul\":938:1010   */\n      tag_217\n        /* \"#utility.yul\":1006:1008   */\n      0x20\n        /* \"#utility.yul\":995:1004   */\n      dup4\n        /* \"#utility.yul\":991:1009   */\n      add\n        /* \"#utility.yul\":982:988   */\n      dup9\n        /* \"#utility.yul\":938:1010   */\n      tag_194\n      jump\t// in\n    tag_217:\n        /* \"#utility.yul\":1020:1092   */\n      tag_218\n        /* \"#utility.yul\":1088:1090   */\n      0x40\n        /* \"#utility.yul\":1077:1086   */\n      dup4\n        /* \"#utility.yul\":1073:1091   */\n      add\n        /* \"#utility.yul\":1064:1070   */\n      dup8\n        /* \"#utility.yul\":1020:1092   */\n      tag_192\n      jump\t// in\n    tag_218:\n        /* \"#utility.yul\":1102:1174   */\n      tag_219\n        /* \"#utility.yul\":1170:1172   */\n      0x60\n        /* \"#utility.yul\":1159:1168   */\n      dup4\n        /* \"#utility.yul\":1155:1173   */\n      add\n        /* \"#utility.yul\":1146:1152   */\n      dup7\n        /* \"#utility.yul\":1102:1174   */\n      tag_194\n      jump\t// in\n    tag_219:\n        /* \"#utility.yul\":1184:1257   */\n      tag_220\n        /* \"#utility.yul\":1252:1255   */\n      0x80\n        /* \"#utility.yul\":1241:1250   */\n      dup4\n        /* \"#utility.yul\":1237:1256   */\n      add\n        /* \"#utility.yul\":1228:1234   */\n      dup6\n        /* \"#utility.yul\":1184:1257   */\n      tag_192\n      jump\t// in\n    tag_220:\n        /* \"#utility.yul\":1267:1340   */\n      tag_221\n        /* \"#utility.yul\":1335:1338   */\n      0xa0\n        /* \"#utility.yul\":1324:1333   */\n      dup4\n        /* \"#utility.yul\":1320:1339   */\n      add\n        /* \"#utility.yul\":1311:1317   */\n      dup5\n        /* \"#utility.yul\":1267:1340   */\n      tag_194\n      jump\t// in\n    tag_221:\n        /* \"#utility.yul\":572:1347   */\n      swap8\n      swap7\n      pop\n      pop\n      pop\n      pop\n      pop\n      pop\n      pop\n      jump\t// out\n        /* \"#utility.yul\":1434:1551   */\n    tag_196:\n        /* \"#utility.yul\":1543:1544   */\n      0x00\n        /* \"#utility.yul\":1540:1541   */\n      0x00\n        /* \"#utility.yul\":1533:1545   */\n      revert\n        /* \"#utility.yul\":1680:1802   */\n    tag_198:\n        /* \"#utility.yul\":1753:1777   */\n      tag_226\n        /* \"#utility.yul\":1771:1776   */\n      dup2\n        /* \"#utility.yul\":1753:1777   */\n      tag_191\n      jump\t// in\n    tag_226:\n        /* \"#utility.yul\":1746:1751   */\n      dup2\n        /* \"#utility.yul\":1743:1778   */\n      eq\n        /* \"#utility.yul\":1733:1796   */\n      tag_227\n      jumpi\n        /* \"#utility.yul\":1792:1793   */\n      0x00\n        /* \"#utility.yul\":1789:1790   */\n      0x00\n        /* \"#utility.yul\":1782:1794   */\n      revert\n        /* \"#utility.yul\":1733:1796   */\n    tag_227:\n        /* \"#utility.yul\":1680:1802   */\n      pop\n      jump\t// out\n        /* \"#utility.yul\":1808:1947   */\n    tag_199:\n        /* \"#utility.yul\":1854:1859   */\n      0x00\n        /* \"#utility.yul\":1892:1898   */\n      dup2\n        /* \"#utility.yul\":1879:1899   */\n      calldataload\n        /* \"#utility.yul\":1870:1899   */\n      swap1\n      pop\n        /* \"#utility.yul\":1908:1941   */\n      tag_229\n        /* \"#utility.yul\":1935:1940   */\n      dup2\n        /* \"#utility.yul\":1908:1941   */\n      tag_198\n      jump\t// in\n    tag_229:\n        /* \"#utility.yul\":1808:1947   */\n      swap3\n      swap2\n      pop\n      pop\n      jump\t// out\n        /* \"#utility.yul\":1953:2282   */\n    tag_23:\n        /* \"#utility.yul\":2012:2018   */\n      0x00\n        /* \"#utility.yul\":2061:2063   */\n      0x20\n        /* \"#utility.yul\":2049:2058   */\n      dup3\n        /* \"#utility.yul\":2040:2047   */\n      dup5\n        /* \"#utility.yul\":2036:2059   */\n      sub\n        /* \"#utility.yul\":2032:2064   */\n      slt\n        /* \"#utility.yul\":2029:2148   */\n      iszero\n      tag_231\n      jumpi\n        /* \"#utility.yul\":2067:2146   */\n      tag_232\n      tag_196\n      jump\t// in\n    tag_232:\n        /* \"#utility.yul\":2029:2148   */\n    tag_231:\n        /* \"#utility.yul\":2187:2188   */\n      0x00\n        /* \"#utility.yul\":2212:2265   */\n      tag_233\n        /* \"#utility.yul\":2257:2264   */\n      dup5\n        /* \"#utility.yul\":2248:2254   */\n      dup3\n        /* \"#utility.yul\":2237:2246   */\n      dup6\n        /* \"#utility.yul\":2233:2255   */\n      add\n        /* \"#utility.yul\":2212:2265   */\n      tag_199\n      jump\t// in\n    tag_233:\n        /* \"#utility.yul\":2202:2265   */\n      swap2\n      pop\n        /* \"#utility.yul\":2158:2275   */\n      pop\n        /* \"#utility.yul\":1953:2282   */\n      swap3\n      swap2\n      pop\n      pop\n      jump\t// out\n        /* \"#utility.yul\":2288:2510   */\n    tag_26:\n        /* \"#utility.yul\":2381:2385   */\n      0x00\n        /* \"#utility.yul\":2419:2421   */\n      0x20\n        /* \"#utility.yul\":2408:2417   */\n      dup3\n        /* \"#utility.yul\":2404:2422   */\n      add\n        /* \"#utility.yul\":2396:2422   */\n      swap1\n      pop\n        /* \"#utility.yul\":2432:2503   */\n      tag_235\n        /* \"#utility.yul\":2500:2501   */\n      0x00\n        /* \"#utility.yul\":2489:2498   */\n      dup4\n        /* \"#utility.yul\":2485:2502   */\n      add\n        /* \"#utility.yul\":2476:2482   */\n      dup5\n        /* \"#utility.yul\":2432:2503   */\n      tag_194\n      jump\t// in\n    tag_235:\n        /* \"#utility.yul\":2288:2510   */\n      swap3\n      swap2\n      pop\n      pop\n      jump\t// out\n        /* \"#utility.yul\":2516:2738   */\n    tag_34:\n        /* \"#utility.yul\":2609:2613   */\n      0x00\n        /* \"#utility.yul\":2647:2649   */\n      0x20\n        /* \"#utility.yul\":2636:2645   */\n      dup3\n        /* \"#utility.yul\":2632:2650   */\n      add\n        /* \"#utility.yul\":2624:2650   */\n      swap1\n      pop\n        /* \"#utility.yul\":2660:2731   */\n      tag_237\n        /* \"#utility.yul\":2728:2729   */\n      0x00\n        /* \"#utility.yul\":2717:2726   */\n      dup4\n        /* \"#utility.yul\":2713:2730   */\n      add\n        /* \"#utility.yul\":2704:2710   */\n      dup5\n        /* \"#utility.yul\":2660:2731   */\n      tag_192\n      jump\t// in\n    tag_237:\n        /* \"#utility.yul\":2516:2738   */\n      swap3\n      swap2\n      pop\n      pop\n      jump\t// out\n        /* \"#utility.yul\":2744:2866   */\n    tag_200:\n        /* \"#utility.yul\":2817:2841   */\n      tag_239\n        /* \"#utility.yul\":2835:2840   */\n      dup2\n        /* \"#utility.yul\":2817:2841   */\n      tag_193\n      jump\t// in\n    tag_239:\n        /* \"#utility.yul\":2810:2815   */\n      dup2\n        /* \"#utility.yul\":2807:2842   */\n      eq\n        /* \"#utility.yul\":2797:2860   */\n      tag_240\n      jumpi\n        /* \"#utility.yul\":2856:2857   */\n      0x00\n        /* \"#utility.yul\":2853:2854   */\n      0x00\n        /* \"#utility.yul\":2846:2858   */\n      revert\n        /* \"#utility.yul\":2797:2860   */\n    tag_240:\n        /* \"#utility.yul\":2744:2866   */\n      pop\n      jump\t// out\n        /* \"#utility.yul\":2872:3011   */\n    tag_201:\n        /* \"#utility.yul\":2918:2923   */\n      0x00\n        /* \"#utility.yul\":2956:2962   */\n      dup2\n        /* \"#utility.yul\":2943:2963   */\n      calldataload\n        /* \"#utility.yul\":2934:2963   */\n      swap1\n      pop\n        /* \"#utility.yul\":2972:3005   */\n      tag_242\n        /* \"#utility.yul\":2999:3004   */\n      dup2\n        /* \"#utility.yul\":2972:3005   */\n      tag_200\n      jump\t// in\n    tag_242:\n        /* \"#utility.yul\":2872:3011   */\n      swap3\n      swap2\n      pop\n      pop\n      jump\t// out\n        /* \"#utility.yul\":3017:3346   */\n    tag_38:\n        /* \"#utility.yul\":3076:3082   */\n      0x00\n        /* \"#utility.yul\":3125:3127   */\n      0x20\n        /* \"#utility.yul\":3113:3122   */\n      dup3\n        /* \"#utility.yul\":3104:3111   */\n      dup5\n        /* \"#utility.yul\":3100:3123   */\n      sub\n        /* \"#utility.yul\":3096:3128   */\n      slt\n        /* \"#utility.yul\":3093:3212   */\n      iszero\n      tag_244\n      jumpi\n        /* \"#utility.yul\":3131:3210   */\n      tag_245\n      tag_196\n      jump\t// in\n    tag_245:\n        /* \"#utility.yul\":3093:3212   */\n    tag_244:\n        /* \"#utility.yul\":3251:3252   */\n      0x00\n        /* \"#utility.yul\":3276:3329   */\n      tag_246\n        /* \"#utility.yul\":3321:3328   */\n      dup5\n        /* \"#utility.yul\":3312:3318   */\n      dup3\n        /* \"#utility.yul\":3301:3310   */\n      dup6\n        /* \"#utility.yul\":3297:3319   */\n      add\n        /* \"#utility.yul\":3276:3329   */\n      tag_201\n      jump\t// in\n    tag_246:\n        /* \"#utility.yul\":3266:3329   */\n      swap2\n      pop\n        /* \"#utility.yul\":3222:3339   */\n      pop\n        /* \"#utility.yul\":3017:3346   */\n      swap3\n      swap2\n      pop\n      pop\n      jump\t// out\n        /* \"#utility.yul\":3352:3532   */\n    tag_54:\n        /* \"#utility.yul\":3400:3477   */\n      0x4e487b7100000000000000000000000000000000000000000000000000000000\n        /* \"#utility.yul\":3397:3398   */\n      0x00\n        /* \"#utility.yul\":3390:3478   */\n      mstore\n        /* \"#utility.yul\":3497:3501   */\n      0x32\n        /* \"#utility.yul\":3494:3495   */\n      0x04\n        /* \"#utility.yul\":3487:3502   */\n      mstore\n        /* \"#utility.yul\":3521:3525   */\n      0x24\n        /* \"#utility.yul\":3518:3519   */\n      0x00\n        /* \"#utility.yul\":3511:3526   */\n      revert\n        /* \"#utility.yul\":3538:3685   */\n    tag_202:\n        /* \"#utility.yul\":3639:3650   */\n      0x00\n        /* \"#utility.yul\":3676:3679   */\n      dup2\n        /* \"#utility.yul\":3661:3679   */\n      swap1\n      pop\n        /* \"#utility.yul\":3538:3685   */\n      swap3\n      swap2\n      pop\n      pop\n      jump\t// out\n        /* \"#utility.yul\":3691:3805   */\n    tag_203:\n      pop\n      jump\t// out\n        /* \"#utility.yul\":3811:4209   */\n    tag_204:\n        /* \"#utility.yul\":3970:3973   */\n      0x00\n        /* \"#utility.yul\":3991:4074   */\n      tag_251\n        /* \"#utility.yul\":4072:4073   */\n      0x00\n        /* \"#utility.yul\":4067:4070   */\n      dup4\n        /* \"#utility.yul\":3991:4074   */\n      tag_202\n      jump\t// in\n    tag_251:\n        /* \"#utility.yul\":3984:4074   */\n      swap2\n      pop\n        /* \"#utility.yul\":4083:4176   */\n      tag_252\n        /* \"#utility.yul\":4172:4175   */\n      dup3\n        /* \"#utility.yul\":4083:4176   */\n      tag_203\n      jump\t// in\n    tag_252:\n        /* \"#utility.yul\":4201:4202   */\n      0x00\n        /* \"#utility.yul\":4196:4199   */\n      dup3\n        /* \"#utility.yul\":4192:4203   */\n      add\n        /* \"#utility.yul\":4185:4203   */\n      swap1\n      pop\n        /* \"#utility.yul\":3811:4209   */\n      swap2\n      swap1\n      pop\n      jump\t// out\n        /* \"#utility.yul\":4215:4594   */\n    tag_78:\n        /* \"#utility.yul\":4399:4402   */\n      0x00\n        /* \"#utility.yul\":4421:4568   */\n      tag_254\n        /* \"#utility.yul\":4564:4567   */\n      dup3\n        /* \"#utility.yul\":4421:4568   */\n      tag_204\n      jump\t// in\n    tag_254:\n        /* \"#utility.yul\":4414:4568   */\n      swap2\n      pop\n        /* \"#utility.yul\":4585:4588   */\n      dup2\n        /* \"#utility.yul\":4578:4588   */\n      swap1\n      pop\n        /* \"#utility.yul\":4215:4594   */\n      swap2\n      swap1\n      pop\n      jump\t// out\n        /* \"#utility.yul\":4600:4780   */\n    tag_205:\n        /* \"#utility.yul\":4648:4725   */\n      0x4e487b7100000000000000000000000000000000000000000000000000000000\n        /* \"#utility.yul\":4645:4646   */\n      0x00\n        /* \"#utility.yul\":4638:4726   */\n      mstore\n        /* \"#utility.yul\":4745:4749   */\n      0x11\n        /* \"#utility.yul\":4742:4743   */\n      0x04\n        /* \"#utility.yul\":4735:4750   */\n      mstore\n        /* \"#utility.yul\":4769:4773   */\n      0x24\n        /* \"#utility.yul\":4766:4767   */\n      0x00\n        /* \"#utility.yul\":4759:4774   */\n      revert\n        /* \"#utility.yul\":4786:4977   */\n    tag_96:\n        /* \"#utility.yul\":4826:4829   */\n      0x00\n        /* \"#utility.yul\":4845:4865   */\n      tag_257\n        /* \"#utility.yul\":4863:4864   */\n      dup3\n        /* \"#utility.yul\":4845:4865   */\n      tag_193\n      jump\t// in\n    tag_257:\n        /* \"#utility.yul\":4840:4865   */\n      swap2\n      pop\n        /* \"#utility.yul\":4879:4899   */\n      tag_258\n        /* \"#utility.yul\":4897:4898   */\n      dup4\n        /* \"#utility.yul\":4879:4899   */\n      tag_193\n      jump\t// in\n    tag_258:\n        /* \"#utility.yul\":4874:4899   */\n      swap3\n      pop\n        /* \"#utility.yul\":4922:4923   */\n      dup3\n        /* \"#utility.yul\":4919:4920   */\n      dup3\n        /* \"#utility.yul\":4915:4924   */\n      add\n        /* \"#utility.yul\":4908:4924   */\n      swap1\n      pop\n        /* \"#utility.yul\":4943:4946   */\n      dup1\n        /* \"#utility.yul\":4940:4941   */\n      dup3\n        /* \"#utility.yul\":4937:4947   */\n      gt\n        /* \"#utility.yul\":4934:4970   */\n      iszero\n      tag_259\n      jumpi\n        /* \"#utility.yul\":4950:4968   */\n      tag_260\n      tag_205\n      jump\t// in\n    tag_260:\n        /* \"#utility.yul\":4934:4970   */\n    tag_259:\n        /* \"#utility.yul\":4786:4977   */\n      swap3\n      swap2\n      pop\n      pop\n      jump\t// out\n        /* \"#utility.yul\":4983:5315   */\n    tag_102:\n        /* \"#utility.yul\":5104:5108   */\n      0x00\n        /* \"#utility.yul\":5142:5144   */\n      0x40\n        /* \"#utility.yul\":5131:5140   */\n      dup3\n        /* \"#utility.yul\":5127:5145   */\n      add\n        /* \"#utility.yul\":5119:5145   */\n      swap1\n      pop\n        /* \"#utility.yul\":5155:5226   */\n      tag_262\n        /* \"#utility.yul\":5223:5224   */\n      0x00\n        /* \"#utility.yul\":5212:5221   */\n      dup4\n        /* \"#utility.yul\":5208:5225   */\n      add\n        /* \"#utility.yul\":5199:5205   */\n      dup6\n        /* \"#utility.yul\":5155:5226   */\n      tag_192\n      jump\t// in\n    tag_262:\n        /* \"#utility.yul\":5236:5308   */\n      tag_263\n        /* \"#utility.yul\":5304:5306   */\n      0x20\n        /* \"#utility.yul\":5293:5302   */\n      dup4\n        /* \"#utility.yul\":5289:5307   */\n      add\n        /* \"#utility.yul\":5280:5286   */\n      dup5\n        /* \"#utility.yul\":5236:5308   */\n      tag_194\n      jump\t// in\n    tag_263:\n        /* \"#utility.yul\":4983:5315   */\n      swap4\n      swap3\n      pop\n      pop\n      pop\n      jump\t// out\n        /* \"#utility.yul\":5321:5515   */\n    tag_153:\n        /* \"#utility.yul\":5361:5365   */\n      0x00\n        /* \"#utility.yul\":5381:5401   */\n      tag_265\n        /* \"#utility.yul\":5399:5400   */\n      dup3\n        /* \"#utility.yul\":5381:5401   */\n      tag_193\n      jump\t// in\n    tag_265:\n        /* \"#utility.yul\":5376:5401   */\n      swap2\n      pop\n        /* \"#utility.yul\":5415:5435   */\n      tag_266\n        /* \"#utility.yul\":5433:5434   */\n      dup4\n        /* \"#utility.yul\":5415:5435   */\n      tag_193\n      jump\t// in\n    tag_266:\n        /* \"#utility.yul\":5410:5435   */\n      swap3\n      pop\n        /* \"#utility.yul\":5459:5460   */\n      dup3\n        /* \"#utility.yul\":5456:5457   */\n      dup3\n        /* \"#utility.yul\":5452:5461   */\n      sub\n        /* \"#utility.yul\":5444:5461   */\n      swap1\n      pop\n        /* \"#utility.yul\":5483:5484   */\n      dup2\n        /* \"#utility.yul\":5477:5481   */\n      dup2\n        /* \"#utility.yul\":5474:5485   */\n      gt\n        /* \"#utility.yul\":5471:5508   */\n      iszero\n      tag_267\n      jumpi\n        /* \"#utility.yul\":5488:5506   */\n      tag_268\n      tag_205\n      jump\t// in\n    tag_268:\n        /* \"#utility.yul\":5471:5508   */\n    tag_267:\n        /* \"#utility.yul\":5321:5515   */\n      swap3\n      swap2\n      pop\n      pop\n      jump\t// out\n\n    auxdata: 0xa2646970667358221220e82e8cf91aba4b1957d209aa1e401dfa695fdb24fba2a871ef883c525c0a42e364736f6c63430008220033\n}\n",
				"bytecode": {
					"linkReferences": {},
					"object": "60a060405234801561000f575f5ffd5b506040516111da3803806111da833981810160405281019061003191906101ed565b805f73ffffffffffffffffffffffffffffffffffffffff168173ffffffffffffffffffffffffffffffffffffffff16036100a2575f6040517f1e4fbdf70000000000000000000000000000000000000000000000000000000081526004016100999190610227565b60405180910390fd5b6100b1816100ce60201b60201c565b5062015180426100c19190610276565b60808181525050506102a9565b5f5f5f9054906101000a900473ffffffffffffffffffffffffffffffffffffffff169050815f5f6101000a81548173ffffffffffffffffffffffffffffffffffffffff021916908373ffffffffffffffffffffffffffffffffffffffff1602179055508173ffffffffffffffffffffffffffffffffffffffff168173ffffffffffffffffffffffffffffffffffffffff167f8be0079c531659141344cd1fd0a4f28419497f9722a3daafe3b4186f6b6457e060405160405180910390a35050565b5f5ffd5b5f73ffffffffffffffffffffffffffffffffffffffff82169050919050565b5f6101bc82610193565b9050919050565b6101cc816101b2565b81146101d6575f5ffd5b50565b5f815190506101e7816101c3565b92915050565b5f602082840312156102025761020161018f565b5b5f61020f848285016101d9565b91505092915050565b610221816101b2565b82525050565b5f60208201905061023a5f830184610218565b92915050565b5f819050919050565b7f4e487b71000000000000000000000000000000000000000000000000000000005f52601160045260245ffd5b5f61028082610240565b915061028b83610240565b92508282019050808211156102a3576102a2610249565b5b92915050565b608051610f196102c15f395f61049e0152610f195ff3fe608060405260043610610085575f3560e01c80638da5cb5b116100585780638da5cb5b14610120578063ac62f5661461014a578063dfeb302214610186578063ed88c68e146101b0578063f2fde38b146101ba57610085565b80632d1e2518146100895780633ccfd60b146100b8578063410a1d32146100ce578063715018a61461010a575b5f5ffd5b348015610094575f5ffd5b5061009d6101e2565b6040516100af96959493929190610c7c565b60405180910390f35b3480156100c3575f5ffd5b506100cc6102e1565b005b3480156100d9575f5ffd5b506100f460048036038101906100ef9190610d09565b6103db565b6040516101019190610d34565b60405180910390f35b348015610115575f5ffd5b5061011e610421565b005b34801561012b575f5ffd5b50610134610434565b6040516101419190610d4d565b60405180910390f35b348015610155575f5ffd5b50610170600480360381019061016b9190610d90565b61045b565b60405161017d9190610d4d565b60405180910390f35b348015610191575f5ffd5b5061019a610496565b6040516101a79190610d34565b60405180910390f35b6101b861049c565b005b3480156101c5575f5ffd5b506101e060048036038101906101db9190610d09565b610693565b005b5f5f5f5f5f5f60045f600381106101fc576101fb610dbb565b5b015f9054906101000a900473ffffffffffffffffffffffffffffffffffffffff1660075f6003811061023157610230610dbb565b5b0154600460016003811061024857610247610dbb565b5b015f9054906101000a900473ffffffffffffffffffffffffffffffffffffffff16600760016003811061027e5761027d610dbb565b5b0154600460026003811061029557610294610dbb565b5b015f9054906101000a900473ffffffffffffffffffffffffffffffffffffffff1660076002600381106102cb576102ca610dbb565b5b0154955095509550955095509550909192939495565b6102e9610717565b5f60035403610324576040517f469ea76800000000000000000000000000000000000000000000000000000000815260040160405180910390fd5b5f60035490505f6003819055505f61033a610434565b73ffffffffffffffffffffffffffffffffffffffff168260405161035d90610e15565b5f6040518083038185875af1925050503d805f8114610397576040519150601f19603f3d011682016040523d82523d5f602084013e61039c565b606091505b50509050806103d7576040517f750b219c00000000000000000000000000000000000000000000000000000000815260040160405180910390fd5b5050565b5f60015f8373ffffffffffffffffffffffffffffffffffffffff1673ffffffffffffffffffffffffffffffffffffffff1681526020019081526020015f20549050919050565b610429610717565b6104325f61079e565b565b5f5f5f9054906101000a900473ffffffffffffffffffffffffffffffffffffffff16905090565b6002818154811061046a575f80fd5b905f5260205f20015f915054906101000a900473ffffffffffffffffffffffffffffffffffffffff1681565b60035481565b7f000000000000000000000000000000000000000000000000000000000000000042106104f5576040517fc8caf0c200000000000000000000000000000000000000000000000000000000815260040160405180910390fd5b5f341161052e576040517f469ea76800000000000000000000000000000000000000000000000000000000815260040160405180910390fd5b5f3460015f3373ffffffffffffffffffffffffffffffffffffffff1673ffffffffffffffffffffffffffffffffffffffff1681526020019081526020015f20546105789190610e56565b90503460015f3373ffffffffffffffffffffffffffffffffffffffff1673ffffffffffffffffffffffffffffffffffffffff1681526020019081526020015f205f8282546105c69190610e56565b9250508190555034810361063557600233908060018154018082558091505060019003905f5260205f20015f9091909190916101000a81548173ffffffffffffffffffffffffffffffffffffffff021916908373ffffffffffffffffffffffffffffffffffffffff1602179055505b3460035f8282546106469190610e56565b925050819055507f0553260a2e46b0577270d8992db02d30856ca880144c72d6e9503760946aef13333460405161067e929190610e89565b60405180910390a1610690338261085f565b50565b61069b610717565b5f73ffffffffffffffffffffffffffffffffffffffff168173ffffffffffffffffffffffffffffffffffffffff160361070b575f6040517f1e4fbdf70000000000000000000000000000000000000000000000000000000081526004016107029190610d4d565b60405180910390fd5b6107148161079e565b50565b61071f6109f0565b73ffffffffffffffffffffffffffffffffffffffff1661073d610434565b73ffffffffffffffffffffffffffffffffffffffff161461079c576107606109f0565b6040517f118cdaa70000000000000000000000000000000000000000000000000000000081526004016107939190610d4d565b60405180910390fd5b565b5f5f5f9054906101000a900473ffffffffffffffffffffffffffffffffffffffff169050815f5f6101000a81548173ffffffffffffffffffffffffffffffffffffffff021916908373ffffffffffffffffffffffffffffffffffffffff1602179055508173ffffffffffffffffffffffffffffffffffffffff168173ffffffffffffffffffffffffffffffffffffffff167f8be0079c531659141344cd1fd0a4f28419497f9722a3daafe3b4186f6b6457e060405160405180910390a35050565b600760026003811061087457610873610dbb565b5b01548111156109ec575f7fffffffffffffffffffffffffffffffffffffffffffffffffffffffffffffffff90505f5f90505b600381101561092b578373ffffffffffffffffffffffffffffffffffffffff16600482600381106108da576108d9610dbb565b5b015f9054906101000a900473ffffffffffffffffffffffffffffffffffffffff1673ffffffffffffffffffffffffffffffffffffffff160361091e5780915061092b565b80806001019150506108a6565b507fffffffffffffffffffffffffffffffffffffffffffffffffffffffffffffffff811461097257816007826003811061096857610967610dbb565b5b01819055506109e2565b82600460026003811061098857610987610dbb565b5b015f6101000a81548173ffffffffffffffffffffffffffffffffffffffff021916908373ffffffffffffffffffffffffffffffffffffffff1602179055508160076002600381106109dc576109db610dbb565b5b01819055505b6109ea6109f7565b505b5050565b5f33905090565b5f5f90505b6002811015610c22575f5f90505b816002610a179190610eb0565b811015610c14576007600182610a2d9190610e56565b60038110610a3e57610a3d610dbb565b5b015460078260038110610a5457610a53610dbb565b5b01541015610c07576007600182610a6b9190610e56565b60038110610a7c57610a7b610dbb565b5b015460078260038110610a9257610a91610dbb565b5b015460078360038110610aa857610aa7610dbb565b5b015f6007600186610ab99190610e56565b60038110610aca57610ac9610dbb565b5b015f8491905055839190505550506004600182610ae79190610e56565b60038110610af857610af7610dbb565b5b015f9054906101000a900473ffffffffffffffffffffffffffffffffffffffff1660048260038110610b2d57610b2c610dbb565b5b015f9054906101000a900473ffffffffffffffffffffffffffffffffffffffff1660048360038110610b6257610b61610dbb565b5b015f6004600186610b739190610e56565b60038110610b8457610b83610dbb565b5b015f8491906101000a81548173ffffffffffffffffffffffffffffffffffffffff021916908373ffffffffffffffffffffffffffffffffffffffff1602179055508391906101000a81548173ffffffffffffffffffffffffffffffffffffffff021916908373ffffffffffffffffffffffffffffffffffffffff16021790555050505b8080600101915050610a0a565b5080806001019150506109fc565b50565b5f73ffffffffffffffffffffffffffffffffffffffff82169050919050565b5f610c4e82610c25565b9050919050565b610c5e81610c44565b82525050565b5f819050919050565b610c7681610c64565b82525050565b5f60c082019050610c8f5f830189610c55565b610c9c6020830188610c6d565b610ca96040830187610c55565b610cb66060830186610c6d565b610cc36080830185610c55565b610cd060a0830184610c6d565b979650505050505050565b5f5ffd5b610ce881610c44565b8114610cf2575f5ffd5b50565b5f81359050610d0381610cdf565b92915050565b5f60208284031215610d1e57610d1d610cdb565b5b5f610d2b84828501610cf5565b91505092915050565b5f602082019050610d475f830184610c6d565b92915050565b5f602082019050610d605f830184610c55565b92915050565b610d6f81610c64565b8114610d79575f5ffd5b50565b5f81359050610d8a81610d66565b92915050565b5f60208284031215610da557610da4610cdb565b5b5f610db284828501610d7c565b91505092915050565b7f4e487b71000000000000000000000000000000000000000000000000000000005f52603260045260245ffd5b5f81905092915050565b50565b5f610e005f83610de8565b9150610e0b82610df2565b5f82019050919050565b5f610e1f82610df5565b9150819050919050565b7f4e487b71000000000000000000000000000000000000000000000000000000005f52601160045260245ffd5b5f610e6082610c64565b9150610e6b83610c64565b9250828201905080821115610e8357610e82610e29565b5b92915050565b5f604082019050610e9c5f830185610c55565b610ea96020830184610c6d565b9392505050565b5f610eba82610c64565b9150610ec583610c64565b9250828203905081811115610edd57610edc610e29565b5b9291505056fea2646970667358221220e82e8cf91aba4b1957d209aa1e401dfa695fdb24fba2a871ef883c525c0a42e364736f6c63430008220033",
					"opcodes": "PUSH1 0xA0 PUSH1 0x40 MSTORE CALLVALUE DUP1 ISZERO PUSH2 0xF JUMPI PUSH0 PUSH0 REVERT JUMPDEST POP PUSH1 0x40 MLOAD PUSH2 0x11DA CODESIZE SUB DUP1 PUSH2 0x11DA DUP4 CODECOPY DUP2 DUP2 ADD PUSH1 0x40 MSTORE DUP2 ADD SWAP1 PUSH2 0x31 SWAP2 SWAP1 PUSH2 0x1ED JUMP JUMPDEST DUP1 PUSH0 PUSH20 0xFFFFFFFFFFFFFFFFFFFFFFFFFFFFFFFFFFFFFFFF AND DUP2 PUSH20 0xFFFFFFFFFFFFFFFFFFFFFFFFFFFFFFFFFFFFFFFF AND SUB PUSH2 0xA2 JUMPI PUSH0 PUSH1 0x40 MLOAD PUSH32 0x1E4FBDF700000000000000000000000000000000000000000000000000000000 DUP2 MSTORE PUSH1 0x4 ADD PUSH2 0x99 SWAP2 SWAP1 PUSH2 0x227 JUMP JUMPDEST PUSH1 0x40 MLOAD DUP1 SWAP2 SUB SWAP1 REVERT JUMPDEST PUSH2 0xB1 DUP2 PUSH2 0xCE PUSH1 0x20 SHL PUSH1 0x20 SHR JUMP JUMPDEST POP PUSH3 0x15180 TIMESTAMP PUSH2 0xC1 SWAP2 SWAP1 PUSH2 0x276 JUMP JUMPDEST PUSH1 0x80 DUP2 DUP2 MSTORE POP POP POP PUSH2 0x2A9 JUMP JUMPDEST PUSH0 PUSH0 PUSH0 SWAP1 SLOAD SWAP1 PUSH2 0x100 EXP SWAP1 DIV PUSH20 0xFFFFFFFFFFFFFFFFFFFFFFFFFFFFFFFFFFFFFFFF AND SWAP1 POP DUP2 PUSH0 PUSH0 PUSH2 0x100 EXP DUP2 SLOAD DUP2 PUSH20 0xFFFFFFFFFFFFFFFFFFFFFFFFFFFFFFFFFFFFFFFF MUL NOT AND SWAP1 DUP4 PUSH20 0xFFFFFFFFFFFFFFFFFFFFFFFFFFFFFFFFFFFFFFFF AND MUL OR SWAP1 SSTORE POP DUP2 PUSH20 0xFFFFFFFFFFFFFFFFFFFFFFFFFFFFFFFFFFFFFFFF AND DUP2 PUSH20 0xFFFFFFFFFFFFFFFFFFFFFFFFFFFFFFFFFFFFFFFF AND PUSH32 0x8BE0079C531659141344CD1FD0A4F28419497F9722A3DAAFE3B4186F6B6457E0 PUSH1 0x40 MLOAD PUSH1 0x40 MLOAD DUP1 SWAP2 SUB SWAP1 LOG3 POP POP JUMP JUMPDEST PUSH0 PUSH0 REVERT JUMPDEST PUSH0 PUSH20 0xFFFFFFFFFFFFFFFFFFFFFFFFFFFFFFFFFFFFFFFF DUP3 AND SWAP1 POP SWAP2 SWAP1 POP JUMP JUMPDEST PUSH0 PUSH2 0x1BC DUP3 PUSH2 0x193 JUMP JUMPDEST SWAP1 POP SWAP2 SWAP1 POP JUMP JUMPDEST PUSH2 0x1CC DUP2 PUSH2 0x1B2 JUMP JUMPDEST DUP2 EQ PUSH2 0x1D6 JUMPI PUSH0 PUSH0 REVERT JUMPDEST POP JUMP JUMPDEST PUSH0 DUP2 MLOAD SWAP1 POP PUSH2 0x1E7 DUP2 PUSH2 0x1C3 JUMP JUMPDEST SWAP3 SWAP2 POP POP JUMP JUMPDEST PUSH0 PUSH1 0x20 DUP3 DUP5 SUB SLT ISZERO PUSH2 0x202 JUMPI PUSH2 0x201 PUSH2 0x18F JUMP JUMPDEST JUMPDEST PUSH0 PUSH2 0x20F DUP5 DUP3 DUP6 ADD PUSH2 0x1D9 JUMP JUMPDEST SWAP2 POP POP SWAP3 SWAP2 POP POP JUMP JUMPDEST PUSH2 0x221 DUP2 PUSH2 0x1B2 JUMP JUMPDEST DUP3 MSTORE POP POP JUMP JUMPDEST PUSH0 PUSH1 0x20 DUP3 ADD SWAP1 POP PUSH2 0x23A PUSH0 DUP4 ADD DUP5 PUSH2 0x218 JUMP JUMPDEST SWAP3 SWAP2 POP POP JUMP JUMPDEST PUSH0 DUP2 SWAP1 POP SWAP2 SWAP1 POP JUMP JUMPDEST PUSH32 0x4E487B7100000000000000000000000000000000000000000000000000000000 PUSH0 MSTORE PUSH1 0x11 PUSH1 0x4 MSTORE PUSH1 0x24 PUSH0 REVERT JUMPDEST PUSH0 PUSH2 0x280 DUP3 PUSH2 0x240 JUMP JUMPDEST SWAP2 POP PUSH2 0x28B DUP4 PUSH2 0x240 JUMP JUMPDEST SWAP3 POP DUP3 DUP3 ADD SWAP1 POP DUP1 DUP3 GT ISZERO PUSH2 0x2A3 JUMPI PUSH2 0x2A2 PUSH2 0x249 JUMP JUMPDEST JUMPDEST SWAP3 SWAP2 POP POP JUMP JUMPDEST PUSH1 0x80 MLOAD PUSH2 0xF19 PUSH2 0x2C1 PUSH0 CODECOPY PUSH0 PUSH2 0x49E ADD MSTORE PUSH2 0xF19 PUSH0 RETURN INVALID PUSH1 0x80 PUSH1 0x40 MSTORE PUSH1 0x4 CALLDATASIZE LT PUSH2 0x85 JUMPI PUSH0 CALLDATALOAD PUSH1 0xE0 SHR DUP1 PUSH4 0x8DA5CB5B GT PUSH2 0x58 JUMPI DUP1 PUSH4 0x8DA5CB5B EQ PUSH2 0x120 JUMPI DUP1 PUSH4 0xAC62F566 EQ PUSH2 0x14A JUMPI DUP1 PUSH4 0xDFEB3022 EQ PUSH2 0x186 JUMPI DUP1 PUSH4 0xED88C68E EQ PUSH2 0x1B0 JUMPI DUP1 PUSH4 0xF2FDE38B EQ PUSH2 0x1BA JUMPI PUSH2 0x85 JUMP JUMPDEST DUP1 PUSH4 0x2D1E2518 EQ PUSH2 0x89 JUMPI DUP1 PUSH4 0x3CCFD60B EQ PUSH2 0xB8 JUMPI DUP1 PUSH4 0x410A1D32 EQ PUSH2 0xCE JUMPI DUP1 PUSH4 0x715018A6 EQ PUSH2 0x10A JUMPI JUMPDEST PUSH0 PUSH0 REVERT JUMPDEST CALLVALUE DUP1 ISZERO PUSH2 0x94 JUMPI PUSH0 PUSH0 REVERT JUMPDEST POP PUSH2 0x9D PUSH2 0x1E2 JUMP JUMPDEST PUSH1 0x40 MLOAD PUSH2 0xAF SWAP7 SWAP6 SWAP5 SWAP4 SWAP3 SWAP2 SWAP1 PUSH2 0xC7C JUMP JUMPDEST PUSH1 0x40 MLOAD DUP1 SWAP2 SUB SWAP1 RETURN JUMPDEST CALLVALUE DUP1 ISZERO PUSH2 0xC3 JUMPI PUSH0 PUSH0 REVERT JUMPDEST POP PUSH2 0xCC PUSH2 0x2E1 JUMP JUMPDEST STOP JUMPDEST CALLVALUE DUP1 ISZERO PUSH2 0xD9 JUMPI PUSH0 PUSH0 REVERT JUMPDEST POP PUSH2 0xF4 PUSH1 0x4 DUP1 CALLDATASIZE SUB DUP2 ADD SWAP1 PUSH2 0xEF SWAP2 SWAP1 PUSH2 0xD09 JUMP JUMPDEST PUSH2 0x3DB JUMP JUMPDEST PUSH1 0x40 MLOAD PUSH2 0x101 SWAP2 SWAP1 PUSH2 0xD34 JUMP JUMPDEST PUSH1 0x40 MLOAD DUP1 SWAP2 SUB SWAP1 RETURN JUMPDEST CALLVALUE DUP1 ISZERO PUSH2 0x115 JUMPI PUSH0 PUSH0 REVERT JUMPDEST POP PUSH2 0x11E PUSH2 0x421 JUMP JUMPDEST STOP JUMPDEST CALLVALUE DUP1 ISZERO PUSH2 0x12B JUMPI PUSH0 PUSH0 REVERT JUMPDEST POP PUSH2 0x134 PUSH2 0x434 JUMP JUMPDEST PUSH1 0x40 MLOAD PUSH2 0x141 SWAP2 SWAP1 PUSH2 0xD4D JUMP JUMPDEST PUSH1 0x40 MLOAD DUP1 SWAP2 SUB SWAP1 RETURN JUMPDEST CALLVALUE DUP1 ISZERO PUSH2 0x155 JUMPI PUSH0 PUSH0 REVERT JUMPDEST POP PUSH2 0x170 PUSH1 0x4 DUP1 CALLDATASIZE SUB DUP2 ADD SWAP1 PUSH2 0x16B SWAP2 SWAP1 PUSH2 0xD90 JUMP JUMPDEST PUSH2 0x45B JUMP JUMPDEST PUSH1 0x40 MLOAD PUSH2 0x17D SWAP2 SWAP1 PUSH2 0xD4D JUMP JUMPDEST PUSH1 0x40 MLOAD DUP1 SWAP2 SUB SWAP1 RETURN JUMPDEST CALLVALUE DUP1 ISZERO PUSH2 0x191 JUMPI PUSH0 PUSH0 REVERT JUMPDEST POP PUSH2 0x19A PUSH2 0x496 JUMP JUMPDEST PUSH1 0x40 MLOAD PUSH2 0x1A7 SWAP2 SWAP1 PUSH2 0xD34 JUMP JUMPDEST PUSH1 0x40 MLOAD DUP1 SWAP2 SUB SWAP1 RETURN JUMPDEST PUSH2 0x1B8 PUSH2 0x49C JUMP JUMPDEST STOP JUMPDEST CALLVALUE DUP1 ISZERO PUSH2 0x1C5 JUMPI PUSH0 PUSH0 REVERT JUMPDEST POP PUSH2 0x1E0 PUSH1 0x4 DUP1 CALLDATASIZE SUB DUP2 ADD SWAP1 PUSH2 0x1DB SWAP2 SWAP1 PUSH2 0xD09 JUMP JUMPDEST PUSH2 0x693 JUMP JUMPDEST STOP JUMPDEST PUSH0 PUSH0 PUSH0 PUSH0 PUSH0 PUSH0 PUSH1 0x4 PUSH0 PUSH1 0x3 DUP2 LT PUSH2 0x1FC JUMPI PUSH2 0x1FB PUSH2 0xDBB JUMP JUMPDEST JUMPDEST ADD PUSH0 SWAP1 SLOAD SWAP1 PUSH2 0x100 EXP SWAP1 DIV PUSH20 0xFFFFFFFFFFFFFFFFFFFFFFFFFFFFFFFFFFFFFFFF AND PUSH1 0x7 PUSH0 PUSH1 0x3 DUP2 LT PUSH2 0x231 JUMPI PUSH2 0x230 PUSH2 0xDBB JUMP JUMPDEST JUMPDEST ADD SLOAD PUSH1 0x4 PUSH1 0x1 PUSH1 0x3 DUP2 LT PUSH2 0x248 JUMPI PUSH2 0x247 PUSH2 0xDBB JUMP JUMPDEST JUMPDEST ADD PUSH0 SWAP1 SLOAD SWAP1 PUSH2 0x100 EXP SWAP1 DIV PUSH20 0xFFFFFFFFFFFFFFFFFFFFFFFFFFFFFFFFFFFFFFFF AND PUSH1 0x7 PUSH1 0x1 PUSH1 0x3 DUP2 LT PUSH2 0x27E JUMPI PUSH2 0x27D PUSH2 0xDBB JUMP JUMPDEST JUMPDEST ADD SLOAD PUSH1 0x4 PUSH1 0x2 PUSH1 0x3 DUP2 LT PUSH2 0x295 JUMPI PUSH2 0x294 PUSH2 0xDBB JUMP JUMPDEST JUMPDEST ADD PUSH0 SWAP1 SLOAD SWAP1 PUSH2 0x100 EXP SWAP1 DIV PUSH20 0xFFFFFFFFFFFFFFFFFFFFFFFFFFFFFFFFFFFFFFFF AND PUSH1 0x7 PUSH1 0x2 PUSH1 0x3 DUP2 LT PUSH2 0x2CB JUMPI PUSH2 0x2CA PUSH2 0xDBB JUMP JUMPDEST JUMPDEST ADD SLOAD SWAP6 POP SWAP6 POP SWAP6 POP SWAP6 POP SWAP6 POP SWAP6 POP SWAP1 SWAP2 SWAP3 SWAP4 SWAP5 SWAP6 JUMP JUMPDEST PUSH2 0x2E9 PUSH2 0x717 JUMP JUMPDEST PUSH0 PUSH1 0x3 SLOAD SUB PUSH2 0x324 JUMPI PUSH1 0x40 MLOAD PUSH32 0x469EA76800000000000000000000000000000000000000000000000000000000 DUP2 MSTORE PUSH1 0x4 ADD PUSH1 0x40 MLOAD DUP1 SWAP2 SUB SWAP1 REVERT JUMPDEST PUSH0 PUSH1 0x3 SLOAD SWAP1 POP PUSH0 PUSH1 0x3 DUP2 SWAP1 SSTORE POP PUSH0 PUSH2 0x33A PUSH2 0x434 JUMP JUMPDEST PUSH20 0xFFFFFFFFFFFFFFFFFFFFFFFFFFFFFFFFFFFFFFFF AND DUP3 PUSH1 0x40 MLOAD PUSH2 0x35D SWAP1 PUSH2 0xE15 JUMP JUMPDEST PUSH0 PUSH1 0x40 MLOAD DUP1 DUP4 SUB DUP2 DUP6 DUP8 GAS CALL SWAP3 POP POP POP RETURNDATASIZE DUP1 PUSH0 DUP2 EQ PUSH2 0x397 JUMPI PUSH1 0x40 MLOAD SWAP2 POP PUSH1 0x1F NOT PUSH1 0x3F RETURNDATASIZE ADD AND DUP3 ADD PUSH1 0x40 MSTORE RETURNDATASIZE DUP3 MSTORE RETURNDATASIZE PUSH0 PUSH1 0x20 DUP5 ADD RETURNDATACOPY PUSH2 0x39C JUMP JUMPDEST PUSH1 0x60 SWAP2 POP JUMPDEST POP POP SWAP1 POP DUP1 PUSH2 0x3D7 JUMPI PUSH1 0x40 MLOAD PUSH32 0x750B219C00000000000000000000000000000000000000000000000000000000 DUP2 MSTORE PUSH1 0x4 ADD PUSH1 0x40 MLOAD DUP1 SWAP2 SUB SWAP1 REVERT JUMPDEST POP POP JUMP JUMPDEST PUSH0 PUSH1 0x1 PUSH0 DUP4 PUSH20 0xFFFFFFFFFFFFFFFFFFFFFFFFFFFFFFFFFFFFFFFF AND PUSH20 0xFFFFFFFFFFFFFFFFFFFFFFFFFFFFFFFFFFFFFFFF AND DUP2 MSTORE PUSH1 0x20 ADD SWAP1 DUP2 MSTORE PUSH1 0x20 ADD PUSH0 KECCAK256 SLOAD SWAP1 POP SWAP2 SWAP1 POP JUMP JUMPDEST PUSH2 0x429 PUSH2 0x717 JUMP JUMPDEST PUSH2 0x432 PUSH0 PUSH2 0x79E JUMP JUMPDEST JUMP JUMPDEST PUSH0 PUSH0 PUSH0 SWAP1 SLOAD SWAP1 PUSH2 0x100 EXP SWAP1 DIV PUSH20 0xFFFFFFFFFFFFFFFFFFFFFFFFFFFFFFFFFFFFFFFF AND SWAP1 POP SWAP1 JUMP JUMPDEST PUSH1 0x2 DUP2 DUP2 SLOAD DUP2 LT PUSH2 0x46A JUMPI PUSH0 DUP1 REVERT JUMPDEST SWAP1 PUSH0 MSTORE PUSH1 0x20 PUSH0 KECCAK256 ADD PUSH0 SWAP2 POP SLOAD SWAP1 PUSH2 0x100 EXP SWAP1 DIV PUSH20 0xFFFFFFFFFFFFFFFFFFFFFFFFFFFFFFFFFFFFFFFF AND DUP2 JUMP JUMPDEST PUSH1 0x3 SLOAD DUP2 JUMP JUMPDEST PUSH32 0x0 TIMESTAMP LT PUSH2 0x4F5 JUMPI PUSH1 0x40 MLOAD PUSH32 0xC8CAF0C200000000000000000000000000000000000000000000000000000000 DUP2 MSTORE PUSH1 0x4 ADD PUSH1 0x40 MLOAD DUP1 SWAP2 SUB SWAP1 REVERT JUMPDEST PUSH0 CALLVALUE GT PUSH2 0x52E JUMPI PUSH1 0x40 MLOAD PUSH32 0x469EA76800000000000000000000000000000000000000000000000000000000 DUP2 MSTORE PUSH1 0x4 ADD PUSH1 0x40 MLOAD DUP1 SWAP2 SUB SWAP1 REVERT JUMPDEST PUSH0 CALLVALUE PUSH1 0x1 PUSH0 CALLER PUSH20 0xFFFFFFFFFFFFFFFFFFFFFFFFFFFFFFFFFFFFFFFF AND PUSH20 0xFFFFFFFFFFFFFFFFFFFFFFFFFFFFFFFFFFFFFFFF AND DUP2 MSTORE PUSH1 0x20 ADD SWAP1 DUP2 MSTORE PUSH1 0x20 ADD PUSH0 KECCAK256 SLOAD PUSH2 0x578 SWAP2 SWAP1 PUSH2 0xE56 JUMP JUMPDEST SWAP1 POP CALLVALUE PUSH1 0x1 PUSH0 CALLER PUSH20 0xFFFFFFFFFFFFFFFFFFFFFFFFFFFFFFFFFFFFFFFF AND PUSH20 0xFFFFFFFFFFFFFFFFFFFFFFFFFFFFFFFFFFFFFFFF AND DUP2 MSTORE PUSH1 0x20 ADD SWAP1 DUP2 MSTORE PUSH1 0x20 ADD PUSH0 KECCAK256 PUSH0 DUP3 DUP3 SLOAD PUSH2 0x5C6 SWAP2 SWAP1 PUSH2 0xE56 JUMP JUMPDEST SWAP3 POP POP DUP2 SWAP1 SSTORE POP CALLVALUE DUP2 SUB PUSH2 0x635 JUMPI PUSH1 0x2 CALLER SWAP1 DUP1 PUSH1 0x1 DUP2 SLOAD ADD DUP1 DUP3 SSTORE DUP1 SWAP2 POP POP PUSH1 0x1 SWAP1 SUB SWAP1 PUSH0 MSTORE PUSH1 0x20 PUSH0 KECCAK256 ADD PUSH0 SWAP1 SWAP2 SWAP1 SWAP2 SWAP1 SWAP2 PUSH2 0x100 EXP DUP2 SLOAD DUP2 PUSH20 0xFFFFFFFFFFFFFFFFFFFFFFFFFFFFFFFFFFFFFFFF MUL NOT AND SWAP1 DUP4 PUSH20 0xFFFFFFFFFFFFFFFFFFFFFFFFFFFFFFFFFFFFFFFF AND MUL OR SWAP1 SSTORE POP JUMPDEST CALLVALUE PUSH1 0x3 PUSH0 DUP3 DUP3 SLOAD PUSH2 0x646 SWAP2 SWAP1 PUSH2 0xE56 JUMP JUMPDEST SWAP3 POP POP DUP2 SWAP1 SSTORE POP PUSH32 0x553260A2E46B0577270D8992DB02D30856CA880144C72D6E9503760946AEF13 CALLER CALLVALUE PUSH1 0x40 MLOAD PUSH2 0x67E SWAP3 SWAP2 SWAP1 PUSH2 0xE89 JUMP JUMPDEST PUSH1 0x40 MLOAD DUP1 SWAP2 SUB SWAP1 LOG1 PUSH2 0x690 CALLER DUP3 PUSH2 0x85F JUMP JUMPDEST POP JUMP JUMPDEST PUSH2 0x69B PUSH2 0x717 JUMP JUMPDEST PUSH0 PUSH20 0xFFFFFFFFFFFFFFFFFFFFFFFFFFFFFFFFFFFFFFFF AND DUP2 PUSH20 0xFFFFFFFFFFFFFFFFFFFFFFFFFFFFFFFFFFFFFFFF AND SUB PUSH2 0x70B JUMPI PUSH0 PUSH1 0x40 MLOAD PUSH32 0x1E4FBDF700000000000000000000000000000000000000000000000000000000 DUP2 MSTORE PUSH1 0x4 ADD PUSH2 0x702 SWAP2 SWAP1 PUSH2 0xD4D JUMP JUMPDEST PUSH1 0x40 MLOAD DUP1 SWAP2 SUB SWAP1 REVERT JUMPDEST PUSH2 0x714 DUP2 PUSH2 0x79E JUMP JUMPDEST POP JUMP JUMPDEST PUSH2 0x71F PUSH2 0x9F0 JUMP JUMPDEST PUSH20 0xFFFFFFFFFFFFFFFFFFFFFFFFFFFFFFFFFFFFFFFF AND PUSH2 0x73D PUSH2 0x434 JUMP JUMPDEST PUSH20 0xFFFFFFFFFFFFFFFFFFFFFFFFFFFFFFFFFFFFFFFF AND EQ PUSH2 0x79C JUMPI PUSH2 0x760 PUSH2 0x9F0 JUMP JUMPDEST PUSH1 0x40 MLOAD PUSH32 0x118CDAA700000000000000000000000000000000000000000000000000000000 DUP2 MSTORE PUSH1 0x4 ADD PUSH2 0x793 SWAP2 SWAP1 PUSH2 0xD4D JUMP JUMPDEST PUSH1 0x40 MLOAD DUP1 SWAP2 SUB SWAP1 REVERT JUMPDEST JUMP JUMPDEST PUSH0 PUSH0 PUSH0 SWAP1 SLOAD SWAP1 PUSH2 0x100 EXP SWAP1 DIV PUSH20 0xFFFFFFFFFFFFFFFFFFFFFFFFFFFFFFFFFFFFFFFF AND SWAP1 POP DUP2 PUSH0 PUSH0 PUSH2 0x100 EXP DUP2 SLOAD DUP2 PUSH20 0xFFFFFFFFFFFFFFFFFFFFFFFFFFFFFFFFFFFFFFFF MUL NOT AND SWAP1 DUP4 PUSH20 0xFFFFFFFFFFFFFFFFFFFFFFFFFFFFFFFFFFFFFFFF AND MUL OR SWAP1 SSTORE POP DUP2 PUSH20 0xFFFFFFFFFFFFFFFFFFFFFFFFFFFFFFFFFFFFFFFF AND DUP2 PUSH20 0xFFFFFFFFFFFFFFFFFFFFFFFFFFFFFFFFFFFFFFFF AND PUSH32 0x8BE0079C531659141344CD1FD0A4F28419497F9722A3DAAFE3B4186F6B6457E0 PUSH1 0x40 MLOAD PUSH1 0x40 MLOAD DUP1 SWAP2 SUB SWAP1 LOG3 POP POP JUMP JUMPDEST PUSH1 0x7 PUSH1 0x2 PUSH1 0x3 DUP2 LT PUSH2 0x874 JUMPI PUSH2 0x873 PUSH2 0xDBB JUMP JUMPDEST JUMPDEST ADD SLOAD DUP2 GT ISZERO PUSH2 0x9EC JUMPI PUSH0 PUSH32 0xFFFFFFFFFFFFFFFFFFFFFFFFFFFFFFFFFFFFFFFFFFFFFFFFFFFFFFFFFFFFFFFF SWAP1 POP PUSH0 PUSH0 SWAP1 POP JUMPDEST PUSH1 0x3 DUP2 LT ISZERO PUSH2 0x92B JUMPI DUP4 PUSH20 0xFFFFFFFFFFFFFFFFFFFFFFFFFFFFFFFFFFFFFFFF AND PUSH1 0x4 DUP3 PUSH1 0x3 DUP2 LT PUSH2 0x8DA JUMPI PUSH2 0x8D9 PUSH2 0xDBB JUMP JUMPDEST JUMPDEST ADD PUSH0 SWAP1 SLOAD SWAP1 PUSH2 0x100 EXP SWAP1 DIV PUSH20 0xFFFFFFFFFFFFFFFFFFFFFFFFFFFFFFFFFFFFFFFF AND PUSH20 0xFFFFFFFFFFFFFFFFFFFFFFFFFFFFFFFFFFFFFFFF AND SUB PUSH2 0x91E JUMPI DUP1 SWAP2 POP PUSH2 0x92B JUMP JUMPDEST DUP1 DUP1 PUSH1 0x1 ADD SWAP2 POP POP PUSH2 0x8A6 JUMP JUMPDEST POP PUSH32 0xFFFFFFFFFFFFFFFFFFFFFFFFFFFFFFFFFFFFFFFFFFFFFFFFFFFFFFFFFFFFFFFF DUP2 EQ PUSH2 0x972 JUMPI DUP2 PUSH1 0x7 DUP3 PUSH1 0x3 DUP2 LT PUSH2 0x968 JUMPI PUSH2 0x967 PUSH2 0xDBB JUMP JUMPDEST JUMPDEST ADD DUP2 SWAP1 SSTORE POP PUSH2 0x9E2 JUMP JUMPDEST DUP3 PUSH1 0x4 PUSH1 0x2 PUSH1 0x3 DUP2 LT PUSH2 0x988 JUMPI PUSH2 0x987 PUSH2 0xDBB JUMP JUMPDEST JUMPDEST ADD PUSH0 PUSH2 0x100 EXP DUP2 SLOAD DUP2 PUSH20 0xFFFFFFFFFFFFFFFFFFFFFFFFFFFFFFFFFFFFFFFF MUL NOT AND SWAP1 DUP4 PUSH20 0xFFFFFFFFFFFFFFFFFFFFFFFFFFFFFFFFFFFFFFFF AND MUL OR SWAP1 SSTORE POP DUP2 PUSH1 0x7 PUSH1 0x2 PUSH1 0x3 DUP2 LT PUSH2 0x9DC JUMPI PUSH2 0x9DB PUSH2 0xDBB JUMP JUMPDEST JUMPDEST ADD DUP2 SWAP1 SSTORE POP JUMPDEST PUSH2 0x9EA PUSH2 0x9F7 JUMP JUMPDEST POP JUMPDEST POP POP JUMP JUMPDEST PUSH0 CALLER SWAP1 POP SWAP1 JUMP JUMPDEST PUSH0 PUSH0 SWAP1 POP JUMPDEST PUSH1 0x2 DUP2 LT ISZERO PUSH2 0xC22 JUMPI PUSH0 PUSH0 SWAP1 POP JUMPDEST DUP2 PUSH1 0x2 PUSH2 0xA17 SWAP2 SWAP1 PUSH2 0xEB0 JUMP JUMPDEST DUP2 LT ISZERO PUSH2 0xC14 JUMPI PUSH1 0x7 PUSH1 0x1 DUP3 PUSH2 0xA2D SWAP2 SWAP1 PUSH2 0xE56 JUMP JUMPDEST PUSH1 0x3 DUP2 LT PUSH2 0xA3E JUMPI PUSH2 0xA3D PUSH2 0xDBB JUMP JUMPDEST JUMPDEST ADD SLOAD PUSH1 0x7 DUP3 PUSH1 0x3 DUP2 LT PUSH2 0xA54 JUMPI PUSH2 0xA53 PUSH2 0xDBB JUMP JUMPDEST JUMPDEST ADD SLOAD LT ISZERO PUSH2 0xC07 JUMPI PUSH1 0x7 PUSH1 0x1 DUP3 PUSH2 0xA6B SWAP2 SWAP1 PUSH2 0xE56 JUMP JUMPDEST PUSH1 0x3 DUP2 LT PUSH2 0xA7C JUMPI PUSH2 0xA7B PUSH2 0xDBB JUMP JUMPDEST JUMPDEST ADD SLOAD PUSH1 0x7 DUP3 PUSH1 0x3 DUP2 LT PUSH2 0xA92 JUMPI PUSH2 0xA91 PUSH2 0xDBB JUMP JUMPDEST JUMPDEST ADD SLOAD PUSH1 0x7 DUP4 PUSH1 0x3 DUP2 LT PUSH2 0xAA8 JUMPI PUSH2 0xAA7 PUSH2 0xDBB JUMP JUMPDEST JUMPDEST ADD PUSH0 PUSH1 0x7 PUSH1 0x1 DUP7 PUSH2 0xAB9 SWAP2 SWAP1 PUSH2 0xE56 JUMP JUMPDEST PUSH1 0x3 DUP2 LT PUSH2 0xACA JUMPI PUSH2 0xAC9 PUSH2 0xDBB JUMP JUMPDEST JUMPDEST ADD PUSH0 DUP5 SWAP2 SWAP1 POP SSTORE DUP4 SWAP2 SWAP1 POP SSTORE POP POP PUSH1 0x4 PUSH1 0x1 DUP3 PUSH2 0xAE7 SWAP2 SWAP1 PUSH2 0xE56 JUMP JUMPDEST PUSH1 0x3 DUP2 LT PUSH2 0xAF8 JUMPI PUSH2 0xAF7 PUSH2 0xDBB JUMP JUMPDEST JUMPDEST ADD PUSH0 SWAP1 SLOAD SWAP1 PUSH2 0x100 EXP SWAP1 DIV PUSH20 0xFFFFFFFFFFFFFFFFFFFFFFFFFFFFFFFFFFFFFFFF AND PUSH1 0x4 DUP3 PUSH1 0x3 DUP2 LT PUSH2 0xB2D JUMPI PUSH2 0xB2C PUSH2 0xDBB JUMP JUMPDEST JUMPDEST ADD PUSH0 SWAP1 SLOAD SWAP1 PUSH2 0x100 EXP SWAP1 DIV PUSH20 0xFFFFFFFFFFFFFFFFFFFFFFFFFFFFFFFFFFFFFFFF AND PUSH1 0x4 DUP4 PUSH1 0x3 DUP2 LT PUSH2 0xB62 JUMPI PUSH2 0xB61 PUSH2 0xDBB JUMP JUMPDEST JUMPDEST ADD PUSH0 PUSH1 0x4 PUSH1 0x1 DUP7 PUSH2 0xB73 SWAP2 SWAP1 PUSH2 0xE56 JUMP JUMPDEST PUSH1 0x3 DUP2 LT PUSH2 0xB84 JUMPI PUSH2 0xB83 PUSH2 0xDBB JUMP JUMPDEST JUMPDEST ADD PUSH0 DUP5 SWAP2 SWAP1 PUSH2 0x100 EXP DUP2 SLOAD DUP2 PUSH20 0xFFFFFFFFFFFFFFFFFFFFFFFFFFFFFFFFFFFFFFFF MUL NOT AND SWAP1 DUP4 PUSH20 0xFFFFFFFFFFFFFFFFFFFFFFFFFFFFFFFFFFFFFFFF AND MUL OR SWAP1 SSTORE POP DUP4 SWAP2 SWAP1 PUSH2 0x100 EXP DUP2 SLOAD DUP2 PUSH20 0xFFFFFFFFFFFFFFFFFFFFFFFFFFFFFFFFFFFFFFFF MUL NOT AND SWAP1 DUP4 PUSH20 0xFFFFFFFFFFFFFFFFFFFFFFFFFFFFFFFFFFFFFFFF AND MUL OR SWAP1 SSTORE POP POP POP JUMPDEST DUP1 DUP1 PUSH1 0x1 ADD SWAP2 POP POP PUSH2 0xA0A JUMP JUMPDEST POP DUP1 DUP1 PUSH1 0x1 ADD SWAP2 POP POP PUSH2 0x9FC JUMP JUMPDEST POP JUMP JUMPDEST PUSH0 PUSH20 0xFFFFFFFFFFFFFFFFFFFFFFFFFFFFFFFFFFFFFFFF DUP3 AND SWAP1 POP SWAP2 SWAP1 POP JUMP JUMPDEST PUSH0 PUSH2 0xC4E DUP3 PUSH2 0xC25 JUMP JUMPDEST SWAP1 POP SWAP2 SWAP1 POP JUMP JUMPDEST PUSH2 0xC5E DUP2 PUSH2 0xC44 JUMP JUMPDEST DUP3 MSTORE POP POP JUMP JUMPDEST PUSH0 DUP2 SWAP1 POP SWAP2 SWAP1 POP JUMP JUMPDEST PUSH2 0xC76 DUP2 PUSH2 0xC64 JUMP JUMPDEST DUP3 MSTORE POP POP JUMP JUMPDEST PUSH0 PUSH1 0xC0 DUP3 ADD SWAP1 POP PUSH2 0xC8F PUSH0 DUP4 ADD DUP10 PUSH2 0xC55 JUMP JUMPDEST PUSH2 0xC9C PUSH1 0x20 DUP4 ADD DUP9 PUSH2 0xC6D JUMP JUMPDEST PUSH2 0xCA9 PUSH1 0x40 DUP4 ADD DUP8 PUSH2 0xC55 JUMP JUMPDEST PUSH2 0xCB6 PUSH1 0x60 DUP4 ADD DUP7 PUSH2 0xC6D JUMP JUMPDEST PUSH2 0xCC3 PUSH1 0x80 DUP4 ADD DUP6 PUSH2 0xC55 JUMP JUMPDEST PUSH2 0xCD0 PUSH1 0xA0 DUP4 ADD DUP5 PUSH2 0xC6D JUMP JUMPDEST SWAP8 SWAP7 POP POP POP POP POP POP POP JUMP JUMPDEST PUSH0 PUSH0 REVERT JUMPDEST PUSH2 0xCE8 DUP2 PUSH2 0xC44 JUMP JUMPDEST DUP2 EQ PUSH2 0xCF2 JUMPI PUSH0 PUSH0 REVERT JUMPDEST POP JUMP JUMPDEST PUSH0 DUP2 CALLDATALOAD SWAP1 POP PUSH2 0xD03 DUP2 PUSH2 0xCDF JUMP JUMPDEST SWAP3 SWAP2 POP POP JUMP JUMPDEST PUSH0 PUSH1 0x20 DUP3 DUP5 SUB SLT ISZERO PUSH2 0xD1E JUMPI PUSH2 0xD1D PUSH2 0xCDB JUMP JUMPDEST JUMPDEST PUSH0 PUSH2 0xD2B DUP5 DUP3 DUP6 ADD PUSH2 0xCF5 JUMP JUMPDEST SWAP2 POP POP SWAP3 SWAP2 POP POP JUMP JUMPDEST PUSH0 PUSH1 0x20 DUP3 ADD SWAP1 POP PUSH2 0xD47 PUSH0 DUP4 ADD DUP5 PUSH2 0xC6D JUMP JUMPDEST SWAP3 SWAP2 POP POP JUMP JUMPDEST PUSH0 PUSH1 0x20 DUP3 ADD SWAP1 POP PUSH2 0xD60 PUSH0 DUP4 ADD DUP5 PUSH2 0xC55 JUMP JUMPDEST SWAP3 SWAP2 POP POP JUMP JUMPDEST PUSH2 0xD6F DUP2 PUSH2 0xC64 JUMP JUMPDEST DUP2 EQ PUSH2 0xD79 JUMPI PUSH0 PUSH0 REVERT JUMPDEST POP JUMP JUMPDEST PUSH0 DUP2 CALLDATALOAD SWAP1 POP PUSH2 0xD8A DUP2 PUSH2 0xD66 JUMP JUMPDEST SWAP3 SWAP2 POP POP JUMP JUMPDEST PUSH0 PUSH1 0x20 DUP3 DUP5 SUB SLT ISZERO PUSH2 0xDA5 JUMPI PUSH2 0xDA4 PUSH2 0xCDB JUMP JUMPDEST JUMPDEST PUSH0 PUSH2 0xDB2 DUP5 DUP3 DUP6 ADD PUSH2 0xD7C JUMP JUMPDEST SWAP2 POP POP SWAP3 SWAP2 POP POP JUMP JUMPDEST PUSH32 0x4E487B7100000000000000000000000000000000000000000000000000000000 PUSH0 MSTORE PUSH1 0x32 PUSH1 0x4 MSTORE PUSH1 0x24 PUSH0 REVERT JUMPDEST PUSH0 DUP2 SWAP1 POP SWAP3 SWAP2 POP POP JUMP JUMPDEST POP JUMP JUMPDEST PUSH0 PUSH2 0xE00 PUSH0 DUP4 PUSH2 0xDE8 JUMP JUMPDEST SWAP2 POP PUSH2 0xE0B DUP3 PUSH2 0xDF2 JUMP JUMPDEST PUSH0 DUP3 ADD SWAP1 POP SWAP2 SWAP1 POP JUMP JUMPDEST PUSH0 PUSH2 0xE1F DUP3 PUSH2 0xDF5 JUMP JUMPDEST SWAP2 POP DUP2 SWAP1 POP SWAP2 SWAP1 POP JUMP JUMPDEST PUSH32 0x4E487B7100000000000000000000000000000000000000000000000000000000 PUSH0 MSTORE PUSH1 0x11 PUSH1 0x4 MSTORE PUSH1 0x24 PUSH0 REVERT JUMPDEST PUSH0 PUSH2 0xE60 DUP3 PUSH2 0xC64 JUMP JUMPDEST SWAP2 POP PUSH2 0xE6B DUP4 PUSH2 0xC64 JUMP JUMPDEST SWAP3 POP DUP3 DUP3 ADD SWAP1 POP DUP1 DUP3 GT ISZERO PUSH2 0xE83 JUMPI PUSH2 0xE82 PUSH2 0xE29 JUMP JUMPDEST JUMPDEST SWAP3 SWAP2 POP POP JUMP JUMPDEST PUSH0 PUSH1 0x40 DUP3 ADD SWAP1 POP PUSH2 0xE9C PUSH0 DUP4 ADD DUP6 PUSH2 0xC55 JUMP JUMPDEST PUSH2 0xEA9 PUSH1 0x20 DUP4 ADD DUP5 PUSH2 0xC6D JUMP JUMPDEST SWAP4 SWAP3 POP POP POP JUMP JUMPDEST PUSH0 PUSH2 0xEBA DUP3 PUSH2 0xC64 JUMP JUMPDEST SWAP2 POP PUSH2 0xEC5 DUP4 PUSH2 0xC64 JUMP JUMPDEST SWAP3 POP DUP3 DUP3 SUB SWAP1 POP DUP2 DUP2 GT ISZERO PUSH2 0xEDD JUMPI PUSH2 0xEDC PUSH2 0xE29 JUMP JUMPDEST JUMPDEST SWAP3 SWAP2 POP POP JUMP INVALID LOG2 PUSH5 0x6970667358 0x22 SLT KECCAK256 0xE8 0x2E DUP13 EXTDELEGATECALL BYTE 0xBA 0x4B NOT JUMPI 0xD2 MULMOD 0xAA CLZ BLOCKHASH SAR STATICCALL PUSH10 0x5FDB24FBA2A871EF883C MSTORE TLOAD EXP TIMESTAMP CALLF 0x6473 PUSH16 0x6C634300082200330000000000000000 "
				},
				"gasEstimates": {
					"creation": {
						"codeDepositCost": "773000",
						"executionCost": "infinite",
						"totalCost": "infinite"
					},
					"external": {
						"donate()": "infinite",
						"donators(uint256)": "4966",
						"getDonation(address)": "2874",
						"getTop3Donors()": "infinite",
						"owner()": "2514",
						"renounceOwnership()": "infinite",
						"totalAmout()": "2469",
						"transferOwnership(address)": "infinite",
						"withdraw()": "infinite"
					},
					"internal": {
						"_sortTop3()": "infinite",
						"_updateRanking(address,uint256)": "infinite"
					}
				},
				"methodIdentifiers": {
					"donate()": "ed88c68e",
					"donators(uint256)": "ac62f566",
					"getDonation(address)": "410a1d32",
					"getTop3Donors()": "2d1e2518",
					"owner()": "8da5cb5b",
					"renounceOwnership()": "715018a6",
					"totalAmout()": "dfeb3022",
					"transferOwnership(address)": "f2fde38b",
					"withdraw()": "3ccfd60b"
				}
			},
			"storageLayout": {
				"storage": [
					{
						"astId": 8,
						"contract": "homework02.sol:BeggingContract",
						"label": "_owner",
						"offset": 0,
						"slot": "0",
						"type": "t_address"
					},
					{
						"astId": 187,
						"contract": "homework02.sol:BeggingContract",
						"label": "_donateRecord",
						"offset": 0,
						"slot": "1",
						"type": "t_mapping(t_address,t_uint256)"
					},
					{
						"astId": 190,
						"contract": "homework02.sol:BeggingContract",
						"label": "donators",
						"offset": 0,
						"slot": "2",
						"type": "t_array(t_address)dyn_storage"
					},
					{
						"astId": 192,
						"contract": "homework02.sol:BeggingContract",
						"label": "totalAmout",
						"offset": 0,
						"slot": "3",
						"type": "t_uint256"
					},
					{
						"astId": 196,
						"contract": "homework02.sol:BeggingContract",
						"label": "_rank",
						"offset": 0,
						"slot": "4",
						"type": "t_array(t_address)3_storage"
					},
					{
						"astId": 200,
						"contract": "homework02.sol:BeggingContract",
						"label": "_rankAmount",
						"offset": 0,
						"slot": "7",
						"type": "t_array(t_uint256)3_storage"
					}
				],
				"types": {
					"t_address": {
						"encoding": "inplace",
						"label": "address",
						"numberOfBytes": "20"
					},
					"t_array(t_address)3_storage": {
						"base": "t_address",
						"encoding": "inplace",
						"label": "address[3]",
						"numberOfBytes": "96"
					},
					"t_array(t_address)dyn_storage": {
						"base": "t_address",
						"encoding": "dynamic_array",
						"label": "address[]",
						"numberOfBytes": "32"
					},
					"t_array(t_uint256)3_storage": {
						"base": "t_uint256",
						"encoding": "inplace",
						"label": "uint256[3]",
						"numberOfBytes": "96"
					},
					"t_mapping(t_address,t_uint256)": {
						"encoding": "mapping",
						"key": "t_address",
						"label": "mapping(address => uint256)",
						"numberOfBytes": "32",
						"value": "t_uint256"
					},
					"t_uint256": {
						"encoding": "inplace",
						"label": "uint256",
						"numberOfBytes": "32"
					}
				}
			},
			"userdoc": {
				"kind": "user",
				"methods": {},
				"version": 1
			}
		}
	}
}