{
	"data": {
		"bytecode": {
			"linkReferences": {},
			"object": "60a060405234801561000f575f5ffd5b506040516111da3803806111da833981810160405281019061003191906101ed565b805f73ffffffffffffffffffffffffffffffffffffffff168173ffffffffffffffffffffffffffffffffffffffff16036100a2575f6040517f1e4fbdf70000000000000000000000000000000000000000000000000000000081526004016100999190610227565b60405180910390fd5b6100b1816100ce60201b60201c565b5062015180426100c19190610276565b60808181525050506102a9565b5f5f5f9054906101000a900473ffffffffffffffffffffffffffffffffffffffff169050815f5f6101000a81548173ffffffffffffffffffffffffffffffffffffffff021916908373ffffffffffffffffffffffffffffffffffffffff1602179055508173ffffffffffffffffffffffffffffffffffffffff168173ffffffffffffffffffffffffffffffffffffffff167f8be0079c531659141344cd1fd0a4f28419497f9722a3daafe3b4186f6b6457e060405160405180910390a35050565b5f5ffd5b5f73ffffffffffffffffffffffffffffffffffffffff82169050919050565b5f6101bc82610193565b9050919050565b6101cc816101b2565b81146101d6575f5ffd5b50565b5f815190506101e7816101c3565b92915050565b5f602082840312156102025761020161018f565b5b5f61020f848285016101d9565b91505092915050565b610221816101b2565b82525050565b5f60208201905061023a5f830184610218565b92915050565b5f819050919050565b7f4e487b71000000000000000000000000000000000000000000000000000000005f52601160045260245ffd5b5f61028082610240565b915061028b83610240565b92508282019050808211156102a3576102a2610249565b5b92915050565b608051610f196102c15f395f61049e0152610f195ff3fe608060405260043610610085575f3560e01c80638da5cb5b116100585780638da5cb5b14610120578063ac62f5661461014a578063dfeb302214610186578063ed88c68e146101b0578063f2fde38b146101ba57610085565b80632d1e2518146100895780633ccfd60b146100b8578063410a1d32146100ce578063715018a61461010a575b5f5ffd5b348015610094575f5ffd5b5061009d6101e2565b6040516100af96959493929190610c7c565b60405180910390f35b3480156100c3575f5ffd5b506100cc6102e1565b005b3480156100d9575f5ffd5b506100f460048036038101906100ef9190610d09565b6103db565b6040516101019190610d34565b60405180910390f35b348015610115575f5ffd5b5061011e610421565b005b34801561012b575f5ffd5b50610134610434565b6040516101419190610d4d565b60405180910390f35b348015610155575f5ffd5b50610170600480360381019061016b9190610d90565b61045b565b60405161017d9190610d4d565b60405180910390f35b348015610191575f5ffd5b5061019a610496565b6040516101a79190610d34565b60405180910390f35b6101b861049c565b005b3480156101c5575f5ffd5b506101e060048036038101906101db9190610d09565b610693565b005b5f5f5f5f5f5f60045f600381106101fc576101fb610dbb565b5b015f9054906101000a900473ffffffffffffffffffffffffffffffffffffffff1660075f6003811061023157610230610dbb565b5b0154600460016003811061024857610247610dbb565b5b015f9054906101000a900473ffffffffffffffffffffffffffffffffffffffff16600760016003811061027e5761027d610dbb565b5b0154600460026003811061029557610294610dbb565b5b015f9054906101000a900473ffffffffffffffffffffffffffffffffffffffff1660076002600381106102cb576102ca610dbb565b5b0154955095509550955095509550909192939495565b6102e9610717565b5f60035403610324576040517f469ea76800000000000000000000000000000000000000000000000000000000815260040160405180910390fd5b5f60035490505f6003819055505f61033a610434565b73ffffffffffffffffffffffffffffffffffffffff168260405161035d90610e15565b5f6040518083038185875af1925050503d805f8114610397576040519150601f19603f3d011682016040523d82523d5f602084013e61039c565b606091505b50509050806103d7576040517f750b219c00000000000000000000000000000000000000000000000000000000815260040160405180910390fd5b5050565b5f60015f8373ffffffffffffffffffffffffffffffffffffffff1673ffffffffffffffffffffffffffffffffffffffff1681526020019081526020015f20549050919050565b610429610717565b6104325f61079e565b565b5f5f5f9054906101000a900473ffffffffffffffffffffffffffffffffffffffff16905090565b6002818154811061046a575f80fd5b905f5260205f20015f915054906101000a900473ffffffffffffffffffffffffffffffffffffffff1681565b60035481565b7f000000000000000000000000000000000000000000000000000000000000000042106104f5576040517fc8caf0c200000000000000000000000000000000000000000000000000000000815260040160405180910390fd5b5f341161052e576040517f469ea76800000000000000000000000000000000000000000000000000000000815260040160405180910390fd5b5f3460015f3373ffffffffffffffffffffffffffffffffffffffff1673ffffffffffffffffffffffffffffffffffffffff1681526020019081526020015f20546105789190610e56565b90503460015f3373ffffffffffffffffffffffffffffffffffffffff1673ffffffffffffffffffffffffffffffffffffffff1681526020019081526020015f205f8282546105c69190610e56565b9250508190555034810361063557600233908060018154018082558091505060019003905f5260205f20015f9091909190916101000a81548173ffffffffffffffffffffffffffffffffffffffff021916908373ffffffffffffffffffffffffffffffffffffffff1602179055505b3460035f8282546106469190610e56565b925050819055507f0553260a2e46b0577270d8992db02d30856ca880144c72d6e9503760946aef13333460405161067e929190610e89565b60405180910390a1610690338261085f565b50565b61069b610717565b5f73ffffffffffffffffffffffffffffffffffffffff168173ffffffffffffffffffffffffffffffffffffffff160361070b575f6040517f1e4fbdf70000000000000000000000000000000000000000000000000000000081526004016107029190610d4d565b60405180910390fd5b6107148161079e565b50565b61071f6109f0565b73ffffffffffffffffffffffffffffffffffffffff1661073d610434565b73ffffffffffffffffffffffffffffffffffffffff161461079c576107606109f0565b6040517f118cdaa70000000000000000000000000000000000000000000000000000000081526004016107939190610d4d565b60405180910390fd5b565b5f5f5f9054906101000a900473ffffffffffffffffffffffffffffffffffffffff169050815f5f6101000a81548173ffffffffffffffffffffffffffffffffffffffff021916908373ffffffffffffffffffffffffffffffffffffffff1602179055508173ffffffffffffffffffffffffffffffffffffffff168173ffffffffffffffffffffffffffffffffffffffff167f8be0079c531659141344cd1fd0a4f28419497f9722a3daafe3b4186f6b6457e060405160405180910390a35050565b600760026003811061087457610873610dbb565b5b01548111156109ec575f7fffffffffffffffffffffffffffffffffffffffffffffffffffffffffffffffff90505f5f90505b600381101561092b578373ffffffffffffffffffffffffffffffffffffffff16600482600381106108da576108d9610dbb565b5b015f9054906101000a900473ffffffffffffffffffffffffffffffffffffffff1673ffffffffffffffffffffffffffffffffffffffff160361091e5780915061092b565b80806001019150506108a6565b507fffffffffffffffffffffffffffffffffffffffffffffffffffffffffffffffff811461097257816007826003811061096857610967610dbb565b5b01819055506109e2565b82600460026003811061098857610987610dbb565b5b015f6101000a81548173ffffffffffffffffffffffffffffffffffffffff021916908373ffffffffffffffffffffffffffffffffffffffff1602179055508160076002600381106109dc576109db610dbb565b5b01819055505b6109ea6109f7565b505b5050565b5f33905090565b5f5f90505b6002811015610c22575f5f90505b816002610a179190610eb0565b811015610c14576007600182610a2d9190610e56565b60038110610a3e57610a3d610dbb565b5b015460078260038110610a5457610a53610dbb565b5b01541015610c07576007600182610a6b9190610e56565b60038110610a7c57610a7b610dbb565b5b015460078260038110610a9257610a91610dbb565b5b015460078360038110610aa857610aa7610dbb565b5b015f6007600186610ab99190610e56565b60038110610aca57610ac9610dbb565b5b015f8491905055839190505550506004600182610ae79190610e56565b60038110610af857610af7610dbb565b5b015f9054906101000a900473ffffffffffffffffffffffffffffffffffffffff1660048260038110610b2d57610b2c610dbb565b5b015f9054906101000a900473ffffffffffffffffffffffffffffffffffffffff1660048360038110610b6257610b61610dbb565b5b015f6004600186610b739190610e56565b60038110610b8457610b83610dbb565b5b015f8491906101000a81548173ffffffffffffffffffffffffffffffffffffffff021916908373ffffffffffffffffffffffffffffffffffffffff1602179055508391906101000a81548173ffffffffffffffffffffffffffffffffffffffff021916908373ffffffffffffffffffffffffffffffffffffffff16021790555050505b8080600101915050610a0a565b5080806001019150506109fc565b50565b5f73ffffffffffffffffffffffffffffffffffffffff82169050919050565b5f610c4e82610c25565b9050919050565b610c5e81610c44565b82525050565b5f819050919050565b610c7681610c64565b82525050565b5f60c082019050610c8f5f830189610c55565b610c9c6020830188610c6d565b610ca96040830187610c55565b610cb66060830186610c6d565b610cc36080830185610c55565b610cd060a0830184610c6d565b979650505050505050565b5f5ffd5b610ce881610c44565b8114610cf2575f5ffd5b50565b5f81359050610d0381610cdf565b92915050565b5f60208284031215610d1e57610d1d610cdb565b5b5f610d2b84828501610cf5565b91505092915050565b5f602082019050610d475f830184610c6d565b92915050565b5f602082019050610d605f830184610c55565b92915050565b610d6f81610c64565b8114610d79575f5ffd5b50565b5f81359050610d8a81610d66565b92915050565b5f60208284031215610da557610da4610cdb565b5b5f610db284828501610d7c565b91505092915050565b7f4e487b71000000000000000000000000000000000000000000000000000000005f52603260045260245ffd5b5f81905092915050565b50565b5f610e005f83610de8565b9150610e0b82610df2565b5f82019050919050565b5f610e1f82610df5565b9150819050919050565b7f4e487b71000000000000000000000000000000000000000000000000000000005f52601160045260245ffd5b5f610e6082610c64565b9150610e6b83610c64565b9250828201905080821115610e8357610e82610e29565b5b92915050565b5f604082019050610e9c5f830185610c55565b610ea96020830184610c6d565b9392505050565b5f610eba82610c64565b9150610ec583610c64565b9250828203905081811115610edd57610edc610e29565b5b9291505056fea2646970667358221220e82e8cf91aba4b1957d209aa1e401dfa695fdb24fba2a871ef883c525c0a42e364736f6c63430008220033",
			"opcodes": "PUSH1 0xA0 PUSH1 0x40 MSTORE CALLVALUE DUP1 ISZERO PUSH2 0xF JUMPI PUSH0 PUSH0 REVERT JUMPDEST POP PUSH1 0x40 MLOAD PUSH2 0x11DA CODESIZE SUB DUP1 PUSH2 0x11DA DUP4 CODECOPY DUP2 DUP2 ADD PUSH1 0x40 MSTORE DUP2 ADD SWAP1 PUSH2 0x31 SWAP2 SWAP1 PUSH2 0x1ED JUMP JUMPDEST DUP1 PUSH0 PUSH20 0xFFFFFFFFFFFFFFFFFFFFFFFFFFFFFFFFFFFFFFFF AND DUP2 PUSH20 0xFFFFFFFFFFFFFFFFFFFFFFFFFFFFFFFFFFFFFFFF AND SUB PUSH2 0xA2 JUMPI PUSH0 PUSH1 0x40 MLOAD PUSH32 0x1E4FBDF700000000000000000000000000000000000000000000000000000000 DUP2 MSTORE PUSH1 0x4 ADD PUSH2 0x99 SWAP2 SWAP1 PUSH2 0x227 JUMP JUMPDEST PUSH1 0x40 MLOAD DUP1 SWAP2 SUB SWAP1 REVERT JUMPDEST PUSH2 0xB1 DUP2 PUSH2 0xCE PUSH1 0x20 SHL PUSH1 0x20 SHR JUMP JUMPDEST POP PUSH3 0x15180 TIMESTAMP PUSH2 0xC1 SWAP2 SWAP1 PUSH2 0x276 JUMP JUMPDEST PUSH1 0x80 DUP2 DUP2 MSTORE POP POP POP PUSH2 0x2A9 JUMP JUMPDEST PUSH0 PUSH0 PUSH0 SWAP1 SLOAD SWAP1 PUSH2 0x100 EXP SWAP1 DIV PUSH20 0xFFFFFFFFFFFFFFFFFFFFFFFFFFFFFFFFFFFFFFFF AND SWAP1 POP DUP2 PUSH0 PUSH0 PUSH2 0x100 EXP DUP2 SLOAD DUP2 PUSH20 0xFFFFFFFFFFFFFFFFFFFFFFFFFFFFFFFFFFFFFFFF MUL NOT AND SWAP1 DUP4 PUSH20 0xFFFFFFFFFFFFFFFFFFFFFFFFFFFFFFFFFFFFFFFF AND MUL OR SWAP1 SSTORE POP DUP2 PUSH20 0xFFFFFFFFFFFFFFFFFFFFFFFFFFFFFFFFFFFFFFFF AND DUP2 PUSH20 0xFFFFFFFFFFFFFFFFFFFFFFFFFFFFFFFFFFFFFFFF AND PUSH32 0x8BE0079C531659141344CD1FD0A4F28419497F9722A3DAAFE3B4186F6B6457E0 PUSH1 0x40 MLOAD PUSH1 0x40 MLOAD DUP1 SWAP2 SUB SWAP1 LOG3 POP POP JUMP JUMPDEST PUSH0 PUSH0 REVERT JUMPDEST PUSH0 PUSH20 0xFFFFFFFFFFFFFFFFFFFFFFFFFFFFFFFFFFFFFFFF DUP3 AND SWAP1 POP SWAP2 SWAP1 POP JUMP JUMPDEST PUSH0 PUSH2 0x1BC DUP3 PUSH2 0x193 JUMP JUMPDEST SWAP1 POP SWAP2 SWAP1 POP JUMP JUMPDEST PUSH2 0x1CC DUP2 PUSH2 0x1B2 JUMP JUMPDEST DUP2 EQ PUSH2 0x1D6 JUMPI PUSH0 PUSH0 REVERT JUMPDEST POP JUMP JUMPDEST PUSH0 DUP2 MLOAD SWAP1 POP PUSH2 0x1E7 DUP2 PUSH2 0x1C3 JUMP JUMPDEST SWAP3 SWAP2 POP POP JUMP JUMPDEST PUSH0 PUSH1 0x20 DUP3 DUP5 SUB SLT ISZERO PUSH2 0x202 JUMPI PUSH2 0x201 PUSH2 0x18F JUMP JUMPDEST JUMPDEST PUSH0 PUSH2 0x20F DUP5 DUP3 DUP6 ADD PUSH2 0x1D9 JUMP JUMPDEST SWAP2 POP POP SWAP3 SWAP2 POP POP JUMP JUMPDEST PUSH2 0x221 DUP2 PUSH2 0x1B2 JUMP JUMPDEST DUP3 MSTORE POP POP JUMP JUMPDEST PUSH0 PUSH1 0x20 DUP3 ADD SWAP1 POP PUSH2 0x23A PUSH0 DUP4 ADD DUP5 PUSH2 0x218 JUMP JUMPDEST SWAP3 SWAP2 POP POP JUMP JUMPDEST PUSH0 DUP2 SWAP1 POP SWAP2 SWAP1 POP JUMP JUMPDEST PUSH32 0x4E487B7100000000000000000000000000000000000000000000000000000000 PUSH0 MSTORE PUSH1 0x11 PUSH1 0x4 MSTORE PUSH1 0x24 PUSH0 REVERT JUMPDEST PUSH0 PUSH2 0x280 DUP3 PUSH2 0x240 JUMP JUMPDEST SWAP2 POP PUSH2 0x28B DUP4 PUSH2 0x240 JUMP JUMPDEST SWAP3 POP DUP3 DUP3 ADD SWAP1 POP DUP1 DUP3 GT ISZERO PUSH2 0x2A3 JUMPI PUSH2 0x2A2 PUSH2 0x249 JUMP JUMPDEST JUMPDEST SWAP3 SWAP2 POP POP JUMP JUMPDEST PUSH1 0x80 MLOAD PUSH2 0xF19 PUSH2 0x2C1 PUSH0 CODECOPY PUSH0 PUSH2 0x49E ADD MSTORE PUSH2 0xF19 PUSH0 RETURN INVALID PUSH1 0x80 PUSH1 0x40 MSTORE PUSH1 0x4 CALLDATASIZE LT PUSH2 0x85 JUMPI PUSH0 CALLDATALOAD PUSH1 0xE0 SHR DUP1 PUSH4 0x8DA5CB5B GT PUSH2 0x58 JUMPI DUP1 PUSH4 0x8DA5CB5B EQ PUSH2 0x120 JUMPI DUP1 PUSH4 0xAC62F566 EQ PUSH2 0x14A JUMPI DUP1 PUSH4 0xDFEB3022 EQ PUSH2 0x186 JUMPI DUP1 PUSH4 0xED88C68E EQ PUSH2 0x1B0 JUMPI DUP1 PUSH4 0xF2FDE38B EQ PUSH2 0x1BA JUMPI PUSH2 0x85 JUMP JUMPDEST DUP1 PUSH4 0x2D1E2518 EQ PUSH2 0x89 JUMPI DUP1 PUSH4 0x3CCFD60B EQ PUSH2 0xB8 JUMPI DUP1 PUSH4 0x410A1D32 EQ PUSH2 0xCE JUMPI DUP1 PUSH4 0x715018A6 EQ PUSH2 0x10A JUMPI JUMPDEST PUSH0 PUSH0 REVERT JUMPDEST CALLVALUE DUP1 ISZERO PUSH2 0x94 JUMPI PUSH0 PUSH0 REVERT JUMPDEST POP PUSH2 0x9D PUSH2 0x1E2 JUMP JUMPDEST PUSH1 0x40 MLOAD PUSH2 0xAF SWAP7 SWAP6 SWAP5 SWAP4 SWAP3 SWAP2 SWAP1 PUSH2 0xC7C JUMP JUMPDEST PUSH1 0x40 MLOAD DUP1 SWAP2 SUB SWAP1 RETURN JUMPDEST CALLVALUE DUP1 ISZERO PUSH2 0xC3 JUMPI PUSH0 PUSH0 REVERT JUMPDEST POP PUSH2 0xCC PUSH2 0x2E1 JUMP JUMPDEST STOP JUMPDEST CALLVALUE DUP1 ISZERO PUSH2 0xD9 JUMPI PUSH0 PUSH0 REVERT JUMPDEST POP PUSH2 0xF4 PUSH1 0x4 DUP1 CALLDATASIZE SUB DUP2 ADD SWAP1 PUSH2 0xEF SWAP2 SWAP1 PUSH2 0xD09 JUMP JUMPDEST PUSH2 0x3DB JUMP JUMPDEST PUSH1 0x40 MLOAD PUSH2 0x101 SWAP2 SWAP1 PUSH2 0xD34 JUMP JUMPDEST PUSH1 0x40 MLOAD DUP1 SWAP2 SUB SWAP1 RETURN JUMPDEST CALLVALUE DUP1 ISZERO PUSH2 0x115 JUMPI PUSH0 PUSH0 REVERT JUMPDEST POP PUSH2 0x11E PUSH2 0x421 JUMP JUMPDEST STOP JUMPDEST CALLVALUE DUP1 ISZERO PUSH2 0x12B JUMPI PUSH0 PUSH0 REVERT JUMPDEST POP PUSH2 0x134 PUSH2 0x434 JUMP JUMPDEST PUSH1 0x40 MLOAD PUSH2 0x141 SWAP2 SWAP1 PUSH2 0xD4D JUMP JUMPDEST PUSH1 0x40 MLOAD DUP1 SWAP2 SUB SWAP1 RETURN JUMPDEST CALLVALUE DUP1 ISZERO PUSH2 0x155 JUMPI PUSH0 PUSH0 REVERT JUMPDEST POP PUSH2 0x170 PUSH1 0x4 DUP1 CALLDATASIZE SUB DUP2 ADD SWAP1 PUSH2 0x16B SWAP2 SWAP1 PUSH2 0xD90 JUMP JUMPDEST PUSH2 0x45B JUMP JUMPDEST PUSH1 0x40 MLOAD PUSH2 0x17D SWAP2 SWAP1 PUSH2 0xD4D JUMP JUMPDEST PUSH1 0x40 MLOAD DUP1 SWAP2 SUB SWAP1 RETURN JUMPDEST CALLVALUE DUP1 ISZERO PUSH2 0x191 JUMPI PUSH0 PUSH0 REVERT JUMPDEST POP PUSH2 0x19A PUSH2 0x496 JUMP JUMPDEST PUSH1 0x40 MLOAD PUSH2 0x1A7 SWAP2 SWAP1 PUSH2 0xD34 JUMP JUMPDEST PUSH1 0x40 MLOAD DUP1 SWAP2 SUB SWAP1 RETURN JUMPDEST PUSH2 0x1B8 PUSH2 0x49C JUMP JUMPDEST STOP JUMPDEST CALLVALUE DUP1 ISZERO PUSH2 0x1C5 JUMPI PUSH0 PUSH0 REVERT JUMPDEST POP PUSH2 0x1E0 PUSH1 0x4 DUP1 CALLDATASIZE SUB DUP2 ADD SWAP1 PUSH2 0x1DB SWAP2 SWAP1 PUSH2 0xD09 JUMP JUMPDEST PUSH2 0x693 JUMP JUMPDEST STOP JUMPDEST PUSH0 PUSH0 PUSH0 PUSH0 PUSH0 PUSH0 PUSH1 0x4 PUSH0 PUSH1 0x3 DUP2 LT PUSH2 0x1FC JUMPI PUSH2 0x1FB PUSH2 0xDBB JUMP JUMPDEST JUMPDEST ADD PUSH0 SWAP1 SLOAD SWAP1 PUSH2 0x100 EXP SWAP1 DIV PUSH20 0xFFFFFFFFFFFFFFFFFFFFFFFFFFFFFFFFFFFFFFFF AND PUSH1 0x7 PUSH0 PUSH1 0x3 DUP2 LT PUSH2 0x231 JUMPI PUSH2 0x230 PUSH2 0xDBB JUMP JUMPDEST JUMPDEST ADD SLOAD PUSH1 0x4 PUSH1 0x1 PUSH1 0x3 DUP2 LT PUSH2 0x248 JUMPI PUSH2 0x247 PUSH2 0xDBB JUMP JUMPDEST JUMPDEST ADD PUSH0 SWAP1 SLOAD SWAP1 PUSH2 0x100 EXP SWAP1 DIV PUSH20 0xFFFFFFFFFFFFFFFFFFFFFFFFFFFFFFFFFFFFFFFF AND PUSH1 0x7 PUSH1 0x1 PUSH1 0x3 DUP2 LT PUSH2 0x27E JUMPI PUSH2 0x27D PUSH2 0xDBB JUMP JUMPDEST JUMPDEST ADD SLOAD PUSH1 0x4 PUSH1 0x2 PUSH1 0x3 DUP2 LT PUSH2 0x295 JUMPI PUSH2 0x294 PUSH2 0xDBB JUMP JUMPDEST JUMPDEST ADD PUSH0 SWAP1 SLOAD SWAP1 PUSH2 0x100 EXP SWAP1 DIV PUSH20 0xFFFFFFFFFFFFFFFFFFFFFFFFFFFFFFFFFFFFFFFF AND PUSH1 0x7 PUSH1 0x2 PUSH1 0x3 DUP2 LT PUSH2 0x2CB JUMPI PUSH2 0x2CA PUSH2 0xDBB JUMP JUMPDEST JUMPDEST ADD SLOAD SWAP6 POP SWAP6 POP SWAP6 POP SWAP6 POP SWAP6 POP SWAP6 POP SWAP1 SWAP2 SWAP3 SWAP4 SWAP5 SWAP6 JUMP JUMPDEST PUSH2 0x2E9 PUSH2 0x717 JUMP JUMPDEST PUSH0 PUSH1 0x3 SLOAD SUB PUSH2 0x324 JUMPI PUSH1 0x40 MLOAD PUSH32 0x469EA76800000000000000000000000000000000000000000000000000000000 DUP2 MSTORE PUSH1 0x4 ADD PUSH1 0x40 MLOAD DUP1 SWAP2 SUB SWAP1 REVERT JUMPDEST PUSH0 PUSH1 0x3 SLOAD SWAP1 POP PUSH0 PUSH1 0x3 DUP2 SWAP1 SSTORE POP PUSH0 PUSH2 0x33A PUSH2 0x434 JUMP JUMPDEST PUSH20 0xFFFFFFFFFFFFFFFFFFFFFFFFFFFFFFFFFFFFFFFF AND DUP3 PUSH1 0x40 MLOAD PUSH2 0x35D SWAP1 PUSH2 0xE15 JUMP JUMPDEST PUSH0 PUSH1 0x40 MLOAD DUP1 DUP4 SUB DUP2 DUP6 DUP8 GAS CALL SWAP3 POP POP POP RETURNDATASIZE DUP1 PUSH0 DUP2 EQ PUSH2 0x397 JUMPI PUSH1 0x40 MLOAD SWAP2 POP PUSH1 0x1F NOT PUSH1 0x3F RETURNDATASIZE ADD AND DUP3 ADD PUSH1 0x40 MSTORE RETURNDATASIZE DUP3 MSTORE RETURNDATASIZE PUSH0 PUSH1 0x20 DUP5 ADD RETURNDATACOPY PUSH2 0x39C JUMP JUMPDEST PUSH1 0x60 SWAP2 POP JUMPDEST POP POP SWAP1 POP DUP1 PUSH2 0x3D7 JUMPI PUSH1 0x40 MLOAD PUSH32 0x750B219C00000000000000000000000000000000000000000000000000000000 DUP2 MSTORE PUSH1 0x4 ADD PUSH1 0x40 MLOAD DUP1 SWAP2 SUB SWAP1 REVERT JUMPDEST POP POP JUMP JUMPDEST PUSH0 PUSH1 0x1 PUSH0 DUP4 PUSH20 0xFFFFFFFFFFFFFFFFFFFFFFFFFFFFFFFFFFFFFFFF AND PUSH20 0xFFFFFFFFFFFFFFFFFFFFFFFFFFFFFFFFFFFFFFFF AND DUP2 MSTORE PUSH1 0x20 ADD SWAP1 DUP2 MSTORE PUSH1 0x20 ADD PUSH0 KECCAK256 SLOAD SWAP1 POP SWAP2 SWAP1 POP JUMP JUMPDEST PUSH2 0x429 PUSH2 0x717 JUMP JUMPDEST PUSH2 0x432 PUSH0 PUSH2 0x79E JUMP JUMPDEST JUMP JUMPDEST PUSH0 PUSH0 PUSH0 SWAP1 SLOAD SWAP1 PUSH2 0x100 EXP SWAP1 DIV PUSH20 0xFFFFFFFFFFFFFFFFFFFFFFFFFFFFFFFFFFFFFFFF AND SWAP1 POP SWAP1 JUMP JUMPDEST PUSH1 0x2 DUP2 DUP2 SLOAD DUP2 LT PUSH2 0x46A JUMPI PUSH0 DUP1 REVERT JUMPDEST SWAP1 PUSH0 MSTORE PUSH1 0x20 PUSH0 KECCAK256 ADD PUSH0 SWAP2 POP SLOAD SWAP1 PUSH2 0x100 EXP SWAP1 DIV PUSH20 0xFFFFFFFFFFFFFFFFFFFFFFFFFFFFFFFFFFFFFFFF AND DUP2 JUMP JUMPDEST PUSH1 0x3 SLOAD DUP2 JUMP JUMPDEST PUSH32 0x0 TIMESTAMP LT PUSH2 0x4F5 JUMPI PUSH1 0x40 MLOAD PUSH32 0xC8CAF0C200000000000000000000000000000000000000000000000000000000 DUP2 MSTORE PUSH1 0x4 ADD PUSH1 0x40 MLOAD DUP1 SWAP2 SUB SWAP1 REVERT JUMPDEST PUSH0 CALLVALUE GT PUSH2 0x52E JUMPI PUSH1 0x40 MLOAD PUSH32 0x469EA76800000000000000000000000000000000000000000000000000000000 DUP2 MSTORE PUSH1 0x4 ADD PUSH1 0x40 MLOAD DUP1 SWAP2 SUB SWAP1 REVERT JUMPDEST PUSH0 CALLVALUE PUSH1 0x1 PUSH0 CALLER PUSH20 0xFFFFFFFFFFFFFFFFFFFFFFFFFFFFFFFFFFFFFFFF AND PUSH20 0xFFFFFFFFFFFFFFFFFFFFFFFFFFFFFFFFFFFFFFFF AND DUP2 MSTORE PUSH1 0x20 ADD SWAP1 DUP2 MSTORE PUSH1 0x20 ADD PUSH0 KECCAK256 SLOAD PUSH2 0x578 SWAP2 SWAP1 PUSH2 0xE56 JUMP JUMPDEST SWAP1 POP CALLVALUE PUSH1 0x1 PUSH0 CALLER PUSH20 0xFFFFFFFFFFFFFFFFFFFFFFFFFFFFFFFFFFFFFFFF AND PUSH20 0xFFFFFFFFFFFFFFFFFFFFFFFFFFFFFFFFFFFFFFFF AND DUP2 MSTORE PUSH1 0x20 ADD SWAP1 DUP2 MSTORE PUSH1 0x20 ADD PUSH0 KECCAK256 PUSH0 DUP3 DUP3 SLOAD PUSH2 0x5C6 SWAP2 SWAP1 PUSH2 0xE56 JUMP JUMPDEST SWAP3 POP POP DUP2 SWAP1 SSTORE POP CALLVALUE DUP2 SUB PUSH2 0x635 JUMPI PUSH1 0x2 CALLER SWAP1 DUP1 PUSH1 0x1 DUP2 SLOAD ADD DUP1 DUP3 SSTORE DUP1 SWAP2 POP POP PUSH1 0x1 SWAP1 SUB SWAP1 PUSH0 MSTORE PUSH1 0x20 PUSH0 KECCAK256 ADD PUSH0 SWAP1 SWAP2 SWAP1 SWAP2 SWAP1 SWAP2 PUSH2 0x100 EXP DUP2 SLOAD DUP2 PUSH20 0xFFFFFFFFFFFFFFFFFFFFFFFFFFFFFFFFFFFFFFFF MUL NOT AND SWAP1 DUP4 PUSH20 0xFFFFFFFFFFFFFFFFFFFFFFFFFFFFFFFFFFFFFFFF AND MUL OR SWAP1 SSTORE POP JUMPDEST CALLVALUE PUSH1 0x3 PUSH0 DUP3 DUP3 SLOAD PUSH2 0x646 SWAP2 SWAP1 PUSH2 0xE56 JUMP JUMPDEST SWAP3 POP POP DUP2 SWAP1 SSTORE POP PUSH32 0x553260A2E46B0577270D8992DB02D30856CA880144C72D6E9503760946AEF13 CALLER CALLVALUE PUSH1 0x40 MLOAD PUSH2 0x67E SWAP3 SWAP2 SWAP1 PUSH2 0xE89 JUMP JUMPDEST PUSH1 0x40 MLOAD DUP1 SWAP2 SUB SWAP1 LOG1 PUSH2 0x690 CALLER DUP3 PUSH2 0x85F JUMP JUMPDEST POP JUMP JUMPDEST PUSH2 0x69B PUSH2 0x717 JUMP JUMPDEST PUSH0 PUSH20 0xFFFFFFFFFFFFFFFFFFFFFFFFFFFFFFFFFFFFFFFF AND DUP2 PUSH20 0xFFFFFFFFFFFFFFFFFFFFFFFFFFFFFFFFFFFFFFFF AND SUB PUSH2 0x70B JUMPI PUSH0 PUSH1 0x40 MLOAD PUSH32 0x1E4FBDF700000000000000000000000000000000000000000000000000000000 DUP2 MSTORE PUSH1 0x4 ADD PUSH2 0x702 SWAP2 SWAP1 PUSH2 0xD4D JUMP JUMPDEST PUSH1 0x40 MLOAD DUP1 SWAP2 SUB SWAP1 REVERT JUMPDEST PUSH2 0x714 DUP2 PUSH2 0x79E JUMP JUMPDEST POP JUMP JUMPDEST PUSH2 0x71F PUSH2 0x9F0 JUMP JUMPDEST PUSH20 0xFFFFFFFFFFFFFFFFFFFFFFFFFFFFFFFFFFFFFFFF AND PUSH2 0x73D PUSH2 0x434 JUMP JUMPDEST PUSH20 0xFFFFFFFFFFFFFFFFFFFFFFFFFFFFFFFFFFFFFFFF AND EQ PUSH2 0x79C JUMPI PUSH2 0x760 PUSH2 0x9F0 JUMP JUMPDEST PUSH1 0x40 MLOAD PUSH32 0x118CDAA700000000000000000000000000000000000000000000000000000000 DUP2 MSTORE PUSH1 0x4 ADD PUSH2 0x793 SWAP2 SWAP1 PUSH2 0xD4D JUMP JUMPDEST PUSH1 0x40 MLOAD DUP1 SWAP2 SUB SWAP1 REVERT JUMPDEST JUMP JUMPDEST PUSH0 PUSH0 PUSH0 SWAP1 SLOAD SWAP1 PUSH2 0x100 EXP SWAP1 DIV PUSH20 0xFFFFFFFFFFFFFFFFFFFFFFFFFFFFFFFFFFFFFFFF AND SWAP1 POP DUP2 PUSH0 PUSH0 PUSH2 0x100 EXP DUP2 SLOAD DUP2 PUSH20 0xFFFFFFFFFFFFFFFFFFFFFFFFFFFFFFFFFFFFFFFF MUL NOT AND SWAP1 DUP4 PUSH20 0xFFFFFFFFFFFFFFFFFFFFFFFFFFFFFFFFFFFFFFFF AND MUL OR SWAP1 SSTORE POP DUP2 PUSH20 0xFFFFFFFFFFFFFFFFFFFFFFFFFFFFFFFFFFFFFFFF AND DUP2 PUSH20 0xFFFFFFFFFFFFFFFFFFFFFFFFFFFFFFFFFFFFFFFF AND PUSH32 0x8BE0079C531659141344CD1FD0A4F28419497F9722A3DAAFE3B4186F6B6457E0 PUSH1 0x40 MLOAD PUSH1 0x40 MLOAD DUP1 SWAP2 SUB SWAP1 LOG3 POP POP JUMP JUMPDEST PUSH1 0x7 PUSH1 0x2 PUSH1 0x3 DUP2 LT PUSH2 0x874 JUMPI PUSH2 0x873 PUSH2 0xDBB JUMP JUMPDEST JUMPDEST ADD SLOAD DUP2 GT ISZERO PUSH2 0x9EC JUMPI PUSH0 PUSH32 0xFFFFFFFFFFFFFFFFFFFFFFFFFFFFFFFFFFFFFFFFFFFFFFFFFFFFFFFFFFFFFFFF SWAP1 POP PUSH0 PUSH0 SWAP1 POP JUMPDEST PUSH1 0x3 DUP2 LT ISZERO PUSH2 0x92B JUMPI DUP4 PUSH20 0xFFFFFFFFFFFFFFFFFFFFFFFFFFFFFFFFFFFFFFFF AND PUSH1 0x4 DUP3 PUSH1 0x3 DUP2 LT PUSH2 0x8DA JUMPI PUSH2 0x8D9 PUSH2 0xDBB JUMP JUMPDEST JUMPDEST ADD PUSH0 SWAP1 SLOAD SWAP1 PUSH2 0x100 EXP SWAP1 DIV PUSH20 0xFFFFFFFFFFFFFFFFFFFFFFFFFFFFFFFFFFFFFFFF AND PUSH20 0xFFFFFFFFFFFFFFFFFFFFFFFFFFFFFFFFFFFFFFFF AND SUB PUSH2 0x91E JUMPI DUP1 SWAP2 POP PUSH2 0x92B JUMP JUMPDEST DUP1 DUP1 PUSH1 0x1 ADD SWAP2 POP POP PUSH2 0x8A6 JUMP JUMPDEST POP PUSH32 0xFFFFFFFFFFFFFFFFFFFFFFFFFFFFFFFFFFFFFFFFFFFFFFFFFFFFFFFFFFFFFFFF DUP2 EQ PUSH2 0x972 JUMPI DUP2 PUSH1 0x7 DUP3 PUSH1 0x3 DUP2 LT PUSH2 0x968 JUMPI PUSH2 0x967 PUSH2 0xDBB JUMP JUMPDEST JUMPDEST ADD DUP2 SWAP1 SSTORE POP PUSH2 0x9E2 JUMP JUMPDEST DUP3 PUSH1 0x4 PUSH1 0x2 PUSH1 0x3 DUP2 LT PUSH2 0x988 JUMPI PUSH2 0x987 PUSH2 0xDBB JUMP JUMPDEST JUMPDEST ADD PUSH0 PUSH2 0x100 EXP DUP2 SLOAD DUP2 PUSH20 0xFFFFFFFFFFFFFFFFFFFFFFFFFFFFFFFFFFFFFFFF MUL NOT AND SWAP1 DUP4 PUSH20 0xFFFFFFFFFFFFFFFFFFFFFFFFFFFFFFFFFFFFFFFF AND MUL OR SWAP1 SSTORE POP DUP2 PUSH1 0x7 PUSH1 0x2 PUSH1 0x3 DUP2 LT PUSH2 0x9DC JUMPI PUSH2 0x9DB PUSH2 0xDBB JUMP JUMPDEST JUMPDEST ADD DUP2 SWAP1 SSTORE POP JUMPDEST PUSH2 0x9EA PUSH2 0x9F7 JUMP JUMPDEST POP JUMPDEST POP POP JUMP JUMPDEST PUSH0 CALLER SWAP1 POP SWAP1 JUMP JUMPDEST PUSH0 PUSH0 SWAP1 POP JUMPDEST PUSH1 0x2 DUP2 LT ISZERO PUSH2 0xC22 JUMPI PUSH0 PUSH0 SWAP1 POP JUMPDEST DUP2 PUSH1 0x2 PUSH2 0xA17 SWAP2 SWAP1 PUSH2 0xEB0 JUMP JUMPDEST DUP2 LT ISZERO PUSH2 0xC14 JUMPI PUSH1 0x7 PUSH1 0x1 DUP3 PUSH2 0xA2D SWAP2 SWAP1 PUSH2 0xE56 JUMP JUMPDEST PUSH1 0x3 DUP2 LT PUSH2 0xA3E JUMPI PUSH2 0xA3D PUSH2 0xDBB JUMP JUMPDEST JUMPDEST ADD SLOAD PUSH1 0x7 DUP3 PUSH1 0x3 DUP2 LT PUSH2 0xA54 JUMPI PUSH2 0xA53 PUSH2 0xDBB JUMP JUMPDEST JUMPDEST ADD SLOAD LT ISZERO PUSH2 0xC07 JUMPI PUSH1 0x7 PUSH1 0x1 DUP3 PUSH2 0xA6B SWAP2 SWAP1 PUSH2 0xE56 JUMP JUMPDEST PUSH1 0x3 DUP2 LT PUSH2 0xA7C JUMPI PUSH2 0xA7B PUSH2 0xDBB JUMP JUMPDEST JUMPDEST ADD SLOAD PUSH1 0x7 DUP3 PUSH1 0x3 DUP2 LT PUSH2 0xA92 JUMPI PUSH2 0xA91 PUSH2 0xDBB JUMP JUMPDEST JUMPDEST ADD SLOAD PUSH1 0x7 DUP4 PUSH1 0x3 DUP2 LT PUSH2 0xAA8 JUMPI PUSH2 0xAA7 PUSH2 0xDBB JUMP JUMPDEST JUMPDEST ADD PUSH0 PUSH1 0x7 PUSH1 0x1 DUP7 PUSH2 0xAB9 SWAP2 SWAP1 PUSH2 0xE56 JUMP JUMPDEST PUSH1 0x3 DUP2 LT PUSH2 0xACA JUMPI PUSH2 0xAC9 PUSH2 0xDBB JUMP JUMPDEST JUMPDEST ADD PUSH0 DUP5 SWAP2 SWAP1 POP SSTORE DUP4 SWAP2 SWAP1 POP SSTORE POP POP PUSH1 0x4 PUSH1 0x1 DUP3 PUSH2 0xAE7 SWAP2 SWAP1 PUSH2 0xE56 JUMP JUMPDEST PUSH1 0x3 DUP2 LT PUSH2 0xAF8 JUMPI PUSH2 0xAF7 PUSH2 0xDBB JUMP JUMPDEST JUMPDEST ADD PUSH0 SWAP1 SLOAD SWAP1 PUSH2 0x100 EXP SWAP1 DIV PUSH20 0xFFFFFFFFFFFFFFFFFFFFFFFFFFFFFFFFFFFFFFFF AND PUSH1 0x4 DUP3 PUSH1 0x3 DUP2 LT PUSH2 0xB2D JUMPI PUSH2 0xB2C PUSH2 0xDBB JUMP JUMPDEST JUMPDEST ADD PUSH0 SWAP1 SLOAD SWAP1 PUSH2 0x100 EXP SWAP1 DIV PUSH20 0xFFFFFFFFFFFFFFFFFFFFFFFFFFFFFFFFFFFFFFFF AND PUSH1 0x4 DUP4 PUSH1 0x3 DUP2 LT PUSH2 0xB62 JUMPI PUSH2 0xB61 PUSH2 0xDBB JUMP JUMPDEST JUMPDEST ADD PUSH0 PUSH1 0x4 PUSH1 0x1 DUP7 PUSH2 0xB73 SWAP2 SWAP1 PUSH2 0xE56 JUMP JUMPDEST PUSH1 0x3 DUP2 LT PUSH2 0xB84 JUMPI PUSH2 0xB83 PUSH2 0xDBB JUMP JUMPDEST JUMPDEST ADD PUSH0 DUP5 SWAP2 SWAP1 PUSH2 0x100 EXP DUP2 SLOAD DUP2 PUSH20 0xFFFFFFFFFFFFFFFFFFFFFFFFFFFFFFFFFFFFFFFF MUL NOT AND SWAP1 DUP4 PUSH20 0xFFFFFFFFFFFFFFFFFFFFFFFFFFFFFFFFFFFFFFFF AND MUL OR SWAP1 SSTORE POP DUP4 SWAP2 SWAP1 PUSH2 0x100 EXP DUP2 SLOAD DUP2 PUSH20 0xFFFFFFFFFFFFFFFFFFFFFFFFFFFFFFFFFFFFFFFF MUL NOT AND SWAP1 DUP4 PUSH20 0xFFFFFFFFFFFFFFFFFFFFFFFFFFFFFFFFFFFFFFFF AND MUL OR SWAP1 SSTORE POP POP POP JUMPDEST DUP1 DUP1 PUSH1 0x1 ADD SWAP2 POP POP PUSH2 0xA0A JUMP JUMPDEST POP DUP1 DUP1 PUSH1 0x1 ADD SWAP2 POP POP PUSH2 0x9FC JUMP JUMPDEST POP JUMP JUMPDEST PUSH0 PUSH20 0xFFFFFFFFFFFFFFFFFFFFFFFFFFFFFFFFFFFFFFFF DUP3 AND SWAP1 POP SWAP2 SWAP1 POP JUMP JUMPDEST PUSH0 PUSH2 0xC4E DUP3 PUSH2 0xC25 JUMP JUMPDEST SWAP1 POP SWAP2 SWAP1 POP JUMP JUMPDEST PUSH2 0xC5E DUP2 PUSH2 0xC44 JUMP JUMPDEST DUP3 MSTORE POP POP JUMP JUMPDEST PUSH0 DUP2 SWAP1 POP SWAP2 SWAP1 POP JUMP JUMPDEST PUSH2 0xC76 DUP2 PUSH2 0xC64 JUMP JUMPDEST DUP3 MSTORE POP POP JUMP JUMPDEST PUSH0 PUSH1 0xC0 DUP3 ADD SWAP1 POP PUSH2 0xC8F PUSH0 DUP4 ADD DUP10 PUSH2 0xC55 JUMP JUMPDEST PUSH2 0xC9C PUSH1 0x20 DUP4 ADD DUP9 PUSH2 0xC6D JUMP JUMPDEST PUSH2 0xCA9 PUSH1 0x40 DUP4 ADD DUP8 PUSH2 0xC55 JUMP JUMPDEST PUSH2 0xCB6 PUSH1 0x60 DUP4 ADD DUP7 PUSH2 0xC6D JUMP JUMPDEST PUSH2 0xCC3 PUSH1 0x80 DUP4 ADD DUP6 PUSH2 0xC55 JUMP JUMPDEST PUSH2 0xCD0 PUSH1 0xA0 DUP4 ADD DUP5 PUSH2 0xC6D JUMP JUMPDEST SWAP8 SWAP7 POP POP POP POP POP POP POP JUMP JUMPDEST PUSH0 PUSH0 REVERT JUMPDEST PUSH2 0xCE8 DUP2 PUSH2 0xC44 JUMP JUMPDEST DUP2 EQ PUSH2 0xCF2 JUMPI PUSH0 PUSH0 REVERT JUMPDEST POP JUMP JUMPDEST PUSH0 DUP2 CALLDATALOAD SWAP1 POP PUSH2 0xD03 DUP2 PUSH2 0xCDF JUMP JUMPDEST SWAP3 SWAP2 POP POP JUMP JUMPDEST PUSH0 PUSH1 0x20 DUP3 DUP5 SUB SLT ISZERO PUSH2 0xD1E JUMPI PUSH2 0xD1D PUSH2 0xCDB JUMP JUMPDEST JUMPDEST PUSH0 PUSH2 0xD2B DUP5 DUP3 DUP6 ADD PUSH2 0xCF5 JUMP JUMPDEST SWAP2 POP POP SWAP3 SWAP2 POP POP JUMP JUMPDEST PUSH0 PUSH1 0x20 DUP3 ADD SWAP1 POP PUSH2 0xD47 PUSH0 DUP4 ADD DUP5 PUSH2 0xC6D JUMP JUMPDEST SWAP3 SWAP2 POP POP JUMP JUMPDEST PUSH0 PUSH1 0x20 DUP3 ADD SWAP1 POP PUSH2 0xD60 PUSH0 DUP4 ADD DUP5 PUSH2 0xC55 JUMP JUMPDEST SWAP3 SWAP2 POP POP JUMP JUMPDEST PUSH2 0xD6F DUP2 PUSH2 0xC64 JUMP JUMPDEST DUP2 EQ PUSH2 0xD79 JUMPI PUSH0 PUSH0 REVERT JUMPDEST POP JUMP JUMPDEST PUSH0 DUP2 CALLDATALOAD SWAP1 POP PUSH2 0xD8A DUP2 PUSH2 0xD66 JUMP JUMPDEST SWAP3 SWAP2 POP POP JUMP JUMPDEST PUSH0 PUSH1 0x20 DUP3 DUP5 SUB SLT ISZERO PUSH2 0xDA5 JUMPI PUSH2 0xDA4 PUSH2 0xCDB JUMP JUMPDEST JUMPDEST PUSH0 PUSH2 0xDB2 DUP5 DUP3 DUP6 ADD PUSH2 0xD7C JUMP JUMPDEST SWAP2 POP POP SWAP3 SWAP2 POP POP JUMP JUMPDEST PUSH32 0x4E487B7100000000000000000000000000000000000000000000000000000000 PUSH0 MSTORE PUSH1 0x32 PUSH1 0x4 MSTORE PUSH1 0x24 PUSH0 REVERT JUMPDEST PUSH0 DUP2 SWAP1 POP SWAP3 SWAP2 POP POP JUMP JUMPDEST POP JUMP JUMPDEST PUSH0 PUSH2 0xE00 PUSH0 DUP4 PUSH2 0xDE8 JUMP JUMPDEST SWAP2 POP PUSH2 0xE0B DUP3 PUSH2 0xDF2 JUMP JUMPDEST PUSH0 DUP3 ADD SWAP1 POP SWAP2 SWAP1 POP JUMP JUMPDEST PUSH0 PUSH2 0xE1F DUP3 PUSH2 0xDF5 JUMP JUMPDEST SWAP2 POP DUP2 SWAP1 POP SWAP2 SWAP1 POP JUMP JUMPDEST PUSH32 0x4E487B7100000000000000000000000000000000000000000000000000000000 PUSH0 MSTORE PUSH1 0x11 PUSH1 0x4 MSTORE PUSH1 0x24 PUSH0 REVERT JUMPDEST PUSH0 PUSH2 0xE60 DUP3 PUSH2 0xC64 JUMP JUMPDEST SWAP2 POP PUSH2 0xE6B DUP4 PUSH2 0xC64 JUMP JUMPDEST SWAP3 POP DUP3 DUP3 ADD SWAP1 POP DUP1 DUP3 GT ISZERO PUSH2 0xE83 JUMPI PUSH2 0xE82 PUSH2 0xE29 JUMP JUMPDEST JUMPDEST SWAP3 SWAP2 POP POP JUMP JUMPDEST PUSH0 PUSH1 0x40 DUP3 ADD SWAP1 POP PUSH2 0xE9C PUSH0 DUP4 ADD DUP6 PUSH2 0xC55 JUMP JUMPDEST PUSH2 0xEA9 PUSH1 0x20 DUP4 ADD DUP5 PUSH2 0xC6D JUMP JUMPDEST SWAP4 SWAP3 POP POP POP JUMP JUMPDEST PUSH0 PUSH2 0xEBA DUP3 PUSH2 0xC64 JUMP JUMPDEST SWAP2 POP PUSH2 0xEC5 DUP4 PUSH2 0xC64 JUMP JUMPDEST SWAP3 POP DUP3 DUP3 SUB SWAP1 POP DUP2 DUP2 GT ISZERO PUSH2 0xEDD JUMPI PUSH2 0xEDC PUSH2 0xE29 JUMP JUMPDEST JUMPDEST SWAP3 SWAP2 POP POP JUMP INVALID LOG2 PUSH5 0x6970667358 0x22 SLT KECCAK256 0xE8 0x2E DUP13 EXTDELEGATECALL BYTE 0xBA 0x4B NOT JUMPI 0xD2 MULMOD 0xAA CLZ BLOCKHASH SAR STATICCALL PUSH10 0x5FDB24FBA2A871EF883C MSTORE TLOAD EXP TIMESTAMP CALLF 0x6473 PUSH16 0x6C634300082200330000000000000000 "
		},
		"gasEstimates": {
			"creation": {
				"codeDepositCost": "773000",
				"executionCost": "infinite",
				"totalCost": "infinite"
			},
			"external": {
				"donate()": "infinite",
				"donators(uint256)": "4966",
				"getDonation(address)": "2874",
				"getTop3Donors()": "infinite",
				"owner()": "2514",
				"renounceOwnership()": "infinite",
				"totalAmout()": "2469",
				"transferOwnership(address)": "infinite",
				"withdraw()": "infinite"
			},
			"internal": {
				"_sortTop3()": "infinite",
				"_updateRanking(address,uint256)": "infinite"
			}
		},
		"methodIdentifiers": {
			"donate()": "ed88c68e",
			"donators(uint256)": "ac62f566",
			"getDonation(address)": "410a1d32",
			"getTop3Donors()": "2d1e2518",
			"owner()": "8da5cb5b",
			"renounceOwnership()": "715018a6",
			"totalAmout()": "dfeb3022",
			"transferOwnership(address)": "f2fde38b",
			"withdraw()": "3ccfd60b"
		}
	},
	"abi": [
		{
			"inputs": [
				{
					"internalType": "address",
					"name": "owner",
					"type": "address"
				}
			],
			"stateMutability": "nonpayable",
			"type": "constructor"
		},
		{
			"inputs": [],
			"name": "DonationEnd",
			"type": "error"
		},
		{
			"inputs": [],
			"name": "NoMoney",
			"type": "error"
		},
		{
			"inputs": [
				{
					"internalType": "address",
					"name": "owner",
					"type": "address"
				}
			],
			"name": "OwnableInvalidOwner",
			"type": "error"
		},
		{
			"inputs": [
				{
					"internalType": "address",
					"name": "account",
					"type": "address"
				}
			],
			"name": "OwnableUnauthorizedAccount",
			"type": "error"
		},
		{
			"inputs": [],
			"name": "WithdrawFailed",
			"type": "error"
		},
		{
			"anonymous": false,
			"inputs": [
				{
					"indexed": false,
					"internalType": "address",
					"name": "donator",
					"type": "address"
				},
				{
					"indexed": false,
					"internalType": "uint256",
					"name": "amount",
					"type": "uint256"
				}
			],
			"name": "Donate",
			"type": "event"
		},
		{
			"anonymous": false,
			"inputs": [
				{
					"indexed": true,
					"internalType": "address",
					"name": "previousOwner",
					"type": "address"
				},
				{
					"indexed": true,
					"internalType": "address",
					"name": "newOwner",
					"type": "address"
				}
			],
			"name": "OwnershipTransferred",
			"type": "event"
		},
		{
			"inputs": [],
			"name": "donate",
			"outputs": [],
			"stateMutability": "payable",
			"type": "function"
		},
		{
			"inputs": [
				{
					"internalType": "uint256",
					"name": "",
					"type": "uint256"
				}
			],
			"name": "donators",
			"outputs": [
				{
					"internalType": "address",
					"name": "",
					"type": "address"
				}
			],
			"stateMutability": "view",
			"type": "function"
		},
		{
			"inputs": [
				{
					"internalType": "address",
					"name": "donator",
					"type": "address"
				}
			],
			"name": "getDonation",
			"outputs": [
				{
					"internalType": "uint256",
					"name": "",
					"type": "uint256"
				}
			],
			"stateMutability": "view",
			"type": "function"
		},
		{
			"inputs": [],
			"name": "getTop3Donors",
			"outputs": [
				{
					"internalType": "address",
					"name": "top1",
					"type": "address"
				},
				{
					"internalType": "uint256",
					"name": "top1Amount",
					"type": "uint256"
				},
				{
					"internalType": "address",
					"name": "top2",
					"type": "address"
				},
				{
					"internalType": "uint256",
					"name": "top2Amount",
					"type": "uint256"
				},
				{
					"internalType": "address",
					"name": "top3",
					"type": "address"
				},
				{
					"internalType": "uint256",
					"name": "top3Amount",
					"type": "uint256"
				}
			],
			"stateMutability": "view",
			"type": "function"
		},
		{
			"inputs": [],
			"name": "owner",
			"outputs": [
				{
					"internalType": "address",
					"name": "",
					"type": "address"
				}
			],
			"stateMutability": "view",
			"type": "function"
		},
		{
			"inputs": [],
			"name": "renounceOwnership",
			"outputs": [],
			"stateMutability": "nonpayable",
			"type": "function"
		},
		{
			"inputs": [],
			"name": "totalAmout",
			"outputs": [
				{
					"internalType": "uint256",
					"name": "",
					"type": "uint256"
				}
			],
			"stateMutability": "view",
			"type": "function"
		},
		{
			"inputs": [
				{
					"internalType": "address",
					"name": "newOwner",
					"type": "address"
				}
			],
			"name": "transferOwnership",
			"outputs": [],
			"stateMutability": "nonpayable",
			"type": "function"
		},
		{
			"inputs": [],
			"name": "withdraw",
			"outputs": [],
			"stateMutability": "nonpayable",
			"type": "function"
		}
	]
}