{
	"data": {
		"bytecode": {
			"linkReferences": {},
			"object": "6080604052348015600e575f5ffd5b506104738061001c5f395ff3fe608060405234801561000f575f5ffd5b5060043610610029575f3560e01c8063b12601da1461002d575b5f5ffd5b61004760048036038101906100429190610274565b61005d565b60405161005491906102e0565b60405180910390f35b5f5f8484905090505f810361009e576040517faa4d46b900000000000000000000000000000000000000000000000000000000815260040160405180910390fd5b606481106100e6578060646040517fb93baa2b0000000000000000000000000000000000000000000000000000000081526004016100dd9291906102f9565b60405180910390fd5b5f5f90505f6001836100f8919061034d565b90505b80821161019f575f60028383610111919061034d565b61011b91906103ad565b8361012691906103dd565b90508588888381811061013c5761013b610410565b5b905060200201350361015457809450505050506101d1565b8588888381811061016857610167610410565b5b90506020020135111561018957600181610182919061034d565b9150610199565b60018161019691906103dd565b92505b506100fb565b6040517fbcc1b90200000000000000000000000000000000000000000000000000000000815260040160405180910390fd5b9392505050565b5f5ffd5b5f5ffd5b5f5ffd5b5f5ffd5b5f5ffd5b5f5f83601f840112610201576102006101e0565b5b8235905067ffffffffffffffff81111561021e5761021d6101e4565b5b60208301915083602082028301111561023a576102396101e8565b5b9250929050565b5f819050919050565b61025381610241565b811461025d575f5ffd5b50565b5f8135905061026e8161024a565b92915050565b5f5f5f6040848603121561028b5761028a6101d8565b5b5f84013567ffffffffffffffff8111156102a8576102a76101dc565b5b6102b4868287016101ec565b935093505060206102c786828701610260565b9150509250925092565b6102da81610241565b82525050565b5f6020820190506102f35f8301846102d1565b92915050565b5f60408201905061030c5f8301856102d1565b61031960208301846102d1565b9392505050565b7f4e487b71000000000000000000000000000000000000000000000000000000005f52601160045260245ffd5b5f61035782610241565b915061036283610241565b925082820390508181111561037a57610379610320565b5b92915050565b7f4e487b71000000000000000000000000000000000000000000000000000000005f52601260045260245ffd5b5f6103b782610241565b91506103c283610241565b9250826103d2576103d1610380565b5b828204905092915050565b5f6103e782610241565b91506103f283610241565b925082820190508082111561040a57610409610320565b5b92915050565b7f4e487b71000000000000000000000000000000000000000000000000000000005f52603260045260245ffdfea2646970667358221220f1747ed365b7545b8ff3fce4c3ea7c740dc6b84586899a1698b6e628539dcf3164736f6c63430008220033",
			"opcodes": "PUSH1 0x80 PUSH1 0x40 MSTORE CALLVALUE DUP1 ISZERO PUSH1 0xE JUMPI PUSH0 PUSH0 REVERT JUMPDEST POP PUSH2 0x473 DUP1 PUSH2 0x1C PUSH0 CODECOPY PUSH0 RETURN INVALID PUSH1 0x80 PUSH1 0x40 MSTORE CALLVALUE DUP1 ISZERO PUSH2 0xF JUMPI PUSH0 PUSH0 REVERT JUMPDEST POP PUSH1 0x4 CALLDATASIZE LT PUSH2 0x29 JUMPI PUSH0 CALLDATALOAD PUSH1 0xE0 SHR DUP1 PUSH4 0xB12601DA EQ PUSH2 0x2D JUMPI JUMPDEST PUSH0 PUSH0 REVERT JUMPDEST PUSH2 0x47 PUSH1 0x4 DUP1 CALLDATASIZE SUB DUP2 ADD SWAP1 PUSH2 0x42 SWAP2 SWAP1 PUSH2 0x274 JUMP JUMPDEST PUSH2 0x5D JUMP JUMPDEST PUSH1 0x40 MLOAD PUSH2 0x54 SWAP2 SWAP1 PUSH2 0x2E0 JUMP JUMPDEST PUSH1 0x40 MLOAD DUP1 SWAP2 SUB SWAP1 RETURN JUMPDEST PUSH0 PUSH0 DUP5 DUP5 SWAP1 POP SWAP1 POP PUSH0 DUP2 SUB PUSH2 0x9E JUMPI PUSH1 0x40 MLOAD PUSH32 0xAA4D46B900000000000000000000000000000000000000000000000000000000 DUP2 MSTORE PUSH1 0x4 ADD PUSH1 0x40 MLOAD DUP1 SWAP2 SUB SWAP1 REVERT JUMPDEST PUSH1 0x64 DUP2 LT PUSH2 0xE6 JUMPI DUP1 PUSH1 0x64 PUSH1 0x40 MLOAD PUSH32 0xB93BAA2B00000000000000000000000000000000000000000000000000000000 DUP2 MSTORE PUSH1 0x4 ADD PUSH2 0xDD SWAP3 SWAP2 SWAP1 PUSH2 0x2F9 JUMP JUMPDEST PUSH1 0x40 MLOAD DUP1 SWAP2 SUB SWAP1 REVERT JUMPDEST PUSH0 PUSH0 SWAP1 POP PUSH0 PUSH1 0x1 DUP4 PUSH2 0xF8 SWAP2 SWAP1 PUSH2 0x34D JUMP JUMPDEST SWAP1 POP JUMPDEST DUP1 DUP3 GT PUSH2 0x19F JUMPI PUSH0 PUSH1 0x2 DUP4 DUP4 PUSH2 0x111 SWAP2 SWAP1 PUSH2 0x34D JUMP JUMPDEST PUSH2 0x11B SWAP2 SWAP1 PUSH2 0x3AD JUMP JUMPDEST DUP4 PUSH2 0x126 SWAP2 SWAP1 PUSH2 0x3DD JUMP JUMPDEST SWAP1 POP DUP6 DUP9 DUP9 DUP4 DUP2 DUP2 LT PUSH2 0x13C JUMPI PUSH2 0x13B PUSH2 0x410 JUMP JUMPDEST JUMPDEST SWAP1 POP PUSH1 0x20 MUL ADD CALLDATALOAD SUB PUSH2 0x154 JUMPI DUP1 SWAP5 POP POP POP POP POP PUSH2 0x1D1 JUMP JUMPDEST DUP6 DUP9 DUP9 DUP4 DUP2 DUP2 LT PUSH2 0x168 JUMPI PUSH2 0x167 PUSH2 0x410 JUMP JUMPDEST JUMPDEST SWAP1 POP PUSH1 0x20 MUL ADD CALLDATALOAD GT ISZERO PUSH2 0x189 JUMPI PUSH1 0x1 DUP2 PUSH2 0x182 SWAP2 SWAP1 PUSH2 0x34D JUMP JUMPDEST SWAP2 POP PUSH2 0x199 JUMP JUMPDEST PUSH1 0x1 DUP2 PUSH2 0x196 SWAP2 SWAP1 PUSH2 0x3DD JUMP JUMPDEST SWAP3 POP JUMPDEST POP PUSH2 0xFB JUMP JUMPDEST PUSH1 0x40 MLOAD PUSH32 0xBCC1B90200000000000000000000000000000000000000000000000000000000 DUP2 MSTORE PUSH1 0x4 ADD PUSH1 0x40 MLOAD DUP1 SWAP2 SUB SWAP1 REVERT JUMPDEST SWAP4 SWAP3 POP POP POP JUMP JUMPDEST PUSH0 PUSH0 REVERT JUMPDEST PUSH0 PUSH0 REVERT JUMPDEST PUSH0 PUSH0 REVERT JUMPDEST PUSH0 PUSH0 REVERT JUMPDEST PUSH0 PUSH0 REVERT JUMPDEST PUSH0 PUSH0 DUP4 PUSH1 0x1F DUP5 ADD SLT PUSH2 0x201 JUMPI PUSH2 0x200 PUSH2 0x1E0 JUMP JUMPDEST JUMPDEST DUP3 CALLDATALOAD SWAP1 POP PUSH8 0xFFFFFFFFFFFFFFFF DUP2 GT ISZERO PUSH2 0x21E JUMPI PUSH2 0x21D PUSH2 0x1E4 JUMP JUMPDEST JUMPDEST PUSH1 0x20 DUP4 ADD SWAP2 POP DUP4 PUSH1 0x20 DUP3 MUL DUP4 ADD GT ISZERO PUSH2 0x23A JUMPI PUSH2 0x239 PUSH2 0x1E8 JUMP JUMPDEST JUMPDEST SWAP3 POP SWAP3 SWAP1 POP JUMP JUMPDEST PUSH0 DUP2 SWAP1 POP SWAP2 SWAP1 POP JUMP JUMPDEST PUSH2 0x253 DUP2 PUSH2 0x241 JUMP JUMPDEST DUP2 EQ PUSH2 0x25D JUMPI PUSH0 PUSH0 REVERT JUMPDEST POP JUMP JUMPDEST PUSH0 DUP2 CALLDATALOAD SWAP1 POP PUSH2 0x26E DUP2 PUSH2 0x24A JUMP JUMPDEST SWAP3 SWAP2 POP POP JUMP JUMPDEST PUSH0 PUSH0 PUSH0 PUSH1 0x40 DUP5 DUP7 SUB SLT ISZERO PUSH2 0x28B JUMPI PUSH2 0x28A PUSH2 0x1D8 JUMP JUMPDEST JUMPDEST PUSH0 DUP5 ADD CALLDATALOAD PUSH8 0xFFFFFFFFFFFFFFFF DUP2 GT ISZERO PUSH2 0x2A8 JUMPI PUSH2 0x2A7 PUSH2 0x1DC JUMP JUMPDEST JUMPDEST PUSH2 0x2B4 DUP7 DUP3 DUP8 ADD PUSH2 0x1EC JUMP JUMPDEST SWAP4 POP SWAP4 POP POP PUSH1 0x20 PUSH2 0x2C7 DUP7 DUP3 DUP8 ADD PUSH2 0x260 JUMP JUMPDEST SWAP2 POP POP SWAP3 POP SWAP3 POP SWAP3 JUMP JUMPDEST PUSH2 0x2DA DUP2 PUSH2 0x241 JUMP JUMPDEST DUP3 MSTORE POP POP JUMP JUMPDEST PUSH0 PUSH1 0x20 DUP3 ADD SWAP1 POP PUSH2 0x2F3 PUSH0 DUP4 ADD DUP5 PUSH2 0x2D1 JUMP JUMPDEST SWAP3 SWAP2 POP POP JUMP JUMPDEST PUSH0 PUSH1 0x40 DUP3 ADD SWAP1 POP PUSH2 0x30C PUSH0 DUP4 ADD DUP6 PUSH2 0x2D1 JUMP JUMPDEST PUSH2 0x319 PUSH1 0x20 DUP4 ADD DUP5 PUSH2 0x2D1 JUMP JUMPDEST SWAP4 SWAP3 POP POP POP JUMP JUMPDEST PUSH32 0x4E487B7100000000000000000000000000000000000000000000000000000000 PUSH0 MSTORE PUSH1 0x11 PUSH1 0x4 MSTORE PUSH1 0x24 PUSH0 REVERT JUMPDEST PUSH0 PUSH2 0x357 DUP3 PUSH2 0x241 JUMP JUMPDEST SWAP2 POP PUSH2 0x362 DUP4 PUSH2 0x241 JUMP JUMPDEST SWAP3 POP DUP3 DUP3 SUB SWAP1 POP DUP2 DUP2 GT ISZERO PUSH2 0x37A JUMPI PUSH2 0x379 PUSH2 0x320 JUMP JUMPDEST JUMPDEST SWAP3 SWAP2 POP POP JUMP JUMPDEST PUSH32 0x4E487B7100000000000000000000000000000000000000000000000000000000 PUSH0 MSTORE PUSH1 0x12 PUSH1 0x4 MSTORE PUSH1 0x24 PUSH0 REVERT JUMPDEST PUSH0 PUSH2 0x3B7 DUP3 PUSH2 0x241 JUMP JUMPDEST SWAP2 POP PUSH2 0x3C2 DUP4 PUSH2 0x241 JUMP JUMPDEST SWAP3 POP DUP3 PUSH2 0x3D2 JUMPI PUSH2 0x3D1 PUSH2 0x380 JUMP JUMPDEST JUMPDEST DUP3 DUP3 DIV SWAP1 POP SWAP3 SWAP2 POP POP JUMP JUMPDEST PUSH0 PUSH2 0x3E7 DUP3 PUSH2 0x241 JUMP JUMPDEST SWAP2 POP PUSH2 0x3F2 DUP4 PUSH2 0x241 JUMP JUMPDEST SWAP3 POP DUP3 DUP3 ADD SWAP1 POP DUP1 DUP3 GT ISZERO PUSH2 0x40A JUMPI PUSH2 0x409 PUSH2 0x320 JUMP JUMPDEST JUMPDEST SWAP3 SWAP2 POP POP JUMP JUMPDEST PUSH32 0x4E487B7100000000000000000000000000000000000000000000000000000000 PUSH0 MSTORE PUSH1 0x32 PUSH1 0x4 MSTORE PUSH1 0x24 PUSH0 REVERT INVALID LOG2 PUSH5 0x6970667358 0x22 SLT KECCAK256 CALL PUSH21 0x7ED365B7545B8FF3FCE4C3EA7C740DC6B84586899A AND SWAP9 0xB6 DUPN 0x28 MSTORE8 SWAP14 0xCF BALANCE PUSH5 0x736F6C6343 STOP ADDMOD 0x22 STOP CALLER "
		},
		"gasEstimates": {
			"creation": {
				"codeDepositCost": "227800",
				"executionCost": "267",
				"totalCost": "228067"
			},
			"external": {
				"binarySearch(uint256[],uint256)": "infinite"
			}
		},
		"methodIdentifiers": {
			"binarySearch(uint256[],uint256)": "b12601da"
		}
	},
	"abi": [
		{
			"inputs": [
				{
					"internalType": "uint256",
					"name": "len",
					"type": "uint256"
				},
				{
					"internalType": "uint256",
					"name": "max",
					"type": "uint256"
				}
			],
			"name": "ArrayTooLong",
			"type": "error"
		},
		{
			"inputs": [],
			"name": "InvalidZeroArr",
			"type": "error"
		},
		{
			"inputs": [],
			"name": "TargetNotFound",
			"type": "error"
		},
		{
			"inputs": [
				{
					"internalType": "uint256[]",
					"name": "arr",
					"type": "uint256[]"
				},
				{
					"internalType": "uint256",
					"name": "target",
					"type": "uint256"
				}
			],
			"name": "binarySearch",
			"outputs": [
				{
					"internalType": "uint256",
					"name": "index",
					"type": "uint256"
				}
			],
			"stateMutability": "pure",
			"type": "function"
		}
	]
}